:100000000C94E8000C94A7010C94AA010C94AD0187
:100010000C94B0010C94B3010C94B6010C94B9018A
:100020000C94BC010C94BF010C94C2010C94C5014A
:100030000C94C8010C94CB010C94CE010C94D1010A
:100040000C94D4010C94D7010C94DA010C94DD01CA
:100050000C94E0010C94E3010C94E6010C94E9018A
:100060000C94EC010C94EF010C94F2010C94F5014A
:100070000C94F8010C94FB010C94FE010C94010209
:100080000C9404020C9407020C940A020C940D02C6
:100090000C9410020C9413020C9416020C94190286
:1000A0000C941C020C941F020C9422020C94250246
:1000B0000C9428020C942B020C942E020C94310206
:1000C0000C9434020C9437020C943A020C943D02C6
:1000D0000C9440020C9443020C9446020C94490286
:1000E0000C944C020C94BF0C0C94951C0C94521361
:1000F0000C94330C0C94D01D0C94F30C0C94F91844
:100100000C941C190C9479180C94E8070C94AA14FC
:100110000C94090A0C94D10B0C9449120C943D19BF
:100120000C9432060C9428150C941B0A0C948A0823
:100130000C945F190C94700D0C949B180C943B1448
:100140000C94291C0C94D8140C946F1E0C94841DD0
:100150000C94C7060C94B7050C94FD170C9405136A
:100160000C949D0C0C94B00C0C94AC180C948E0C4C
:100170000C948B110C94830D0C9470190C945015E5
:100180000C945D050C9458180C9435180C940D0FB4
:100190000C94BE140C94321D0C94EC140C94B015F9
:1001A0000C94C1180C949C070C942D0D0C94001504
:1001B0000C940F0E0C9486190C94DC0C0C94E40B2C
:1001C0000C94B41D0C940A0D0C94360A0C94EE1386
:1001D0000FEF04BD0FEF05BDFBCF112700E204BDFB
:1001E000102715BD27E48FEF9FE00197F1F72A95BF
:1001F000D1F7F6CFF8940024112422243324442488
:1002000055246624772488249924AA24BB24CC244A
:10021000DD24EE24FF24002711272227332744273B
:100220005527662788279927AA27BB27CC27DD27AC
:10023000EE27FF2700E00CBF00E00BBF11241FBE1C
:10024000CFEFD1E2DEBFCDBF16E0A0E0B2E0E8E73D
:10025000F4E400E00BBF02C007900D92A63CB1078A
:10026000D9F719E0A6ECB6E001C01D92AE30B10797
:10027000E1F7ECE2F5E025E000E00BBF0FC00791ED
:100280001791EF93FF93E02FF12F0F931F932F936D
:1002900009952F911F910F91FF91EF91EA33F2078A
:1002A00071F70E941D1D0C94951ECF93DF931F9232
:1002B000CDB7DEB78983809149078F5F8093490767
:1002C0008981282F30E0C901880F991F820F931F61
:1002D000880F991F825B984FFC0180819181AC014E
:1002E0004F5F5F4FC901880F991F820F931F880FBF
:1002F000991F825B984FFC01518340838981282F8D
:1003000030E0C901880F991F820F931F880F991F32
:10031000865B984FFC01408151818981282F30E014
:10032000C901880F991F820F931F880F991F845B43
:10033000984FFC0180819181FA01199580914907BC
:100340008150809349070F90DF91CF9108958F934B
:1003500080E0A5C08F9381E0A2C08F9382E09FC010
:100360008F9383E09CC08F9384E099C08F9385E046
:1003700096C08F9386E093C08F9387E090C08F9351
:1003800088E08DC08F9389E08AC08F938AE087C010
:100390008F938BE084C08F938CE081C08F938DE02E
:1003A0007EC08F938EE07BC08F938FE078C08F9359
:1003B00080E175C08F9381E172C08F9382E16FC03D
:1003C0008F9383E16CC08F9384E169C08F9385E143
:1003D00066C08F9386E163C08F9387E160C08F937F
:1003E00088E15DC08F9389E15AC08F938AE157C03D
:1003F0008F938BE154C08F938CE151C08F938DE12B
:100400004EC08F938EE14BC08F938FE148C08F9386
:1004100080E245C08F9381E242C08F9382E23FC069
:100420008F9383E23CC08F9384E239C08F9385E23F
:1004300036C08F9386E233C08F9387E230C08F93AC
:1004400088E22DC08F9389E22AC08F938AE227C069
:100450008F938BE224C08F938CE221C08F938DE227
:100460001EC08F938EE21BC08F938FE218C08F93B4
:1004700080E315C08F9381E312C08F9382E30FC096
:100480008F9383E30CC08F9384E309C08F9385E33C
:1004900006C08F9386E303C08F9387E300C09F93CA
:1004A0009FB79F930F921F9211242F923F924F92CA
:1004B0005F926F927F928F929F92AF92BF92CF92F4
:1004C000DF92EF92FF920F931F932F933F934F93DF
:1004D0005F936F937F93CF93DF93EF93FF93AF93EC
:1004E000BF93E3DEBF91AF91FF91EF91DF91CF9189
:1004F0007F916F915F914F913F912F911F910F913C
:10050000FF90EF90DF90CF90BF90AF909F908F9033
:100510007F906F905F904F903F902F901F900F9023
:100520008F918F778FBF9F918F911895B7059C07FB
:100530008A08330C051386196F1ECF93DF93D92FCA
:10054000C82F099219922992399249925992699227
:10055000799289929992A992B992C992D992E99283
:10056000F99209931993299339934993599369936C
:10057000799389939993A993B993BF91AF91A993D3
:10058000B993E993F9930F900F910F900992099302
:100590000DB609920EB609920FB60992D72FC62F43
:1005A0000CA00FBE0AA00DBE0BA00EBE08A00F929D
:1005B00009A00F9200E00F930990199029903990AB
:1005C000499059906990799089909990A990B990A3
:1005D000C990D990E990F99009911991299139918F
:1005E000499159916991799189919991A991B9917B
:1005F000AF93BF93A991B991E991F991CA2FDB2FDC
:10060000BF91AF910895D92FC82F0CA00FBE0AA09B
:100610000DBE0BA00EBE08A00F9209A00F9200E025
:100620000F930990199029903990499059906990A9
:10063000799089909990A990B990C990D990E990B2
:10064000F99009911991299139914991599169919B
:10065000799189919991A991B991AF93BF93A991FA
:10066000B991E991F991CA2FDB2FBF91AF9108950C
:10067000CF93DF93D92FC82F0992199229923992DB
:10068000499259926992799289929992A992B992D2
:10069000C992D992E992F9920993199329933993BE
:1006A000499359936993799389939993A993B993AA
:1006B000BF91AF91A993B993E993F9930F900F91DB
:1006C0000F90099209930DB609920EB609920FB6D2
:1006D00009920C94FA11CF93DF9300D000D0CDB7DC
:1006E000DEB79C838B837E836D832B813C818D81E0
:1006F0009E81820F931F9A8389830BC089819A817F
:1007000001979A83898389819A81FC0180810E9463
:10071000B6098D819E819C01215031093E832D8334
:10072000892B61F726960FB6F894DEBF0FBECDBFBA
:10073000DF91CF910895CF93DF931F921F92CDB792
:10074000DEB79A83898362E070E0CE0101960E9451
:100750006B030F900F90DF91CF910895CF93DF93AC
:100760001F921F92CDB7DEB79A83898389819A81C0
:10077000892B69F48EE40E94710E85E50E94710E4A
:100780008CE40E94710E8CE40E94710E0AC0898173
:100790009A810E9497089C0189819A81B9010E94DF
:1007A0007E0E0F900F90DF91CF910895AF92BF9280
:1007B000CF92DF92EF92FF920F931F93CF93DF932D
:1007C0001F921F92CDB7DEB79A83898389819A8160
:1007D0005C01892F880F880BC82ED82EE82EF82EA2
:1007E000082F182F2A2D3B2D4C2D5D2D6E2D7F2D82
:1007F000802F912F0E9409040F900F90DF91CF91CD
:100800001F910F91FF90EF90DF90CF90BF90AF902E
:100810000895AF92BF92CF92DF92EF92FF920F9323
:100820001F93CF93DF93CDB7DEB728970FB6F89419
:10083000DEBF0FBECDBF29833A834B835C836D83BC
:100840007E838F839887A980BA80CB80DC80ED80FF
:10085000FE800F8118852A2D3B2D4C2D5D2D6E2D90
:100860007F2D802F912FA0E00E943022ECF429816F
:100870003A814B815C816D817E818F8198850E9458
:100880001422A22EB32EC42ED52EE62EF72E082F1C
:10089000192FA982BA82CB82DC82ED82FE820F837D
:1008A00018878DE20E94710EA980BA80CB80DC800F
:1008B000ED80FE800F8118852A2D3B2D4C2D5D2D5E
:1008C0006E2D7F2D802F912F0E94BA0828960FB68B
:1008D000F894DEBF0FBECDBFDF91CF911F910F9176
:1008E000FF90EF90DF90CF90BF90AF900895AF92C0
:1008F000BF92CF92DF92EF92FF920F931F93CF930D
:10090000DF931F921F92CDB7DEB79A8389838981C7
:100910009A815C01C12CD12CE12CF12C87012A2D6C
:100920003B2D4C2D5D2D6E2D7F2D802F912F0E9404
:10093000A6040F900F90DF91CF911F910F91FF9020
:10094000EF90DF90CF90BF90AF900895AF92BF929D
:10095000CF92DF92EF92FF920F931F93CF93DF938B
:10096000CDB7DEB728970FB6F894DEBF0FBECDBF68
:1009700029833A834B835C836D837E838F8398873F
:10098000A980BA80CB80DC80ED80FE800F81188545
:100990002A2D3B2D4C2D5D2D6E2D7F2D802F912FDF
:1009A0000E94BA0828960FB6F894DEBF0FBECDBFDE
:1009B000DF91CF911F910F91FF90EF90DF90CF903B
:1009C000BF90AF900895CF93DF931F921F92CDB742
:1009D000DEB79A83898389819A810E949B030F9055
:1009E0000F90DF91CF910895CF93DF9300D01F92A6
:1009F000CDB7DEB79A8389837C836B8389819A81A3
:100A000090930B0980930A098B819C8190930D0927
:100A100080930C090F900F900F900F90DF91CF9162
:100A20000895CF93DF931F92CDB7DEB7898380916E
:100A30000A0990910B09892B19F480E090E00EC00F
:100A400080910A0990910B09FC01208131818091EC
:100A50000C0990910D096981F90119950F90DF91A9
:100A6000CF910895CF93DF9300D01F92CDB7DEB71B
:100A70009A8389837C836B8380910A0990910B0907
:100A8000892B19F480E090E011C080910A099091BF
:100A90000B09FC012481358180910C0990910D098D
:100AA0004B815C8169817A81F90119950F900F90D2
:100AB0000F900F90DF91CF910895CF93DF93CDB733
:100AC000DEB728970FB6F894DEBF0FBECDBF9C836C
:100AD0008B837E836D8358874F8380910A09909121
:100AE0000B09892B19F480E090E01BC08D819E8159
:100AF0009A83898310C089819A819C012F5F3F4F1F
:100B00003A832983FC0180810E9411058F81988599
:100B1000019798878F838F819885892B61F780E073
:100B200090E028960FB6F894DEBF0FBECDBFDF91E0
:100B3000CF910895CF93DF9300D01F92CDB7DEB74A
:100B40009A8389837C836B8389819A81019741F49D
:100B50008B819C81019621F489E397E00E94DA0D54
:100B60000F900F900F900F90DF91CF910895CF933A
:100B7000DF93CDB7DEB76FEF7FEF81E090E00E94AB
:100B80009A05DF91CF910895CF93DF93CDB7DEB76C
:100B90000E94F31021E0892B09F020E0222319F0B4
:100BA00087E497E003C00E94F3108596DF91CF9110
:100BB0000895CF93DF931F92CDB7DEB78FE590E016
:100BC000FC0180818983F89489810F90DF91CF9116
:100BD0000895CF93DF93CDB7DEB70E94D905DF919B
:100BE000CF910895CF93DF93CDB7DEB78DE00E940C
:100BF000710E8AE00E94710EDF91CF910895CF931C
:100C0000DF931F921F92CDB7DEB79A8389838981C4
:100C10009A810E94AE030F900F90DF91CF910895BB
:100C2000CF93DF931F921F92CDB7DEB79A8389834C
:100C300089819A810E9477040F900F90DF91CF9164
:100C40000895CF93DF931F921F92CDB7DEB79A839B
:100C5000898389819A810E94D6030F900F90DF913A
:100C6000CF910895CF93DF9300D01F92CDB7DEB719
:100C70009C838B830E94E90581E392E00E94FF053B
:100C80008B819C819A838983CE0101960E942B07D8
:100C9000FFCFCF93DF931F921F92CDB7DEB71A829B
:100CA000198289819A81C897A4F529813A81C9015D
:100CB000880F991F820F931F880F991F865B984F8B
:100CC00022E336E0FC013183208349815A81298166
:100CD0003A81C901880F991F820F931F880F991FAE
:100CE000845B984FFC015183408329813A81C9017B
:100CF000880F991F820F931F880F991F825B984F4F
:100D0000FC011182108289819A8101969A838983DC
:100D1000C8CF0F900F90DF91CF910895CF93DF93BD
:100D200000D000D0CDB7DEB79A8389837C836B83F4
:100D30005E834D8389819A819A83898329813A814F
:100D4000C901880F991F820F931F880F991F865B17
:100D5000984F2B813C81FC013183208329813A818A
:100D6000C901880F991F820F931F880F991F845BF9
:100D7000984F2D813E81FC013183208326960FB64A
:100D8000F894DEBF0FBECDBFDF91CF910895CF9312
:100D9000DF9300D000D0CDB7DEB79C838B837E83FA
:100DA0006D838BE392E00E9441071A821982898148
:100DB0009A81C8970CF044C089819A810E942106CB
:100DC00087E492E00E94FF0529813A81C901880FDA
:100DD000991F820F931F880F991F865B984FFC0104
:100DE000808191810E94E3048AE492E00E94FF05E1
:100DF00029813A81C901880F991F820F931F880F9B
:100E0000991F845B984FFC01808191810E94E304CB
:100E10008AE492E00E94FF0529813A81C901880F86
:100E2000991F820F931F880F991F0496865B984F16
:100E30000E94540789819A8101969A838983B7CF4A
:100E400080E090E026960FB6F894DEBF0FBECDBFCF
:100E5000DF91CF910895CF93DF931F921F92CDB76B
:100E6000DEB79A83898389819A81FC01808191818F
:100E70000E9410060E94F2050F900F90DF91CF9113
:100E80000895CF93DF931F921F92CDB7DEB79A8359
:100E9000898389819A810E94FF050E94F2050F9043
:100EA0000F90DF91CF910895CF93DF931F921F9200
:100EB000CDB7DEB79A83898389819A81FC018081CD
:100EC00091810E9410060E94F2050F900F90DF9111
:100ED000CF9108950F931F93CF93DF9300D01F926C
:100EE000CDB7DEB79A8389837C836B8389819A81AE
:100EF0000197C9F48B819C810196A9F40AE918E055
:100F000020E030E047EC56E06CE472E0C8010E945B
:100F10004F10C801079620E030E040E050E060E06C
:100F200070E00E94B7100F900F900F900F90DF911C
:100F3000CF911F910F910895CF93DF93CDB7DEB777
:100F40006FEF7FEF81E090E00E946A07DF91CF9121
:100F50000895CF93DF9300D01F92CDB7DEB769839A
:100F60007A838B839C8389819A81AB81BC818093B6
:100F7000100290931102A0931202B093130280E02A
:100F800098EEA3E0B0E029813A814B815C81BC01FD
:100F9000CD010E947421DA01C9018093140290935B
:100FA0001502A0931602B093170280E090EAAFE01A
:100FB000B0E08093180290931902A0931A02B093A4
:100FC0001B020F900F900F900F90DF91CF9108951B
:100FD000AF92BF92CF92DF92EF92FF920F931F9347
:100FE000CF93DF93CDB7DEB7A090A808B090A90843
:100FF000C090AA08D090AB08E090AC08F090AD0883
:101000000091AE081091AF082A2D3B2D4C2D5D2D7F
:101010006E2D7F2D802F912FA1E00E942422A22EE1
:10102000B32EC42ED52EE62EF72E082F192FA09200
:10103000A808B092A908C092AA08D092AB08E09282
:10104000AC08F092AD080093AE081093AF08DF91A2
:10105000CF911F910F91FF90EF90DF90CF90BF90B5
:10106000AF900895CF93DF931F921F92CDB7DEB755
:101070009A8389832BE436E089819A81FC0131834C
:10108000208389819A81FC01138E128E89819A8135
:10109000FC0110A617A289819A81FC0112A611A653
:1010A0000F900F90DF91CF910895CF93DF931F9210
:1010B0001F92CDB7DEB79A83898389819A810E9476
:1010C000320827E636E089819A81FC01318320834A
:1010D0000F900F90DF91CF910895CF93DF9300D0C1
:1010E0001F92CDB7DEB79A8389837C836B83898116
:1010F0009A81019741F48B819C81019621F480EBC8
:1011000098E00E9455080F900F900F900F90DF917C
:10111000CF910895CF93DF93CDB7DEB76FEF7FEF19
:1011200081E090E00E946D08DF91CF910895CF9308
:10113000DF9300D01F92CDB7DEB79C838B831A82DA
:10114000198205C089819A8101969A838983898150
:101150009A812B813C81820F931FFC01808188231F
:1011600089F789819A810F900F900F900F90DF91EE
:10117000CF9108952F923F924F925F926F927F92FC
:101180008F929F92AF92BF92CF92DF92EF92FF9297
:101190000F931F93CF93DF93CDB7DEB7A4970FB60E
:1011A000F894DEBF0FBECDBF2D8F3E8F4F8F58A35B
:1011B00069A37AA38BA39CA3CE01059648969C8332
:1011C0008B838B819C819A838983AD8CBE8CCF8CE1
:1011D000D8A0E9A0FAA00BA11CA12A2D3B2D4C2DD3
:1011E0005D2D6E2D7F2D802F912FA0E00E9430224B
:1011F00019F480E30E94710E89819A8101979A8384
:10120000898389819A81FC01108266C089819A81D3
:1012100001979A8389832D8C3E8C4F8C58A069A0AE
:101220007AA08BA09CA00F2EFAE0AF2EF02DB12C4F
:10123000C12CD12CE12CF12C00E010E0222D332D1B
:10124000442D552D662D772D882D992D0E94B52181
:10125000A22EB32EC42ED52EE62EF72E082F192F30
:101260002A2D3B2D4C2D5D2D6E2D7F2D802F912F06
:10127000822F805D282F89819A81FC0120832D8C0B
:101280003E8C4F8C58A069A07AA08BA09CA00F2EFA
:10129000FAE0AF2EF02DB12CC12CD12CE12CF12C89
:1012A00000E010E0222D332D442D552D662D772D95
:1012B000882D992D0E94B721A22EB32EC42ED52E93
:1012C000E62EF72E082F192FAD8EBE8ECF8ED8A208
:1012D000E9A2FAA20BA31CA3AD8CBE8CCF8CD8A024
:1012E000E9A0FAA00BA11CA12A2D3B2D4C2D5D2DB0
:1012F0006E2D7F2D802F912FA0E00E94302209F0CB
:1013000085CF89819A810E94AE03A4960FB6F89486
:10131000DEBF0FBECDBFDF91CF911F910F91FF9028
:10132000EF90DF90CF90BF90AF909F908F907F9085
:101330006F905F904F903F902F900895CF93DF93E1
:101340001F921F92CDB7DEB78A838A818A3018F444
:101350008A81805D02C08A81895C898389810E943B
:10136000710E0F900F90DF91CF910895CF93DF937F
:101370001F92CDB7DEB78983898182958F700E94D5
:101380009E0989818F700E949E090F90DF91CF91F5
:101390000895CF93DF93CDB7DEB78DE00E94710E35
:1013A0008AE00E94710EDF91CF910895CF93DF9371
:1013B00000D000D0CDB7DEB749835A836B837C83DE
:1013C0008D839E838CE892E00E94AE038B819C818A
:1013D0000E94AE030E94C90983E992E00E94AE0315
:1013E0008D819E810E94AE030E94C9098AE992E024
:1013F0000E94AE0389819A810E9477040E94C909E4
:1014000026960FB6F894DEBF0FBECDBFDF91CF9109
:101410000895CF93DF931F921F92CDB7DEB79A83C3
:10142000898389819A818B960E9403030F900F9084
:10143000DF91CF910895CF93DF931F921F92CDB785
:10144000DEB79A83898389819A81FC0124A12E7F4A
:10145000FC0124A389819A818B960E94380380E045
:1014600090E00F900F90DF91CF910895CF93DF938D
:10147000CDB7DEB72E970FB6F894DEBF0FBECDBF47
:101480009E878D878D859E85FC0184A18071882330
:1014900099F086E0E4E1F3E0DE01179601900D9209
:1014A0008A95E1F74F81588569857A858B859C857A
:1014B0000E94D6090E946B0E8D859E85FC0184A139
:1014C00088708823A1F026E0EAE1F3E0CE010196DE
:1014D000DC0101900D922A95E1F749815A816B81D7
:1014E0007C818D819E810E94D6090E946B0E2E9672
:1014F0000FB6F894DEBF0FBECDBFDF91CF91089538
:10150000CF93DF931F921F92CDB7DEB79A83898363
:1015100089819A81FC01828193810F900F90DF91E4
:10152000CF910895CF93DF9300D01F92CDB7DEB750
:101530009A8389837C836B8389819A81FC012281D0
:1015400033818B819C81821793071CF080E090E0AF
:101550000DC089819A81FC01208131818B819C8120
:10156000880F991F880F991F820F931F0F900F905C
:101570000F900F90DF91CF910895CF93DF9300D01C
:101580001F92CDB7DEB79C838B830E94F3109A83A2
:10159000898389819A81FC0187A190A50E94800A94
:1015A0009C0141E08B819C81821793070CF440E001
:1015B000442359F00E94C4059C0189E090E0F901A0
:1015C0009183808380E090E00AC089819A81FC0148
:1015D00087A190A52B813C81B9010E94920A0F90AE
:1015E0000F900F900F90DF91CF910895CF93DF93DD
:1015F000CDB7DEB72C970FB6F894DEBF0FBECDBFC8
:1016000098878F837A8769875C874B878F819885D6
:101610000E94BD0A9A83898389819A81892B59F412
:101620000E94C4059C0187EF9FEFD9018D939C9385
:101630008FEF9FEF40C089819A81FC018081918169
:101640009C838B838B819C81DC018D919C91049682
:10165000FC01208131818B819C81F9011995817078
:10166000992721E0892B09F020E0222359F00E94DC
:10167000C4059C0181EA9FEFD9018D939C938FEF64
:101680009FEF19C089819A81FC01808191819E839D
:101690008D838D819E81DC018D919C910696DC016C
:1016A000ED91FC914B855C8569857A858D819E8164
:1016B00020E030E019952C960FB6F894DEBF0FBEEF
:1016C000CDBFDF91CF910895CF93DF9300D000D0AD
:1016D000CDB7DEB79A8389837C836B835E834D832A
:1016E0008B819C8129813A81FC01318320838B810C
:1016F0009C812D813E81FC013383228389819A81E3
:10170000FC01808191810296FC01208131814B8115
:101710005C8189819A81BA01F901199526960FB6E3
:10172000F894DEBF0FBECDBFDF91CF9108950F9328
:101730001F93CF93DF93CDB7DEB729970FB6F894F9
:10174000DEBF0FBECDBF9A8389837C836B835E83AC
:101750004D832F831987088789819A812B813C814A
:10176000FC013183208389819A812D813E81FC0196
:101770003383228389819A812F81FC01248389818B
:101780009A8128853985FC013683258329960FB6F1
:10179000F894DEBF0FBECDBFDF91CF911F910F91A7
:1017A0000895CF93DF9300D01F92CDB7DEB79A8311
:1017B00089837C836B8380E090E00F900F900F9083
:1017C0000F90DF91CF910895CF93DF9300D01F92B8
:1017D000CDB7DEB79A8389837C836B8380E090E00A
:1017E0000F900F900F900F90DF91CF910895EF928F
:1017F000FF920F931F93CF93DF9300D01F92CDB72B
:10180000DEB79A8389837C836B8389819A81019770
:10181000F9F48B819C810196D9F40F2EFBE2EF2E17
:10182000F7E0FF2EF02D00E010E020E041ED5BE05E
:1018300069E273E0C7010E94970BC701079600E0B9
:1018400010E020E044EE5BE06CE273E00E94970B56
:101850000F900F900F900F90DF91CF911F910F91EC
:10186000FF90EF900895CF93DF93CDB7DEB76FEF82
:101870007FEF81E090E00E94F70BDF91CF91089518
:10188000CF93DF9300D000D0CDB7DEB79A838983A2
:101890007C836B835E834D8389819A812D813E8118
:1018A000FC013383228389819A812B813C81FC0155
:1018B000318320838B819C8129813A81FC01338390
:1018C00022838D819E8129813A81FC01318320838D
:1018D00026960FB6F894DEBF0FBECDBFDF91CF9135
:1018E0000895CF93DF9300D01F92CDB7DEB79A83D0
:1018F00089837C836B838B819C81FC012081318176
:101900004B815C8189819A81B9010E94400C0F90C2
:101910000F900F900F90DF91CF910895CF93DF93A9
:101920001F921F92CDB7DEB79A8389838FE590E02F
:101930000F900F90DF91CF910895CF93DF9300D058
:101940001F92CDB7DEB79A8389837C836B838FE543
:1019500090E00F900F900F900F90DF91CF9108952E
:10196000CF93DF931F921F92CDB7DEB79A838983FF
:1019700080E090E00F900F90DF91CF910895CF938A
:10198000DF93CDB7DEB728970FB6F894DEBF0FBE52
:10199000CDBF9A8389837C836B835E834D83388735
:1019A0002F838FE590E028960FB6F894DEBF0FBE28
:1019B000CDBFDF91CF910895CF93DF9300D000D0BA
:1019C000CDB7DEB79A8389837C836B835E834D8337
:1019D0008FE590E026960FB6F894DEBF0FBECDBF20
:1019E000DF91CF910895CF93DF9300D000D0CDB792
:1019F000DEB79A8389837C836B835E834D838FE517
:101A000090E026960FB6F894DEBF0FBECDBFDF91F3
:101A1000CF910895CF93DF931F921F92CDB7DEB77A
:101A20009A83898382E090E00F900F90DF91CF91AD
:101A30000895CF93DF931F921F92CDB7DEB79A839D
:101A4000898320EC36E089819A81FC0131832083EF
:101A50000F900F90DF91CF910895CF93DF93CDB783
:101A6000DEB728970FB6F894DEBF0FBECDBF9A83BE
:101A700089837C836B835E834D8338872F8380E0EB
:101A800090E028960FB6F894DEBF0FBECDBFDF9171
:101A9000CF910895CF93DF9300D01F92CDB7DEB7DB
:101AA0009A8389837C836B8326E936E089819A81D6
:101AB000FC013183208389819A812B813C81FC0147
:101AC0003783268389819A8102966CE072E00E94B6
:101AD000710C0F900F900F900F90DF91CF910895A0
:101AE000CF93DF9300D01F92CDB7DEB79A8389835F
:101AF0007C836B838FE590E00F900F900F900F9099
:101B0000DF91CF910895CF93DF9300D01F92CDB78F
:101B1000DEB79A8389837C836B838FE590E00F9097
:101B20000F900F900F90DF91CF910895CF93DF9397
:101B30001F921F92CDB7DEB79A83898389819A81DC
:101B40000E94190D20EB36E089819A81FC013183D6
:101B500020830F900F90DF91CF910895CF93DF9363
:101B60001F921F92CDB7DEB79A83898389819A81AC
:101B70000E94960D20EA36E089819A81FC0131832A
:101B8000208389819A819C012E5F3F4F89819A81B0
:101B9000FC013383228389819A819C012E5F3F4F10
:101BA00089819A81FC01358324830F900F90DF9106
:101BB000CF910895CF93DF931F921F92CDB7DEB7D9
:101BC0009A83898389819A816FE273E00E944A0D2A
:101BD00089819A81FC011186108689819A81FC0194
:101BE0001386128689819A81FC0115861486898163
:101BF0009A8108960E94AE0D2CE736E089819A8181
:101C0000FC013183208326E836E089819A81FC013A
:101C1000318720870F900F90DF91CF910895CF9358
:101C2000DF93CDB7DEB72A970FB6F894DEBF0FBEAD
:101C3000CDBF9E838D8378876F835A8749878F8135
:101C40009885019698878F838D819E81FC0182857E
:101C500093859C838B838D819E819C01265F3F4F62
:101C60008B819C812817390719F18B819C81029700
:101C70009A83898389819A81FC01868197812F814A
:101C80003885B9010E94651B892B51F429853A8555
:101C900089819A8140E050E0B9010E94640B12C032
:101CA0008B819C81FC01808191819C838B83D3CF2C
:101CB0000E94C4059C018EEF9FEFF9019183808300
:101CC0008FEF9FEF2A960FB6F894DEBF0FBECDBF01
:101CD000DF91CF910895CF93DF93CDB7DEB70E9408
:101CE0006B21CF93DF931F92CDB7DEB789838981B4
:101CF0000E9411050F90DF91CF910895CF93DF934C
:101D000000D01F92CDB7DEB79A8389837C836B8323
:101D10002B813C8189819A81B9010E9432050F9003
:101D20000F900F900F90DF91CF910895CF93DF9395
:101D30001F92CDB7DEB78FE590E0FC0180818983EB
:101D4000F89489810F90DF91CF910895CF93DF931D
:101D50001F92CDB7DEB789838FE590E02981FC0122
:101D600020830F90DF91CF910895CF93DF931F923F
:101D7000CDB7DEB70E94960E8983809112079091AD
:101D8000130721E0892B09F020E0222319F0898133
:101D900080931107809112079091130701969093F9
:101DA0001307809312070F90DF91CF910895CF937F
:101DB000DF93CDB7DEB7809112079091130701979B
:101DC0009093130780931207809112079091130745
:101DD00021E0892B09F020E0222321F080911107D6
:101DE0000E94A60EDF91CF910895CF93DF93CDB7D8
:101DF000DEB71092130710921207DF91CF9108956A
:101E0000CF93DF93CDB7DEB78DE00E94710E8AE0ED
:101E10000E94710EDF91CF910895CF93DF93CDB7DC
:101E2000DEB784E393E00E94AE030E94000FFFCF71
:101E3000CF93DF93CDB7DEB78DE00E94710E8AE0BD
:101E40000E94710EDF91CF910895CF93DF93CDB7AC
:101E5000DEB7DF91CF910895CF93DF931F921F924A
:101E6000CDB7DEB79A83898389819A810E94AE03B8
:101E70000F900F90DF91CF910895CF93DF931F9232
:101E80001F92CDB7DEB79A83898389819A810E9498
:101E900077040F900F90DF91CF910895CF93DF9348
:101EA0001F921F92CDB7DEB79A83898389819A8169
:101EB00029813A81FC013383228389819A81FC0143
:101EC0002281338189819A81FC01318320830F90A3
:101ED0000F90DF91CF910895CF93DF9300D000D082
:101EE000CDB7DEB79A8389837C836B835E834D8312
:101EF00089819A812D813E81FC01338322838981EE
:101F00009A812B813C81FC01318320838B819C81D0
:101F100029813A81FC01338322838D819E8129812D
:101F20003A81FC013183208326960FB6F894DEBFF8
:101F30000FBECDBFDF91CF910895CF93DF9300D037
:101F40001F92CDB7DEB79A8389837C836B838B81A5
:101F50009C81FC01428153812B813C8189819A8142
:101F6000B9010E946C0F0F900F900F900F90DF91AE
:101F7000CF910895CF93DF9300D01F92CDB7DEB7F6
:101F80009A8389837C836B838B819C8129813A81AD
:101F9000FC013383228389819A812B813C81FC015E
:101FA000318320830F900F900F900F90DF91CF918E
:101FB0000895CF93DF931F921F92CDB7DEB79A8318
:101FC000898389819A81FC012081318189819A816B
:101FD000FC0182819381B9010E94BA0F89819A81A3
:101FE0000E944E0F0F900F90DF91CF910895CF93E5
:101FF000DF9300D01F92CDB7DEB79A8389837C83AD
:102000006B8389819A81FC012081318189819A8148
:10201000FC0182819381B9010E94BA0F2B813C811E
:1020200089819A81B9010E949D0F0F900F900F90A6
:102030000F90DF91CF910895CF93DF9300D000D020
:10204000CDB7DEB749835A836B837C838D839E83B0
:1020500084E593E00E94AE038B819C810E94AE03D5
:102060000E94180F8BE593E00E94AE038D819E8144
:102070000E94AE030E94180F82E693E00E94AE0316
:1020800089819A810E9477040E94180F26960FB6C4
:10209000F894DEBF0FBECDBFDF91CF910895CF93EF
:1020A000DF93CDB7DEB728970FB6F894DEBF0FBE2B
:1020B000CDBF9A8389837C836B835E834D8338870E
:1020C0002F8389819A812B813C81FC01318320837C
:1020D00089819A812D813E81FC013383228389810C
:1020E0009A81FC01148289819A812F813885FC01B3
:1020F0003683258328960FB6F894DEBF0FBECDBF7A
:10210000DF91CF910895CF93DF93CDB7DEB72897B6
:102110000FB6F894DEBF0FBECDBF9A8389837C8350
:102120006B835E834D8338872F8389819A812B81CE
:102130003C81FC013183208389819A812D813E81FC
:10214000FC013383228389819A81FC011482898175
:102150009A812F813885FC013683258328960FB616
:10216000F894DEBF0FBECDBFDF91CF910895CF931E
:10217000DF93CDB7DEB728970FB6F894DEBF0FBE5A
:10218000CDBF9A8389837C836B835E834D8338873D
:102190002F8389819A812B813C81FC0131832083AB
:1021A00089819A812D813E81FC013383228389813B
:1021B0009A81FC01148289819A812F813885FC01E2
:1021C0003683258328960FB6F894DEBF0FBECDBFA9
:1021D000DF91CF910895CF93DF93CDB7DEB7789499
:1021E000DF91CF910895CF93DF93CDB7DEB7809184
:1021F000140790911507DF91CF910895CF93DF9346
:102200001F921F92CDB7DEB79A8389830E94B50EC5
:1022100089819A81FC01148A89819A81FC01128644
:1022200089819A81049660E072E00E94F70F0E9413
:10223000D70E0F900F90DF91CF910895CF93DF933A
:102240001F921F92CDB7DEB79A8389830E94B50E85
:1022500089819A8124E0FC01248B89819A810496EA
:1022600064E072E00E94F70F0E94D70E0F900F906B
:10227000DF91CF910895CF93DF931F921F92CDB737
:10228000DEB79A8389830E94B50E89819A8123E003
:10229000FC01248B89819A8104960E94D90F0E94A7
:1022A000D70E0F900F90DF91CF910895CF93DF93CA
:1022B0001F92CDB7DEB789838981882F90E0833064
:1022C0009105A1F0843091052CF4009761F00297FC
:1022D00081F01BC085309105A9F0853091057CF017
:1022E000069751F012C089E693E011C08DE693E0A5
:1022F0000EC082E793E00BC087E793E008C08FE74A
:1023000093E005C085E893E002C08AE893E00F906F
:10231000DF91CF910895CF93DF931F921F92CDB796
:10232000DEB780910802909109024C979A838983C5
:1023300089819A814C968850924009F456C08981CF
:102340009A81FC01828D938D892B41F089819A813C
:10235000FC01828D938D0E942C0F04C08BE893E0CA
:102360000E942C0F83E993E00E942C0F89819A81AF
:10237000FC01868997890E943D0F89E993E00E94BC
:102380002C0F89819A81FC01808D918D0E943D0FD7
:102390008FE993E00E942C0F89819A81FC0182A130
:1023A00093A10E943D0F86EA93E00E942C0F898141
:1023B0009A81FC0180A191A10E943D0F8DEA93E0DA
:1023C0000E942C0F89819A81FC0184890E945611F8
:1023D0000E942C0F0E94BD1289819A81FC01848D7C
:1023E000958D4C979A838983A3CF0F900F90DF919F
:1023F000CF910895CF93DF93CDB7DEB78DE590E011
:102400002FEF31E2FC01318320830E94EB100E9408
:10241000F50E0E94A312FDCFCF93DF9300D01F9241
:10242000CDB7DEB79C838B8380910802909109021F
:102430004C979A83898389819A814C9688509240DF
:10244000F9F089819A81FC01828D938D892B79F035
:1024500089819A81FC01828D938D2B813C81B90108
:102460000E94651B892B19F489819A810BC089818F
:102470009A81FC01848D958D4C979A838983DBCF5B
:1024800080E090E00F900F900F900F90DF91CF9130
:102490000895CF93DF9300D000D0CDB7DEB79C83F3
:1024A0008B837E836D838B819C81039739F080ECD5
:1024B00093E00E94D61B80E090E03CC08D819E811D
:1024C0000496FC01808191810E940C129A83898379
:1024D00021E089819A81892B09F020E0222339F0BB
:1024E00083EE93E00E94D61B80E090E023C08D81B4
:1024F0009E810296FC018081918164EF73E00E94CD
:10250000651B892B29F489819A810E94FE1010C0D5
:102510008D819E810296FC01808191816AEF73E03A
:102520000E94651B892B21F489819A810E943B11AD
:1025300080E090E026960FB6F894DEBF0FBECDBFC8
:10254000DF91CF910895CF93DF9300D000D0CDB726
:10255000DEB726E0EEE2F4E0CE010196DC01019068
:102560000D922A95E1F749815A816B817C818D8199
:102570009E810E941C100E946B0ECF93DF93CDB7FB
:10258000DEB70E94250F0E94180FDF91CF910895AA
:102590000F931F93CF93DF9300D01F92CDB7DEB779
:1025A0009A8389837C836B8389819A81019721F542
:1025B0008B819C81019601F506E117E020E030E077
:1025C0004BE851E167E374E0C8010E948310095FA2
:1025D0001F4F20E030E049E452E16AE374E0C801B3
:1025E0000E944F10C801079620E030E040E050E024
:1025F00060E070E00E94B7100F900F900F900F9066
:10260000DF91CF911F910F910895CF93DF93CDB7B5
:10261000DEB76FEF7FEF81E090E00E94C812DF919C
:10262000CF910895CF93DF93CDB7DEB78DE00E94B1
:10263000710E8AE00E94710EDF91CF910895CF93C1
:10264000DF931F921F92CDB7DEB79A83898389816A
:102650009A810E94AE030F900F90DF91CF91089561
:10266000CF93DF931F921F92CDB7DEB79A838983F2
:1026700089819A810E94D6030F900F90DF91CF91AC
:102680000895CF93DF931F921F92CDB7DEB79A8341
:10269000898389819A810E94FE100F900F90DF91AB
:1026A000CF910895CF93DF9300D01F92CDB7DEB7BF
:1026B0009A8389837C836B838B819C81419759F4B6
:1026C00089819A81FC0184898630D9F489819A8133
:1026D0000E94411317C08B819C81029729F4898144
:1026E0009A810E941E110EC089819A814A969E018C
:1026F0002D5F3F4FA901BC0180E794E00E94891340
:1027000001C000000F900F900F900F90DF91CF91BC
:102710000895CF93DF9300D000D0CDB7DEB79A8372
:1027200089837C836B835E834D834D815E812B81A6
:102730003C8189819A81B9010E94A9130E941213D8
:1027400026960FB6F894DEBF0FBECDBFDF91CF91B6
:102750000895CF93DF9300D000D0CDB7DEB79A8332
:1027600089837C836B835E834D8389819A810E94F8
:102770001F1380E20E94710E2D813E818B819C810E
:10278000B9010E94CC1326960FB6F894DEBF0FBE97
:10279000CDBFDF91CF910895CF93DF9300D01F92EB
:1027A000CDB7DEB79A8389837C836B8389819A81D5
:1027B000FC01808191810E941F1380E20E94710EB2
:1027C0008B819C81FC01808191810E9430130F904C
:1027D0000F900F900F90DF91CF910895CF93DF93DB
:1027E00000D01F92CDB7DEB79A8389837C836B8339
:1027F00089819A81FC01868197812B813C81B90175
:102800000E94E51989819A81FC01868197812B813B
:102810003C81B9010E940B1A89819A81FC01868151
:10282000978160E070E00E947D1A89819A81FC01A5
:102830008681978160E070E00E94571A89819A81B1
:10284000FC01868197812B813C81B9010E94311A5C
:1028500020E137E240E050E060E070E080E090E0AE
:102860000E94F71A80E090E00F900F900F900F9069
:10287000DF91CF910895CF93DF9300D0CDB7DEB72E
:102880009A8389836B838B81882F90E082309105B6
:1028900089F0833091052CF4009721F1019771F1B3
:1028A00051C084309105B1F1843091057CF00597D9
:1028B000E9F148C089819A81FC018681978161E0B4
:1028C00070E00E94571A80E090E03EC089819A81B2
:1028D000FC018681978160E070E00E94571A80E0D9
:1028E00090E032C089819A81FC018681978161E004
:1028F00070E00E94311A80E090E026C089819A81C0
:10290000FC018681978160E070E00E94311A80E0CE
:1029100090E01AC089819A81FC018681978161E0EB
:1029200070E00E947D1A80E090E00EC089819A815B
:10293000FC018681978160E070E00E947D1A80E052
:1029400090E002C08FEF9FEF0F900F900F90DF91FC
:10295000CF910895CF93DF931F921F92CDB7DEB72B
:102960009A83898389819A81FC01868197810E945B
:10297000A8190F900F90DF91CF910895CF93DF9317
:1029800000D01F92CDB7DEB79A8389837C836B8397
:102990002B8189819A81FC0186819781622F0E9417
:1029A00093190F900F900F900F90DF91CF91089592
:1029B000CF93DF931F921F92CDB7DEB79A8389839F
:1029C00089819A81FC01868197810E94BB190F90B1
:1029D0000F90DF91CF910895CF93DF931F921F92B5
:1029E000CDB7DEB79A83898389819A81FC0186817C
:1029F00097810E94D0190F900F90DF91CF91089589
:102A0000CF93DF9300D01F92CDB7DEB79C838B832B
:102A10008B819C819A83898389819A81FC0182813F
:102A20009381892B71F089819A81FC012281338104
:102A300089819A81FC018481958160E070E0F901CF
:102A400019950F900F900F900F90DF91CF910895EF
:102A5000CF93DF9300D01F92CDB7DEB79C838B83DB
:102A60008B819C819A83898389819A81FC018281EF
:102A70009381892B71F089819A81FC0122813381B4
:102A800089819A81FC018481958161E070E0F9017E
:102A900019950F900F900F900F90DF91CF9108959F
:102AA000CF93DF9300D01F92CDB7DEB79C838B838B
:102AB0008B819C819A83898389819A81FC0182819F
:102AC0009381892B71F089819A81FC012281338164
:102AD00089819A81FC018481958162E070E0F9012D
:102AE00019950F900F900F900F90DF91CF9108954F
:102AF000CF93DF931F921F92CDB7DEB79A8389835E
:102B000089819A81FC018085882F90E029813A8112
:102B1000A90160E075E10E948E0689819A81FC011D
:102B20008085882F90E0019629813A81A90168E289
:102B300075E10E948E0689819A81FC018085882F2B
:102B400090E0029629813A81A90160E575E10E9431
:102B50008E0680E090E00F900F90DF91CF91089566
:102B6000EF920F93CF93DF93CDB7DEB729970FB6D0
:102B7000F894DEBF0FBECDBF9A8389834B835C83FD
:102B80006D837E832F830887E98689819A81DC01A2
:102B900016968D919C91179761E070E00E940B1A38
:102BA00089819A81FC018681978161E070E00E94B1
:102BB000E51989819A81DC011696ED91FC911797B0
:102BC0008B819C81AD81BE81E98408852F81AC0118
:102BD000BD01CF010E94A31A89819A810E947815B4
:102BE00089819A81FC018681978161E070E00E9471
:102BF000311A80E090E029960FB6F894DEBF0FBE40
:102C0000CDBFDF91CF910F91EF900895CF93DF93D8
:102C10001F921F92CDB7DEB79A83898389819A81EB
:102C20008830910599F08930910528F4009751F08A
:102C3000019751F011C08034910551F081159140F8
:102C400049F00AC080E009C081E007C082E005C009
:102C500083E003C084E001C08FEF0F900F90DF91FD
:102C6000CF9108950F931F93CF93DF93CDB7DEB726
:102C70002A970FB6F894DEBF0FBECDBF9A83898323
:102C80007C836B832D833E834F8358871A87098704
:102C9000E981FA8129853A858D819E81AF81B88548
:102CA0006B817C8189019C01AD01CF010E94B61628
:102CB0002EE036E089819A81FC01318320832A96B7
:102CC0000FB6F894DEBF0FBECDBFDF91CF911F913D
:102CD0000F9108950F931F93CF93DF93CDB7DEB776
:102CE0002A970FB6F894DEBF0FBECDBF9A838983B3
:102CF0007C836B832D833E834F8358871A87098794
:102D0000E981FA8129853A858D819E81AF81B885D7
:102D10006B817C8189019C01AD01CF010E94FB1672
:102D20002EEE35E089819A81FC01318320832A9639
:102D30000FB6F894DEBF0FBECDBFDF91CF911F91CC
:102D40000F910895CF93DF931F921F92CDB7DEB7F7
:102D50009A8389832EE236E089819A81FC0131834E
:102D600020830F900F90DF91CF9108950F931F93C1
:102D7000CF93DF93CDB7DEB72A970FB6F894DEBFB7
:102D80000FBECDBF9A8389837C836B832D833E8363
:102D90004F8358871A87098789819A810E94A216D2
:102DA0002EE136E089819A81FC013183208389817B
:102DB0009A812B813C81FC013383228329813A81D2
:102DC0008D819E81AF81B885F90184839583A68327
:102DD000B78389819A8129853A85FC0131872087CB
:102DE0002A960FB6F894DEBF0FBECDBFDF91CF910C
:102DF0001F910F9108950F931F93CF93DF93CDB73A
:102E0000DEB72A970FB6F894DEBF0FBECDBF9A8308
:102E100089837C836B832D833E834F8358871A87F6
:102E2000098789819A810E94A2162EEF35E0898157
:102E30009A81FC013183208389819A812B813C8195
:102E4000FC013383228329813A818D819E81AF8168
:102E5000B885F90184839583A683B78389819A8194
:102E600029853A85FC01318720872A960FB6F89488
:102E7000DEBF0FBECDBFDF91CF911F910F9108959F
:102E80004F925F926F927F928F929F92AF92BF927A
:102E9000CF92DF92EF92FF920F931F93CF93DF9326
:102EA000CDB7DEB72C970FB6F894DEBF0FBECDBFFF
:102EB0009A8389837C836B8389819A81019709F046
:102EC00085C08B819C81019609F080C026E134E1A8
:102ED00045E150E00EE610E064E470E085ED96E038
:102EE0000E94321683E1898760E16A8781E18B87DE
:102EF00062E16C870FE610E029853A854B855C8599
:102F000060E870E08FED96E00E946A168EE08D8397
:102F10006CE06E838DE08F83188600E710E02D81D2
:102F20003E814F81588560EB70E089EE96E00E940B
:102F300032160F2EF2E24F2EF02D0F2EFFE15F2EF4
:102F4000F02D6894662465F80F2EF1E27F2EF02DA7
:102F500001E710E0A301920160E970E083EF96E0E1
:102F60000E946A160F2EFCE28F2EF02D0F2EF9E232
:102F70009F2EF02D0F2EFAE2AF2EF02D0F2EFBE23A
:102F8000BF2EF02D02E710E0A501940160EA70E089
:102F90008DEF96E00E946A160F2EF1E3CF2EF02DF2
:102FA0000F2EFEE2DF2EF02D0F2EFFE2EF2EF02D82
:102FB0000F2EF0E3FF2EF02D03E710E0A70196019E
:102FC00060E271E087E097E00E946A162C960FB6E7
:102FD000F894DEBF0FBECDBFDF91CF911F910F914F
:102FE000FF90EF90DF90CF90BF90AF909F908F9029
:102FF0007F906F905F904F900895CF93DF9300D0B4
:1030000000D0CDB7DEB79C838B837E836D838D81AB
:103010009E810E940616882F90E09A838983898179
:103020009A8199231CF48FEF9FEF16C08B819C81AE
:10303000FC01828193812B813C81F90122813381C2
:10304000F9012181422F487F29813A812770242B61
:10305000FC01218380E090E026960FB6F894DEBF55
:103060000FBECDBFDF91CF910895CF93DF9300D0F6
:10307000CDB7DEB79A8389836B8389819A81FC01FE
:103080008281938129813A81F90122813381F90179
:103090002181322F387F2B812770232BFC01218344
:1030A00080E090E00F900F900F90DF91CF91089506
:1030B000CF93DF9300D0CDB7DEB79A8389836B833C
:1030C00089819A81FC018085918529813A81F90164
:1030D00020853185F9012081322F3E7F2B8121709F
:1030E000232BFC0120830F900F900F90DF91CF9145
:1030F0000895CF93DF9300D000D0CDB7DEB79A8389
:1031000089837C836B835E834D8389819A81FC01F3
:103110008481882F90E04D815E812B813C81B901B3
:103120000E948E0626960FB6F894DEBF0FBECDBF66
:10313000DF91CF910895CF93DF931F921F92CDB768
:10314000DEB79A83898382E0880F880F880F0F90FB
:103150000F90DF91CF910895CF93DF931F921F922D
:10316000CDB7DEB79A83898389819A81FC018281F8
:103170009381FC01848195810F900F90DF91CF9115
:103180000895CF93DF9300D000D0CDB7DEB79C83F6
:103190008B837E836D838D819E810E940616882F8E
:1031A00090E09A83898389819A8199231CF48FEF17
:1031B0009FEF16C08B819C81FC01828193812B81C2
:1031C0003C81F90122813381F9012181422F487F1D
:1031D00029813A812770242BFC01218380E090E033
:1031E00026960FB6F894DEBF0FBECDBFDF91CF910C
:1031F0000895CF93DF9300D0CDB7DEB79A8389834C
:103200006B8389819A81FC018281938129813A8132
:10321000F90122813381F9012181322F387F2B81FD
:103220002770232BFC01218380E090E00F900F900A
:103230000F90DF91CF910895CF93DF9300D0CDB75A
:10324000DEB79A8389836B8389819A81FC018085AB
:10325000918529813A81F90120853185F901208103
:10326000322F3E7F2B812170232BFC0120830F9076
:103270000F900F90DF91CF910895CF93DF9300D0FF
:1032800000D0CDB7DEB79A8389837C836B835E835E
:103290004D8389819A81FC018481882F90E04D8142
:1032A0005E812B813C81B9010E948E0626960FB665
:1032B000F894DEBF0FBECDBFDF91CF910895CF93BD
:1032C000DF931F921F92CDB7DEB79A83898381E087
:1032D000880F880F880F0F900F90DF91CF9108957E
:1032E000CF93DF931F921F92CDB7DEB79A83898366
:1032F00089819A81FC0182819381FC018281882FDE
:1033000090E00F900F90DF91CF910895CF93DF93CE
:10331000CDB7DEB76FEF7FEF81E090E00E944017FE
:10332000DF91CF910895CF93DF9300D0CDB7DEB773
:103330009A8389836B832B8189819A81FC012683FF
:1033400081E090E00F900F900F90DF91CF91089562
:10335000CF93DF931F921F92CDB7DEB79A838983F5
:1033600089819A81FC018681882F90E00F900F90CF
:10337000DF91CF910895CF93DF931F921F92CDB726
:10338000DEB79A83898389819A81FC018081882FA5
:1033900090E0807899270F900F90DF91CF9108955A
:1033A000CF93DF931F921F92CDB7DEB79A838983A5
:1033B00089819A81FC018081882F90E08072992711
:1033C0000F900F90DF91CF910895CF93DF9300D0AE
:1033D0001F92CDB7DEB79A8389837C836B838B8101
:1033E0009C81892B39F089819A81FC018181282F68
:1033F000206106C089819A81FC018181282F2F7E5E
:1034000089819A81FC0121830F900F900F900F907A
:10341000DF91CF910895CF93DF9300D01F92CDB766
:10342000DEB79A8389837C836B838B819C81892B14
:1034300039F089819A81FC018181282F286006C09A
:1034400089819A81FC018181282F277F89819A8136
:10345000FC0121830F900F900F900F90DF91CF917F
:103460000895CF93DF9300D01F92CDB7DEB79A8334
:1034700089837C836B838B819C81892B39F0898143
:103480009A81FC018181282F206806C089819A8158
:10349000FC018181282F2F7789819A81FC0121836A
:1034A0000F900F900F900F90DF91CF910895CF93D1
:1034B000DF9300D01F92CDB7DEB79A8389837C83D8
:1034C0006B838B819C81892B39F089819A81FC01E6
:1034D0008181282F206206C089819A81FC01818127
:1034E000282F2F7D89819A81FC0121830F900F90D5
:1034F0000F900F90DF91CF910895CF93DF9300D07D
:103500001F92CDB7DEB79A8389837C836B838B81CF
:103510009C81892B39F089819A81FC018181282F36
:10352000206406C089819A81FC018181282F2F7B2C
:1035300089819A81FC0121830F900F900F900F9049
:10354000DF91CF910895EF920F93CF93DF93CDB793
:10355000DEB72B970FB6F894DEBF0FBECDBF9C83AE
:103560008B834D835E836F83788729870A87EB86F9
:103570008B819C81FC018081282F22608B819C8122
:10358000FC01208380E099E0ADE3B0E02D813E8135
:103590004F815885BC01CD010E949621DA01C901F5
:1035A0000197A109B109BB231CF40196A11DB11D0E
:1035B000B595A795979587959A83898389819A81EF
:1035C000892F9927282F8B819C81FC0125832981B4
:1035D0008B819C81FC0124832B960FB6F894DEBF6F
:1035E0000FBECDBFDF91CF910F91EF900895AF92B5
:1035F000BF92CF92DF92EF92FF920F931F93CF93E0
:10360000DF93CDB7DEB760970FB6F894DEBF0FBE7D
:10361000CDBF29873A874B875C876D877E878F87E9
:10362000988B898589838A858A838B858B838C8512
:103630008C838D858D838E858E838F858F838889FE
:103640008887A980BA80CB80DC80ED80FE800F81E6
:1036500018852A2D3B2D4C2D5D2D6E2D7F2D802F15
:10366000912FAFEF0E942422A22EB32EC42ED52E6E
:10367000E62EF72E082F192FA982BA82CB82DC8280
:10368000ED82FE820F831887E1E02A2D3B2D4C2D21
:103690005D2D6E2D7F2D802F912FA0E00E94302276
:1036A00009F4E0E0EE2369F660960FB6F894DEBF09
:1036B0000FBECDBFDF91CF911F910F91FF90EF9083
:1036C000DF90CF90BF90AF900895CF93DF93CDB7A9
:1036D000DEB728970FB6F894DEBF0FBECDBF9E832E
:1036E0008D8378876F838D819E819A8389838F8173
:1036F00098859C838B830AC089819A8101969A83DD
:1037000089838B819C8101969C838B8389819A819B
:10371000FC018081882351F089819A81FC012081FC
:103720008B819C81FC018081281731F389819A81EA
:10373000FC018081282F30E08B819C81FC018081FD
:10374000882F90E0A901481B590BCA0128960FB693
:10375000F894DEBF0FBECDBFDF91CF910895CF9318
:10376000DF9300D01F92CDB7DEB79C838B838B8114
:103770009C819A83898389819A819C012F5F3F4F25
:103780003A832983FC0180818823A9F729813A8122
:103790008B819C81A901481B590BCA0101970F908D
:1037A0000F900F900F90DF91CF910895CF93DF93FB
:1037B00000D01F921F92CDB7DEB79D838C838AE025
:1037C0008B838C819D810E94AF1B9C018C819D818C
:1037D000A901BC0181E090E00E94F60A9A838983E6
:1037E000CE01039641E050E0BC0181E090E00E94F0
:1037F000F60A9C0189819A81820F931F9A8389839B
:1038000089819A810F900F900F900F900F90DF9108
:10381000CF910895CF93DF931F92CDB7DEB78FE599
:1038200090E0FC0180818983F89489810F90DF9179
:10383000CF910895CF93DF931F92CDB7DEB78983E1
:103840008FE590E02981FC0120830F90DF91CF91DB
:103850000895CF93DF9300D01F92CDB7DEB79B833F
:103860008A836C830E940A1C898380EC90E020ECA0
:1038700030E0F90120812064FC01208380EC90E09D
:10388000FC018081882F90E080729927892BB1F309
:1038900086EC90E02C81FC01208380EC90E0FC0120
:1038A0008081882F90E080749927892BB1F38981DA
:1038B0000E941A1C80E090E00F900F900F900F90E4
:1038C000DF91CF910895CF93DF9300D0CDB7DEB7CE
:1038D00080EC90E0FC01108288E090E09A8389837C
:1038E00085EC90E029813A81232F3327FC01208346
:1038F00084EC90E02981FC01208386E08B8382ECBC
:1039000090E02B81FC01208381EC90E021EC30E001
:10391000F90120812860FC01208380E090E00F9075
:103920000F900F90DF91CF910895CF93DF931F9267
:103930001F92CDB7DEB79A83898389819A81FC0172
:103940002481358189819A81FC0182819381B90129
:103950000E944E1F0F900F90DF91CF910895AF926C
:10396000BF92CF92DF92EF92FF920F931F93CF936C
:10397000DF93CDB7DEB760970FB6F894DEBF0FBE0A
:10398000CDBF29873A874B875C876D877E878F8776
:10399000988B898589838A858A838B858B838C859F
:1039A0008C838D858D838E858E838F858F8388898B
:1039B0008887A980BA80CB80DC80ED80FE800F8173
:1039C00018852A2D3B2D4C2D5D2D6E2D7F2D802FA2
:1039D000912FAFEF0E942422A22EB32EC42ED52EFB
:1039E000E62EF72E082F192FA982BA82CB82DC820D
:1039F000ED82FE820F831887E1E02A2D3B2D4C2DAE
:103A00005D2D6E2D7F2D802F912FA0E00E94302202
:103A100009F4E0E0EE2369F660960FB6F894DEBF95
:103A20000FBECDBFDF91CF911F910F91FF90EF900F
:103A3000DF90CF90BF90AF900895CF93DF93CDB735
:103A4000DEB70E94301E86EC96E00E94951C20E2B4
:103A500031EA47E050E060E070E080E090E00E94F2
:103A6000AF1CF1CFCF93DF9300D0CDB7DEB79A83F1
:103A700089836B838FEF9FEF0F900F900F90DF91F3
:103A8000CF910895CF93DF931F921F92CDB7DEB7EA
:103A90009A8389832AEA35E089819A81FC013183FE
:103AA00020830F900F90DF91CF910895CF93DF93F4
:103AB00000D000D0CDB7DEB79A8389837C836B8337
:103AC0005E834D8389819A810E94421D2CE935E0F5
:103AD00089819A81FC013183208389819A812B819C
:103AE0003C81FC013383228389819A812D813E812F
:103AF000FC013583248326960FB6F894DEBF0FBEF3
:103B0000CDBFDF91CF910895CF93DF93CDB7DEB7CF
:103B100028970FB6F894DEBF0FBECDBF9A83898376
:103B20004B835C836D837E838B819C81AD81BE8161
:103B300029813A81F9016481758129813A81F901EC
:103B40000280F381E02DF887EF839C01AD018F8126
:103B500098850E94661F28960FB6F894DEBF0FBEA8
:103B6000CDBFDF91CF910895CF93DF9300D0CDB734
:103B7000DEB79A8389836B8389819A81FC012481D2
:103B8000358189819A81FC01828193814B81B901C0
:103B90000E94061F0F900F900F90DF91CF91089514
:103BA000CF93DF931F921F92CDB7DEB79A8389839D
:103BB00089819A81FC012481358189819A81FC0166
:103BC00082819381B9010E94371F21E0892B09F47A
:103BD00020E0822F90E00F900F90DF91CF91089519
:103BE000CF93DF931F921F92CDB7DEB79A8389835D
:103BF0002AE835E089819A81FC01318320830F9086
:103C00000F90DF91CF910895CF93DF9300D000D034
:103C1000CDB7DEB79A8389837C836B835E834D83C4
:103C200089819A810E94F01D2CED35E089819A816D
:103C3000FC013183208389819A812B813C81FC01A5
:103C4000378326832D8189819A81FC0120872696DE
:103C50000FB6F894DEBF0FBECDBFDF91CF910895B0
:103C6000CF93DF93CDB7DEB70E949C1E40E051E0BA
:103C700060E070E086EC96E00E94841D61E086ECD6
:103C800096E00E94B41DDF91CF910895CF93DF930A
:103C900000D01F92CDB7DEB79A8389837C836B8374
:103CA00089819A810197A1F48B819C81019681F48D
:103CB00047E050E063E270E086EC96E00E94561D1B
:103CC00048E150E060EC70E08CEC96E00E94041E4D
:103CD0000F900F900F900F90DF91CF910895CF9399
:103CE000DF93CDB7DEB76FEF7FEF81E090E00E940A
:103CF000461EDF91CF910895CF93DF931F92CDB7EA
:103D0000DEB78FE590E0FC0180818983F89489819A
:103D10000F90DF91CF910895CF93DF93CDB7DEB7AA
:103D20000E947C1EDF91CF910895CF93DF93CDB792
:103D3000DEB70E948C1EFFCFCF93DF93CDB7DEB7E7
:103D40000E9449060E94631C60E070E080ED95E0EF
:103D50000E94F40440E050E068EE77E086E190E0F5
:103D60000E948E0661E084E490E00E942C2160E4D1
:103D700070E084E490E00E94BF2060ED73E080E09A
:103D800090E00E94A907DF91CF910895CF93DF9330
:103D9000CDB7DEB78DE00E94710E8AE00E94710EF1
:103DA000DF91CF910895CF93DF9300D000D0CDB7AE
:103DB000DEB749835A836B837C838D839E8386EE33
:103DC00094E00E94AE038B819C810E94AE030E940E
:103DD000C61E8DEE94E00E94AE038D819E810E94EE
:103DE000AE030E94C61E84EF94E00E94AE03898158
:103DF0009A810E9477040E94C61E26960FB6F894F8
:103E0000DEBF0FBECDBFDF91CF910895CF93DF937B
:103E100000D01F921F92CDB7DEB79A8389837C832F
:103E20006B834D838D81882361F089819A81FC01A8
:103E300092818B81292F282B89819A81FC012283F1
:103E40000CC089819A81FC0192818B818095292FF8
:103E5000282389819A81FC01228380E090E00F90E1
:103E60000F900F900F900F90DF91CF910895CF9307
:103E7000DF9300D01F92CDB7DEB79A8389837C830E
:103E80006B8389819A81FC018081882F90E00F905B
:103E90000F900F900F90DF91CF910895CF93DF9304
:103EA00000D01F92CDB7DEB79A8389837C836B8362
:103EB0002B8189819A81FC01208380E090E00F9022
:103EC0000F900F900F90DF91CF910895CF93DF93D4
:103ED000CDB7DEB7A0970FB6F894DEBF0FBECDBF4B
:103EE0009A8F898F7C8F6B8F2D8F3E8F4F8F58A32A
:103EF0008D8D9E8DAF8DB8A18827AA27BB27892BD2
:103F00008A2B8B2B71F08D8D9E8DAF8DB8A199274B
:103F1000AA27BB27892B8A2B8B2B19F08FEF9FEFBA
:103F2000B3C08D8D9E8DAF8DB8A181709927AA27C2
:103F3000BB27892B8A2B8B2B09F48CC0898D9A8DFA
:103F4000FC0191818B8D8095292F2823898D9A8D55
:103F5000FC0121838D8D9E8DAF8DB8A18071992735
:103F6000AA27BB27892B8A2B8B2B99F086E0EEE2C0
:103F7000F5E0DE01539601900D928A95E1F74B89A9
:103F80005C896D897E898F89988D0E94D31E0E94DD
:103F90006B0E8D8D9E8DAF8DB8A182709927AA274B
:103FA000BB27892B8A2B8B2B99F086E0E4E3F5E085
:103FB000DE011D9601900D928A95E1F74D855E8593
:103FC0006F85788989899A890E94D31E0E946B0E19
:103FD0008D8D9E8DAF8DB8A184709927AA27BB27A0
:103FE000892B8A2B8B2B99F086E0EAE3F5E0DE0142
:103FF000179601900D928A95E1F74F815885698552
:104000007A858B859C850E94D31E0E946B0E8D8DB8
:104010009E8DAF8DB8A188709927AA27BB27892BC1
:104020008A2B8B2BA1F026E0E0E4F5E0CE0101968F
:10403000DC0101900D922A95E1F749815A816B814B
:104040007C818D819E810E94D31E0E946B0E80E038
:1040500090E01AC08D8D9E8DAF8DB8A1882791708C
:10406000AA27BB27892B8A2B8B2B71F0898D9A8DE0
:10407000FC0191818B8D292F282B898D9A8DFC0134
:10408000218380E090E000C0A0960FB6F894DEBFD8
:104090000FBECDBFDF91CF910895CF93DF93CDB702
:1040A000DEB78DE00E94710E8AE00E94710EDF91F2
:1040B000CF910895CF93DF9300D000D0CDB7DEB776
:1040C00049835A836B837C838D839E8386EE94E041
:1040D0000E94AE038B819C810E94AE030E944D2002
:1040E0008DEE94E00E94AE038D819E810E94AE030E
:1040F0000E944D2084EF94E00E94AE0389819A8152
:104100000E9477040E944D2026960FB6F894DEBFD9
:104110000FBECDBFDF91CF910895CF93DF931F9254
:104120001F92CDB7DEB79A83898389819A818830BF
:104130009105A9F08930910528F4009751F0019775
:1041400059F016C08034910569F08115914069F0ED
:104150000FC080E090E00EC081E090E00BC082E0F4
:1041600090E008C083E090E005C084E090E002C0E9
:104170008FEF9FEF0F900F90DF91CF9108951F93D6
:10418000CF93DF9300D01F92CDB7DEB79A83898398
:104190007C836B8389819A81FC018181182F187F30
:1041A0008B819C810E948D208770812B282F898193
:1041B0009A81FC0121830F900F900F900F90DF9157
:1041C000CF911F910895CF93DF93CDB7DEB7289796
:1041D0000FB6F894DEBF0FBECDBF98878F838F8157
:1041E000988580399105B9F08139910538F4843486
:1041F000910559F08038910551F011C0803A910530
:1042000061F0803B910529F00AC080E01CC081E08C
:104210001AC082E018C083E016C084E014C026E013
:10422000EAE7F5E0CE010196DC0101900D922A95B6
:10423000E1F749815A816B817C818D819E810E9449
:104240005A200E946B0E28960FB6F894DEBF0FBE60
:10425000CDBFDF91CF910895CF92DF92EF92FF9281
:104260000F931F93CF93DF9300D0CDB7DEB79A8320
:1042700089836B830F2EFEE6EF2EF12CF02D8981C2
:104280009A810E94E320082F10E00F2EFEE6CF2E29
:10429000D12CF02D89819A810E94E320882F90E013
:1042A0008C0D9D1DFC018081982F9E7F8B818170DC
:1042B000892B282FC701800F911FFC0120830F90AD
:1042C0000F900F90DF91CF911F910F91FF90EF9082
:1042D000DF90CF900895CF93DF93CDB7DEB780E81E
:1042E00095E00E94AE03FFCFA1E21A2EAA1BBB1BD2
:1042F000FD010DC0AA1FBB1FEE1FFF1FA217B307B2
:10430000E407F50720F0A21BB30BE40BF50B661FC7
:10431000771F881F991F1A9469F76095709580958B
:1043200090959B01AC01BD01CF010895052E97FB2F
:104330001EF400940E94AD2157FD07D00E94742105
:1043400007FC03D04EF40C94AD2150954095309568
:1043500021953F4F4F4F5F4F0895909580957095F1
:1043600061957F4F8F4F9F4F0895689401C0E894E7
:104370008F929F92CF93DF930E94C321DF91CF91C1
:104380009F908F90089588249924F401E401B0E46B
:104390009F93AA279A158B049C04ED05FE05CF0573
:1043A000D007A10798F4AD2FDC2FCF2FFE2FE92DDA
:1043B000982C892E982F872F762F652F542F432FD7
:1043C000322F2227B85031F7BF9127C01B2EBF9143
:1043D000BB27220F331F441F551F661F771F881FDF
:1043E000991F881C991CEE1FFF1FCC1FDD1FAA1FE1
:1043F000BB1F8A149B04EC05FD05CE05DF05A00755
:10440000B10748F08A189B08EC09FD09CE09DF09BD
:10441000A00BB10B21601A94E1F62EF49401AF01C8
:10442000BE01CD01000C0895609570958095909522
:1044300030954095509521953F4F4F4F5F4F6F4FAF
:104440007F4F8F4F9F4F08950024A7FD00942A0FA0
:10445000301D401D501D601D701D801D901D089554
:104460000024A7FD00942A1730054005500560057B
:08447000700580059005089518
:104478000002000204020402080208020C020C02F4
:104488000100000001000000010000006E616E00E4
:104498002B696E66002D696E66003078002020203A
:1044A800004952515F535455425F005F5F69727112
:1044B8007461626C653A003A200020006972717478
:1044C80061626C65002F686F6D652F6D69726D692B
:1044D8006B2F70726F6A6563742F67656E6F732FC9
:1044E8007372632F67656E6F732F61706974696D7E
:1044F800652E637070000F005502530666696C657F
:104508003A200066756E633A20006C696E653A2041
:10451800002F686F6D652F6D69726D696B2F7072F2
:104528006F6A6563742F67656E6F732F7372632F7D
:1045380067656E6F732F736368656465652F617552
:10454800746F6D2E637070002300A1025A062F68E5
:104558006F6D652F6D69726D696B2F70726F6A650B
:1045680063742F67656E6F732F7372632F67656E41
:104578006F732F736368656465652F636F6F702E43
:10458800637070003D00DE026F064100DE026F06B8
:1045980074696D6572000D0A006364006C73002F06
:1045A800646576005F5F6378615F707572655F76DA
:1045B80069727475616C005F5F64736F5F68616EC8
:1045C800646C650066696C653A200066756E633ACE
:1045D80020006C696E653A200052554E0053544FC6
:1045E80050005741495400574149545343480046E5
:1045F800494E414C005A4F4D420000756E6E616D38
:10460800656400207069643A00206769643A002094
:10461800657865633A0020646973703A00207374A2
:104628006174653A007072696F6C766C3A000900C3
:1046380075736167653A2070726F636374722043A3
:104648004D443D72756E7C73746F70204D4E454DB0
:104658004F0D00756E6B6E6F776E207363686564BF
:1046680065650D0073746172740073746F70002F48
:10467800686F6D652F6D69726D696B2F70726F6AE7
:104688006563742F67656E6F732F7372632F676529
:104698006E6F732F73636865642E637070003701E3
:1046A800FF033A060D0A0070730070726F6363743B
:1046B80072002065786563636F756E7465723A0081
:1046C8002064697370636F756E7465723A00207048
:1046D80072696F3A00207363685F73746174650070
:1046E800554E485349473A002D3058002D30780030
:1046F8002D002B3058002B3078002B00203058002C
:1047080020307800200030580030780000286E757E
:104718006C6C29002D0030580030780000300020E3
:10472800002B00005C6E005C74005C5C005C780030
:104738006920726563763A20007572696E673A007F
:1047480025733A20257300617263685F7368757416
:10475800646F776E0A0066696C653A200066756E4C
:10476800633A20006C696E653A20002F686F6D65AA
:104778002F6D69726D696B2F70726F6A6563742F24
:1047880067656E6F732F617263682F6176722F731E
:1047980072632F6176725F6770696F2E63002700FE
:1047A800FB04B4052C00FB04B4053100FB04B4057C
:1047B8003600FB04B4052F686F6D652F6D69726D47
:1047C800696B2F70726F6A6563742F67656E6F739C
:1047D8002F617263682F6176722F7372632F61760F
:1047E800725F74696D65722E630038004605C305F3
:1047F80061626F727400000000000D0F0D0F0D0F45
:104808000D0F0D0F0D0F0D0F00000000B41DD01D72
:10481800951C841D321D000000000D0F0D0F0D0F9B
:104828000D0F321D6176725F6770696F5F73657413
:104838007570006176725F74696D65725F6E6F0086
:10484800291C00005D05000000000000B015EE13F3
:104858003B14AA14BE14D814EC1400000000FD1771
:104868003518581879189B18AC1800000000FD1767
:104878003518581879189B18AC1800000000C11892
:10488800F9181C193D195F19701900000000C118AA
:10489800F9181C193D195F197019000000000D0F57
:1048A8000D0F0D0F0D0F0D0F0D0F5F5F7363686513
:1048B80064756C655F5F00000000000D0F0D0F0D43
:1048C8000F52136D736C6565700066696E616C6973
:1048D8007A650000000000090A1B0A360A521366AE
:1048E800696E616C697A6500000000000F0E700D3A
:1048F800830DF8FF00008E0C9D0C0A0D2D0DDC0CAD
:10490800F30C000000000D0F700D830D0000000077
:104918008E0C9D0C0A0D2D0DDC0CF30C0000000014
:104928008E0C9D0C0A0DBF0CDC0CF30C0000000073
:064938008E0C9D0CB00C7A
:04000003000001D028
:00000001FF
