:100000000C9479000C94AA000C94AA000C94AA00F9
:100010000C94AA000C94AA000C94AA000C94AA00B8
:100020000C94AA000C94AA000C94AA000C94AA00A8
:100030000C94AA000C94AA000C94AA000C94AA0098
:100040000C94AA000C94AA000C94AA000C94AA0088
:100050000C94AA000C94AA000C94AA000C94AA0078
:100060000C94AA000C94AA000C94AA000C94AA0068
:100070000C94AA000C94AA000C94AA000C94AA0058
:100080000C94AA000C94AA000C94AA000C94AA0048
:100090000C94AA000C94AA000C94AA000C94AA0038
:1000A0000C94AA000C94AA000C94AA000C94AA0028
:1000B0000C94AA000C94AA000C94AA000C94AA0018
:1000C0000C94AA000C94AA000C94AA000C94AA0008
:1000D0000C94AA000C94AA000C94AA000C94AA00F8
:1000E0000C94AA000C94F9040C9457040C94AB03E0
:1000F000F90411241FBECFEFD1E2DEBFCDBF00E077
:100100000CBF13E0A0E0B2E0EEE7FEE000E00BBFC2
:1001100002C007900D92A034B107D9F723E0A0E404
:10012000B3E001C01D92A236B207E1F710E0C9E7C3
:10013000D0E000E006C021970109802FFE010E9457
:10014000FC06C837D10780E00807A9F70E948C0198
:100150000C943D070C940000CF93DF931F921F92E5
:10016000CDB7DEB79A83898389819A81892B69F417
:100170008EE40E94650585E50E9465058CE40E9479
:1001800065058CE40E9465050AC089819A810E94F8
:100190008A059C0189819A81B9010E9472050F909C
:1001A0000F90DF91CF910895AF92BF92CF92DF92DF
:1001B000EF92FF920F931F93CF93DF931F921F92A3
:1001C000CDB7DEB79A83898389819A815C01C12C7E
:1001D000D12CE12CF12C87012A2D3B2D4C2D5D2DAE
:1001E0006E2D7F2D802F912F0E9403010F900F9075
:1001F000DF91CF911F910F91FF90EF90DF90CF9003
:10020000BF90AF900895AF92BF92CF92DF92EF92DE
:10021000FF920F931F93CF93DF93CDB7DEB728974D
:100220000FB6F894DEBF0FBECDBF29833A834B8350
:100230005C836D837E838F839887A980BA80CB800F
:10024000DC80ED80FE800F8118852A2D3B2D4C2D02
:100250005D2D6E2D7F2D802F912F0E94AD0528964C
:100260000FB6F894DEBF0FBECDBFDF91CF911F91C7
:100270000F91FF90EF90DF90CF90BF90AF900895D7
:10028000CF93DF931F92CDB7DEB789838091580358
:1002900090915903892B19F480E090E00EC0809171
:1002A000580390915903FC012081318180915A03B8
:1002B00090915B036981F90119950F90DF91CF91BE
:1002C0000895CF93DF9300D01F92CDB7DEB79A8306
:1002D00089837C836B838091580390915903892B88
:1002E00019F480E090E011C0809158039091590377
:1002F000FC012481358180915A0390915B034B81ED
:100300005C8169817A81F90119950F900F900F90A6
:100310000F90DF91CF910895CF93DF93CDB7DEB7E4
:1003200084E290E02FEFFC01208385E290E02FEF44
:10033000FC012083FFCFCF93DF93CDB7DEB78DE0F5
:100340000E9465058AE00E946505DF91CF910895BE
:10035000CF93DF93CDB7DEB7DF91CF910895CF93E1
:10036000DF931F921F92CDB7DEB79A83898389816D
:100370009A810E94AC000F900F90DF91CF91089569
:10038000CF93DF931F921F92CDB7DEB79A838983F5
:1003900089819A810E94D4000F900F90DF91CF91B4
:1003A0000895CF93DF931F921F92CDB7DEB79A8344
:1003B000898389819A8129813A81FC01338322834F
:1003C00089819A81FC012281338189819A81FC0192
:1003D000318320830F900F90DF91CF910895CF93B9
:1003E000DF9300D000D0CDB7DEB79A8389837C83BA
:1003F0006B835E834D8389819A812D813E81FC01CF
:100400003383228389819A812B813C81FC01318352
:1004100020838B819C8129813A81FC013383228353
:100420008D819E8129813A81FC013183208326962A
:100430000FB6F894DEBF0FBECDBFDF91CF91089508
:10044000CF93DF9300D01F92CDB7DEB79A83898315
:100450007C836B838B819C81FC01428153812B8146
:100460003C8189819A81B9010E94EF010F900F9020
:100470000F900F90DF91CF910895CF93DF9300D02D
:100480001F92CDB7DEB79A8389837C836B838B8180
:100490009C8129813A81FC013383228389819A815D
:1004A0002B813C81FC01318320830F900F900F90B2
:1004B0000F90DF91CF910895CF93DF931F921F92FA
:1004C000CDB7DEB79A83898389819A81FC01208127
:1004D000318189819A81FC0182819381B9010E94D5
:1004E0003D0289819A810E94D1010F900F90DF9186
:1004F000CF910895CF93DF9300D01F92CDB7DEB791
:100500009A8389837C836B8389819A81FC01208112
:10051000318189819A81FC0182819381B9010E9494
:100520003D022B813C8189819A81B9010E94200280
:100530000F900F900F900F90DF91CF910895CF9370
:10054000DF93CDB7DEB728970FB6F894DEBF0FBEA6
:10055000CDBF9A8389837C836B835E834D83388789
:100560002F8389819A812B813C81FC0131832083F7
:1005700089819A812D813E81FC0133832283898187
:100580009A81FC01148289819A812F813885FC012E
:100590003683258328960FB6F894DEBF0FBECDBFF5
:1005A000DF91CF910895CF93DF93CDB7DEB7289732
:1005B0000FB6F894DEBF0FBECDBF9A8389837C83CC
:1005C0006B835E834D8338872F8389819A812B814A
:1005D0003C81FC013183208389819A812D813E8178
:1005E000FC013383228389819A81FC0114828981F1
:1005F0009A812F813885FC013683258328960FB692
:10060000F894DEBF0FBECDBFDF91CF910895CF9399
:10061000DF93CDB7DEB728970FB6F894DEBF0FBED5
:10062000CDBF9A8389837C836B835E834D833887B8
:100630002F8389819A812B813C81FC013183208326
:1006400089819A812D813E81FC01338322838981B6
:100650009A81FC01148289819A812F813885FC015D
:100660003683258328960FB6F894DEBF0FBECDBF24
:10067000DF91CF910895CF93DF931F921F92CDB753
:10068000DEB79A8389830E94250589819A81FC01BE
:10069000148E89819A81FC01128689819A8104963F
:1006A00060E072E00E947A020E9447050F900F906E
:1006B000DF91CF910895CF93DF931F921F92CDB713
:1006C000DEB79A8389830E94250589819A8123E078
:1006D000FC01248F89819A8104960E945C020E9409
:1006E00047050F900F90DF91CF910895CF93DF933F
:1006F0001F92CDB7DEB789838981882F90E0833040
:100700009105A1F0843091052CF4009761F00297D7
:1007100081F01BC085309105A9F0853091057CF0F2
:10072000069751F012C083E292E011C087E292E096
:100730000EC08CE292E00BC081E392E008C089E336
:1007400092E005C08FE392E002C084E492E00F9053
:10075000DF91CF910895CF93DF931F921F92CDB772
:10076000DEB7809104029091050284979A83898371
:1007700089819A8184968450924009F456C0898177
:100780009A81FC0182A193A1892B41F089819A81F0
:10079000FC0182A193A10E94AF0104C085E492E014
:1007A0000E94AF018DE492E00E94AF0189819A819D
:1007B000FC01868D978D0E94C00183E592E00E9426
:1007C000AF0189819A81FC0180A191A10E94C001A1
:1007D00089E592E00E94AF0189819A81FC0182A59E
:1007E00093A50E94C00180E692E00E94AF0189813A
:1007F0009A81FC0180A591A50E94C00187E692E044
:100800000E94AF0189819A81FC01848D0E94760348
:100810000E94AF010E94B10489819A81FC0184A1E8
:1008200095A184979A838983A3CF0F900F90DF912E
:10083000CF910895CF93DF9300D01F92CDB7DEB74D
:100840009C838B83809104029091050284979A8304
:10085000898389819A81849684509240F9F08981B4
:100860009A81FC0182A193A1892B79F089819A81D7
:10087000FC0182A193A12B813C81B9010E94040754
:10088000892B19F489819A810BC089819A81FC0195
:1008900084A195A184979A838983DBCF80E090E03F
:1008A0000F900F900F900F90DF91CF910895CF93FD
:1008B000DF9300D000D0CDB7DEB79C838B837E83DF
:1008C0006D838B819C81039739F08AE792E00E94C7
:1008D0000D0780E090E03CC08D819E810496FC0174
:1008E000808191810E941A049A83898321E0898101
:1008F0009A81892B09F020E0222339F08DE992E0DA
:100900000E940D0780E090E023C08D819E810296B9
:10091000FC01808191816EEA72E00E940407892BBC
:1009200029F489819A810E943B0310C08D819E81A8
:100930000296FC018081918164EB72E00E940407C1
:10094000892B21F489819A810E945B0380E090E0E9
:1009500026960FB6F894DEBF0FBECDBFDF91CF91C4
:100960000895CF93DF93CDB7DEB70E94A8010E9410
:100970009B01DF91CF9108950F931F93CF93DF9346
:1009800000D01F92CDB7DEB79A8389837C836B83B7
:1009900089819A81019721F58B819C81019601F5CE
:1009A00000E413E020E030E04BEA53E061EF72E056
:1009B000C8010E94D302095F1F4F20E030E047E5E5
:1009C00054E064EF72E0C8010E949F02C8010796DC
:1009D00020E030E040E050E060E070E00E9407037B
:1009E0000F900F900F900F90DF91CF911F910F916B
:1009F0000895CF93DF93CDB7DEB76FEF7FEF81E040
:100A000090E00E94BC04DF91CF910895CF93DF93D3
:100A10001F92CDB7DEB78FE590E0FC01808189831E
:100A2000F89489810F90DF91CF910895CF93DF9350
:100A30001F92CDB7DEB789838FE590E02981FC0155
:100A400020830F90DF91CF910895CF93DF931F9272
:100A5000CDB7DEB70E940605898380915603909139
:100A6000570321E0892B09F020E0222319F0898126
:100A7000809355038091560390915703019690936C
:100A80005703809356030F90DF91CF910895CF9332
:100A9000DF93CDB7DEB7809156039091570301974E
:100AA0009093570380935603809156039091570378
:100AB00021E0892B09F020E0222321F080915503C9
:100AC0000E941605DF91CF910895CF93DF931F9277
:100AD000CDB7DEB7898389810E9440010F90DF91F5
:100AE000CF910895CF93DF9300D01F92CDB7DEB79B
:100AF0009A8389837C836B832B813C8189819A8152
:100B0000B9010E9461010F900F900F900F90DF913B
:100B1000CF910895CF93DF9300D01F92CDB7DEB76A
:100B20009C838B831A82198205C089819A810196E0
:100B30009A83898389819A812B813C81820F931FBB
:100B4000FC018081882389F789819A810F900F9019
:100B50000F900F90DF91CF9108952F923F924F9277
:100B60005F926F927F928F929F92AF92BF92CF923D
:100B7000DF92EF92FF920F931F93CF93DF93CDB746
:100B8000DEB7A4970FB6F894DEBF0FBECDBF2D8F92
:100B90003E8F4F8F58A369A37AA38BA39CA3CE014A
:100BA000059648969C838B838B819C819A8389834D
:100BB000AD8CBE8CCF8CD8A0E9A0FAA00BA11CA153
:100BC0002A2D3B2D4C2D5D2D6E2D7F2D802F912FAD
:100BD000A0E00E94F00619F480E30E946505898177
:100BE0009A8101979A83898389819A81FC01108275
:100BF00066C089819A8101979A8389832D8C3E8C66
:100C00004F8C58A069A07AA08BA09CA00F2EFAE070
:100C1000AF2EF02DB12CC12CD12CE12CF12C00E009
:100C200010E0222D332D442D552D662D772D882D46
:100C3000992D0E949106A22EB32EC42ED52EE62EFB
:100C4000F72E082F192F2A2D3B2D4C2D5D2D6E2DA3
:100C50007F2D802F912F822F805D282F89819A816F
:100C6000FC0120832D8C3E8C4F8C58A069A07AA06B
:100C70008BA09CA00F2EFAE0AF2EF02DB12CC12C32
:100C8000D12CE12CF12C00E010E0222D332D442D4D
:100C9000552D662D772D882D992D0E949306A22E15
:100CA000B32EC42ED52EE62EF72E082F192FAD8E7B
:100CB000BE8ECF8ED8A2E9A2FAA20BA31CA3AD8C44
:100CC000BE8CCF8CD8A0E9A0FAA00BA11CA12A2D24
:100CD0003B2D4C2D5D2D6E2D7F2D802F912FA0E073
:100CE0000E94F00609F085CF89819A810E94AC00AC
:100CF000A4960FB6F894DEBF0FBECDBFDF91CF91A3
:100D00001F910F91FF90EF90DF90CF90BF90AF9029
:100D10009F908F907F906F905F904F903F902F901B
:100D20000895689401C0E8948F929F92CF93DF93C7
:100D30000E949F06DF91CF919F908F900895882405
:100D40009924F401E401B0E49F93AA279A158B0437
:100D50009C04ED05FE05CF05D007A10798F4AD2F43
:100D6000DC2FCF2FFE2FE92D982C892E982F872F3F
:100D7000762F652F542F432F322F2227B85031F76B
:100D8000BF9127C01B2EBF91BB27220F331F441FCB
:100D9000551F661F771F881F991F881C991CEE1FFF
:100DA000FF1FCC1FDD1FAA1FBB1F8A149B04EC056D
:100DB000FD05CE05DF05A007B10748F08A189B089E
:100DC000EC09FD09CE09DF09A00BB10B21601A94D3
:100DD000E1F62EF49401AF01BE01CD01000C08959F
:100DE0000024A7FD00942A17300540055005600532
:100DF0007005800590050895EE0FFF1F881F8BBFBB
:100E00000790F691E02D1994FB01DC018D91019082
:100E100080190110D9F3990B08950F931F93CF9365
:100E2000DF93E0915E03F0915F03238121FF1BC0FC
:100E30008C01D0E0C0E0F80181918F0160915E03E8
:100E400070915F03DB011896ED91FC91199788234F
:100E500031F01995892B79F3DFEFCFEFECCF8AE0F2
:100E60001995892B19F08FEF9FEF02C08D2F9C2FC2
:0E0E7000DF91CF911F910F910895F894FFCF5D
:00000001FF
