:100000000C9481000C94B2000C94B2000C94B200D9
:100010000C94B2000C94B2000C94B2000C94B20098
:100020000C94B2000C94B2000C94B2000C94B20088
:100030000C94B2000C94B2000C94B2000C94B20078
:100040000C94B2000C94B2000C94B2000C94B20068
:100050000C94B2000C94B2000C94B2000C94B20058
:100060000C94B2000C94B2000C94B2000C94B20048
:100070000C94B2000C94B2000C94B2000C94B20038
:100080000C94B2000C94B2000C94B2000C94B20028
:100090000C94B2000C94B2000C94B2000C94B20018
:1000A0000C94B2000C94B2000C94B2000C94B20008
:1000B0000C94B2000C94B2000C94B2000C94B200F8
:1000C0000C94B2000C94B2000C94B2000C94B200E8
:1000D0000C94B2000C94B2000C94B2000C94B200D8
:1000E0000C94B2000C94D8060C94D2050C94900693
:1000F0000C9454060C944D030C9424060C94700636
:10010000D80611241FBECFEFD1E2DEBFCDBF00E085
:100110000CBF12E0A0E0B2E0EAE1FFE000E00BBFBC
:1001200002C007900D92A23DB107D9F722E0A2EDDF
:10013000B2E001C01D92AC3DB207E1F710E0C1E8AA
:10014000D0E000E006C021970109802FFE010E9447
:100150007E07C038D10780E00807A9F70E94AA06E9
:100160000C948B070C940000CF93DF931F921F9287
:10017000CDB7DEB79A83898389819A81892B69F407
:100180008EE40E941B0385E50E941B038CE40E9401
:100190001B038CE40E941B030AC089819A810E9480
:1001A000CB049C0189819A81B9010E9428030F9098
:1001B0000F90DF91CF910895AF92BF92CF92DF92CF
:1001C000EF92FF920F931F93CF93DF931F921F9293
:1001D000CDB7DEB79A83898389819A815C01C12C6E
:1001E000D12CE12CF12C87012A2D3B2D4C2D5D2D9E
:1001F0006E2D7F2D802F912F0E940B010F900F905D
:10020000DF91CF911F910F91FF90EF90DF90CF90F2
:10021000BF90AF900895AF92BF92CF92DF92EF92CE
:10022000FF920F931F93CF93DF93CDB7DEB728973D
:100230000FB6F894DEBF0FBECDBF29833A834B8340
:100240005C836D837E838F839887A980BA80CB80FF
:10025000DC80ED80FE800F8118852A2D3B2D4C2DF2
:100260005D2D6E2D7F2D802F912F0E94EE042896FC
:100270000FB6F894DEBF0FBECDBFDF91CF911F91B7
:100280000F91FF90EF90DF90CF90BF90AF900895C7
:10029000CF93DF931F92CDB7DEB789838091D802C9
:1002A0009091D902892B19F480E090E00EC08091E2
:1002B000D8029091D902FC01208131818091DA022B
:1002C0009091DB026981F90119950F90DF91CF912F
:1002D0000895CF93DF9300D01F92CDB7DEB79A83F6
:1002E00089837C836B838091D8029091D902892B7A
:1002F00019F480E090E011C08091D8029091D90269
:10030000FC01248135818091DA029091DB024B81DE
:100310005C8169817A81F90119950F900F900F9096
:100320000F90DF91CF910895CF93DF93CDB7DEB7D4
:100330008DE00E941B038AE00E941B03DF91CF9196
:100340000895CF93DF9300D000D0CDB7DEB74983B7
:100350005A836B837C838D839E8385E192E00E9428
:10036000B4008B819C810E94B4000E9494018CE1B6
:1003700092E00E94B4008D819E810E94B4000E9490
:10038000940183E292E00E94B40089819A810E94E4
:10039000DC000E94940126960FB6F894DEBF0FBED3
:1003A000CDBFDF91CF910895CF93DF9300D01F92FF
:1003B0001F92CDB7DEB79A8389837C836B834D838D
:1003C0008D81882361F089819A81FC0192818B81E2
:1003D000292F282B89819A81FC0122830CC08981D5
:1003E0009A81FC0192818B818095292F2823898114
:1003F0009A81FC01228380E090E00F900F900F9093
:100400000F900F90DF91CF910895CF93DF9300D09D
:100410001F92CDB7DEB79A8389837C836B838981F2
:100420009A81FC018081882F90E00F900F900F90AF
:100430000F90DF91CF910895CF93DF9300D01F925B
:10044000CDB7DEB79A8389837C836B832B818981C7
:100450009A81FC01208380E090E00F900F900F9034
:100460000F90DF91CF910895CF93DF93CDB7DEB793
:10047000A0970FB6F894DEBF0FBECDBF9A8F898FBD
:100480007C8F6B8F2D8F3E8F4F8F58A38D8D9E8DC0
:10049000AF8DB8A18827AA27BB27892B8A2B8B2B46
:1004A00071F08D8D9E8DAF8DB8A19927AA27BB279E
:1004B000892B8A2B8B2B19F08FEF9FEFB3C08D8D7B
:1004C0009E8DAF8DB8A181709927AA27BB27892B54
:1004D0008A2B8B2B09F48CC0898D9A8DFC0191811C
:1004E0008B8D8095292F2823898D9A8DFC0121835E
:1004F0008D8D9E8DAF8DB8A180719927AA27BB27BE
:10050000892B8A2B8B2B99F086E0EDE5F2E0DE015A
:10051000539601900D928A95E1F74B895C896D891C
:100520007E898F89988D0E94A1010E94C5048D8DBE
:100530009E8DAF8DB8A182709927AA27BB27892BE2
:100540008A2B8B2B99F086E0E3E6F2E0DE011D9624
:1005500001900D928A95E1F74D855E856F857889CA
:1005600089899A890E94A1010E94C5048D8D9E8D62
:10057000AF8DB8A184709927AA27BB27892B8A2B16
:100580008B2B99F086E0E9E6F2E0DE011796019008
:100590000D928A95E1F74F81588569857A858B851B
:1005A0009C850E94A1010E94C5048D8D9E8DAF8DFA
:1005B000B8A188709927AA27BB27892B8A2B8B2B58
:1005C000A1F026E0EFE6F2E0CE010196DC01019019
:1005D0000D922A95E1F749815A816B817C818D8149
:1005E0009E810E94A1010E94C50480E090E01AC093
:1005F0008D8D9E8DAF8DB8A188279170AA27BB27BE
:10060000892B8A2B8B2B71F0898D9A8DFC0191811E
:100610008B8D292F282B898D9A8DFC01218380E0D9
:1006200090E000C0A0960FB6F894DEBF0FBECDBF1D
:10063000DF91CF910895CF93DF931F92CDB7DEB7AF
:10064000898389810E9448010F90DF91CF9108959D
:10065000CF93DF9300D01F92CDB7DEB79A83898303
:100660007C836B832B813C8189819A81B9010E94B3
:1006700069010F900F900F900F90DF91CF91089527
:10068000CF93DF93CDB7DEB78DE00E941B038AE0E6
:100690000E941B03DF91CF910895CF93DF93CDB7D5
:1006A000DEB788E892E00E94B4000E944003FFCFCA
:1006B000CF93DF9300D0CDB7DEB79A8389836B8366
:1006C0002B8189819A81FC01268381E090E00F9043
:1006D0000F900F90DF91CF910895CF93DF9300D0CB
:1006E0001F92CDB7DEB79A8389837C836B838B811E
:1006F0009C81892B39F089819A81FC018181282F85
:10070000286006C089819A81FC018181282F277F7A
:1007100089819A81FC0121830F900F900F900F9097
:10072000DF91CF910895EF920F93CF93DF93CDB7E1
:10073000DEB72B970FB6F894DEBF0FBECDBF9C83FC
:100740008B834D835E836F83788729870A87EB8647
:100750008B819C81FC018081282F22608B819C8170
:10076000FC01208380E099E0ADE3B0E02D813E8183
:100770004F815885BC01CD010E94E506DA01C9010F
:100780000197A109B109B695A795979587959A8381
:10079000898389819A81892F9927282F8B819C8130
:1007A000FC01258329818B819C81FC0124832B966C
:1007B0000FB6F894DEBF0FBECDBFDF91CF910F9182
:1007C000EF900895CF93DF931F92CDB7DEB78FE5FB
:1007D00090E0FC0180818983F89489810F90DF91FA
:1007E000CF910895CF93DF93CDB7DEB70E94E20398
:1007F000DF91CF910895AF92BF92CF92DF92EF92A7
:10080000FF920F931F93CF93DF93CDB7DEB760971F
:100810000FB6F894DEBF0FBECDBF29873A874B874E
:100820005C876D877E878F87988B898589838A858A
:100830008A838B858B838C858C838D858D838E8538
:100840008E838F858F8388898887A980BA80CB80A3
:10085000DC80ED80FE800F8118852A2D3B2D4C2DEC
:100860005D2D6E2D7F2D802F912FAFEF0E9466079B
:10087000A22EB32EC42ED52EE62EF72E082F192F1A
:10088000A982BA82CB82DC82ED82FE820F83188736
:10089000E1E02A2D3B2D4C2D5D2D6E2D7F2D802FDF
:1008A000912FA0E00E94720709F4E0E0EE2369F6C0
:1008B00060960FB6F894DEBF0FBECDBFDF91CF912B
:1008C0001F910F91FF90EF90DF90CF90BF90AF906E
:1008D0000895EF920F93CF93DF93CDB7DEB720E06B
:1008E00031E040E050E060E870E083E290E00E9498
:1008F000340240E060E870E083E290E00E94D401BE
:10090000EE24E39408E02EE640E052EC61E070E073
:1009100080EC90E00E94930361E070E080EC90E056
:100920000E946D03DF91CF910F91EF900895CF93C7
:10093000DF93CDB7DEB70E94F20341E060E870E0DC
:1009400083E290E00E94D40120E533EC40E050E0E7
:1009500060E070E080E090E00E94FB0340E060E82F
:1009600070E083E290E00E94D40120E533EC40E0A7
:1009700050E060E070E080E090E00E94FB0361E402
:1009800080EC90E00E945803D8CFCF93DF93CDB78F
:10099000DEB70E948607CF93DF9300D01F92CDB7BA
:1009A000DEB79C838B831A82198205C089819A8164
:1009B00001969A83898389819A812B813C81820F58
:1009C000931FFC018081882389F789819A810F9088
:1009D0000F900F900F90DF91CF9108952F923F923B
:1009E0004F925F926F927F928F929F92AF92BF923F
:1009F000CF92DF92EF92FF920F931F93CF93DF93EB
:100A0000CDB7DEB7A4970FB6F894DEBF0FBECDBF4B
:100A10002D8F3E8F4F8F58A369A37AA38BA39CA3DE
:100A2000CE01059648969C838B838B819C819A830B
:100A30008983AD8CBE8CCF8CD8A0E9A0FAA00BA185
:100A40001CA12A2D3B2D4C2D5D2D6E2D7F2D802F31
:100A5000912FA0E00E94720719F480E30E941B030B
:100A600089819A8101979A83898389819A81FC017E
:100A7000108266C089819A8101979A8389832D8C1F
:100A80003E8C4F8C58A069A07AA08BA09CA00F2E02
:100A9000FAE0AF2EF02DB12CC12CD12CE12CF12C91
:100AA00000E010E0222D332D442D552D662D772D9D
:100AB000882D992D0E940707A22EB32EC42ED52E65
:100AC000E62EF72E082F192F2A2D3B2D4C2D5D2DAC
:100AD0006E2D7F2D802F912F822F805D282F898171
:100AE0009A81FC0120832D8C3E8C4F8C58A069A0EC
:100AF0007AA08BA09CA00F2EFAE0AF2EF02DB12C87
:100B0000C12CD12CE12CF12C00E010E0222D332D52
:100B1000442D552D662D772D882D992D0E9409077E
:100B2000A22EB32EC42ED52EE62EF72E082F192F67
:100B3000AD8EBE8ECF8ED8A2E9A2FAA20BA31CA3C3
:100B4000AD8CBE8CCF8CD8A0E9A0FAA00BA11CA1C3
:100B50002A2D3B2D4C2D5D2D6E2D7F2D802F912F1D
:100B6000A0E00E94720709F085CF89819A810E94D6
:100B7000B400A4960FB6F894DEBF0FBECDBFDF91D0
:100B8000CF911F910F91FF90EF90DF90CF90BF908A
:100B9000AF909F908F907F906F905F904F903F901D
:100BA0002F900895CF93DF9300D0CDB7DEB79A830F
:100BB00089836B838FEF9FEF0F900F900F90DF91E2
:100BC000CF910895CF93DF931F921F92CDB7DEB7D9
:100BD0009A8389832AEB32E089819A81FC013183EF
:100BE00020830F900F90DF91CF910895CF93DF93E3
:100BF00000D000D0CDB7DEB79A8389837C836B8326
:100C00005E834D8389819A810E94E2052CEA32E05D
:100C100089819A81FC013183208389819A812B818A
:100C20003C81FC013383228389819A812D813E811D
:100C3000FC013583248326960FB6F894DEBF0FBEE1
:100C4000CDBFDF91CF910895CF93DF93CDB7DEB7BE
:100C500028970FB6F894DEBF0FBECDBF9A83898365
:100C60004B835C836D837E838B819C81AD81BE8150
:100C700029813A81F9016481758129813A81F901DB
:100C80000280F381E02DF887EF839C01AD018F8115
:100C900098850E94340228960FB6F894DEBF0FBEE6
:100CA000CDBFDF91CF910895CF93DF9300D0CDB723
:100CB000DEB79A8389836B8389819A81FC012481C1
:100CC000358189819A81FC01828193814B81B901AF
:100CD0000E94D4010F900F900F90DF91CF91089553
:100CE000CF93DF931F921F92CDB7DEB79A8389838C
:100CF00089819A81FC012481358189819A81FC0155
:100D000082819381B9010E94050221E0892B09F4B7
:100D100020E0822F90E00F900F90DF91CF91089507
:100D2000CF93DF931F921F92CDB7DEB79A8389834B
:100D300089819A81FC012481358189819A81FC0114
:100D400082819381B9010E941C020F900F90DF9164
:100D5000CF910895CF93DF93CDB7DEB70E9469049A
:100D60000E94970480E090E0DF91CF910895CF93A7
:100D7000DF9300D01F92CDB7DEB79A8389837C833F
:100D80006B8389819A81019761F48B819C810196A3
:100D900041F440E850E063E270E082ED92E00E94AE
:100DA000F6050F900F900F900F90DF91CF9108955F
:100DB000CF93DF93CDB7DEB76FEF7FEF81E090E0A9
:100DC0000E94B706DF91CF910895A1E21A2EAA1BC7
:100DD000BB1BFD010DC0AA1FBB1FEE1FFF1FA217EB
:100DE000B307E407F50720F0A21BB30BE40BF50BE8
:100DF000661F771F881F991F1A9469F76095709571
:100E0000809590959B01AC01BD01CF010895689438
:100E100001C0E8948F929F92CF93DF930E941507B1
:100E2000DF91CF919F908F90089588249924F401A9
:100E3000E401B0E49F93AA279A158B049C04ED0566
:100E4000FE05CF05D007A10798F4AD2FDC2FCF2FDB
:100E5000FE2FE92D982C892E982F872F762F652F1E
:100E6000542F432F322F2227B85031F7BF9127C07C
:100E70001B2EBF91BB27220F331F441F551F661F18
:100E8000771F881F991F881C991CEE1FFF1FCC1FFE
:100E9000DD1FAA1FBB1F8A149B04EC05FD05CE05B0
:100EA000DF05A007B10748F08A189B08EC09FD0987
:100EB000CE09DF09A00BB10B21601A94E1F62EF4E4
:100EC0009401AF01BE01CD01000C08950024A7FDDF
:100ED00000942A0F301D401D501D601D701D801D87
:100EE000901D08950024A7FD00942A1730054005A1
:100EF000500560057005800590050895EE0FFF1FF1
:100F0000881F8BBF0790F691E02D199481E090E047
:0A0F1000F8940C948B07F894FFCFBF
:00000001FF
