:100000000C947E000C94AF000C94AF000C94AF00E5
:100010000C94AF000C94AF000C94AF000C94AF00A4
:100020000C94AF000C94AF000C94AF000C94AF0094
:100030000C94AF000C94AF000C94AF000C94AF0084
:100040000C94AF000C94AF000C94AF000C94AF0074
:100050000C94AF000C94AF000C94AF000C94AF0064
:100060000C94AF000C94AF000C94AF000C94AF0054
:100070000C94AF000C94AF000C94AF000C94AF0044
:100080000C94AF000C94AF000C94AF000C94AF0034
:100090000C94AF000C94AF000C94AF000C94AF0024
:1000A0000C94AF000C94AF000C94AF000C94AF0014
:1000B0000C94AF000C94AF000C94AF000C94AF0004
:1000C0000C94AF000C94AF000C94AF000C94AF00F4
:1000D0000C94AF000C94AF000C94AF000C94AF00E4
:1000E0000C94AF000C94E6060C9434080C9497041E
:1000F0000C9492070C9481089704340811241FBEB5
:10010000CFEFD1E2DEBFCDBF00E00CBF13E0A0E037
:10011000B2E0E6E4F3E100E00BBF02C007900D920D
:10012000A037B107D9F725E0A0E7B3E001C01D92E1
:10013000A030B207E1F710E0CEE7D0E000E006C063
:1001400021970109802FFE010E946009CC37D10759
:1001500080E00807A9F70E94A4040C94A1090C945C
:100160000000CF93DF9300D000D0CDB7DEB79C83E3
:100170008B837E836D832B813C818D819E81820F59
:10018000931F9A8389830BC089819A8101979A83EF
:10019000898389819A81FC0180810E9429048D8153
:1001A0009E819C01215031093E832D83892B61F76B
:1001B00026960FB6F894DEBF0FBECDBFDF91CF916C
:1001C0000895CF93DF931F921F92CDB7DEB79A8326
:1001D000898362E070E0CE0101960E94B1000F9029
:1001E0000F90DF91CF910895CF93DF931F921F92CD
:1001F000CDB7DEB79A83898389819A81892B69F487
:100200008EE40E94E50285E50E94E5028CE40E94EE
:10021000E5028CE40E94E5020AC089819A810E946D
:100220000A039C0189819A81B9010E94F2020F9010
:100230000F90DF91CF910895AF92BF92CF92DF924E
:10024000EF92FF920F931F93CF93DF931F921F9212
:10025000CDB7DEB79A83898389819A815C01892F22
:10026000880F880BC82ED82EE82EF82E082F182FAE
:100270002A2D3B2D4C2D5D2D6E2D7F2D802F912F06
:100280000E944F010F900F90DF91CF911F910F911E
:10029000FF90EF90DF90CF90BF90AF900895AF9216
:1002A000BF92CF92DF92EF92FF920F931F93CF9363
:1002B000DF93CDB7DEB728970FB6F894DEBF0FBE39
:1002C000CDBF29833A834B835C836D837E838F8389
:1002D0009887A980BA80CB80DC80ED80FE800F817A
:1002E00018852A2D3B2D4C2D5D2D6E2D7F2D802FB9
:1002F000912FA0E00E945409ECF429813A814B81AE
:100300005C816D817E818F8198850E944409A22E37
:10031000B32EC42ED52EE62EF72E082F192FA98224
:10032000BA82CB82DC82ED82FE820F8318878DE257
:100330000E94E502A980BA80CB80DC80ED80FE803F
:100340000F8118852A2D3B2D4C2D5D2D6E2D7F2D77
:10035000802F912F0E942D0328960FB6F894DEBFB0
:100360000FBECDBFDF91CF911F910F91FF90EF9006
:10037000DF90CF90BF90AF900895AF92BF92CF9291
:10038000DF92EF92FF920F931F93CF93DF931F9211
:100390001F92CDB7DEB79A83898389819A815C01E8
:1003A000C12CD12CE12CF12C87012A2D3B2D4C2D79
:1003B0005D2D6E2D7F2D802F912F0E94EC010F90CF
:1003C0000F90DF91CF911F910F91FF90EF90DF90F1
:1003D000CF90BF90AF900895AF92BF92CF92DF922F
:1003E000EF92FF920F931F93CF93DF93CDB7DEB7BA
:1003F00028970FB6F894DEBF0FBECDBF29833A838E
:100400004B835C836D837E838F839887A980BA80BA
:10041000CB80DC80ED80FE800F8118852A2D3B2D5E
:100420004C2D5D2D6E2D7F2D802F912F0E942D0341
:1004300028960FB6F894DEBF0FBECDBFDF91CF91E7
:100440001F910F91FF90EF90DF90CF90BF90AF90F2
:100450000895CF93DF931F921F92CDB7DEB79A8393
:10046000898389819A810E94E1000F900F90DF912A
:10047000CF910895CF93DF931F92CDB7DEB78983D5
:100480008091F6049091F704892B19F480E090E0B4
:100490000EC08091F6049091F704FC012081318117
:1004A0008091F8049091F9046981F90119950F90F0
:1004B000DF91CF910895CF93DF9300D01F92CDB7F6
:1004C000DEB79A8389837C836B838091F604909155
:1004D000F704892B19F480E090E011C08091F604B4
:1004E0009091F704FC01248135818091F80490916A
:1004F000F9044B815C8169817A81F90119950F902A
:100500000F900F900F90DF91CF910895CF93DF93CD
:100510001F92CDB7DEB78FE590E0FC018081898323
:10052000F89489810F90DF91CF910895CF93DF9355
:100530001F92CDB7DEB789838FE590E02981FC015A
:1005400020830F90DF91CF910895CF93DF931F9277
:10055000CDB7DEB70E94860289838091F404909122
:10056000F50421E0892B09F020E0222319F089818C
:100570008093F3048091F4049091F5040196909394
:10058000F5048093F4040F90DF91CF910895CF93F9
:10059000DF93CDB7DEB78091F4049091F504019715
:1005A0009093F5048093F4048091F4049091F50401
:1005B00021E0892B09F020E0222321F08091F3042F
:1005C0000E949602DF91CF910895CF93DF931F92FF
:1005D000CDB7DEB7898389810E943A020F90DF91FF
:1005E000CF910895CF93DF9300D01F92CDB7DEB7A0
:1005F0009A8389837C836B832B813C8189819A8157
:10060000B9010E945B020F900F900F900F90DF9145
:10061000CF910895CF93DF9300D01F92CDB7DEB76F
:100620009C838B831A82198205C089819A810196E5
:100630009A83898389819A812B813C81820F931FC0
:10064000FC018081882389F789819A810F900F901E
:100650000F900F90DF91CF9108952F923F924F927C
:100660005F926F927F928F929F92AF92BF92CF9242
:10067000DF92EF92FF920F931F93CF93DF93CDB74B
:10068000DEB7A4970FB6F894DEBF0FBECDBF2D8F97
:100690003E8F4F8F58A369A37AA38BA39CA3CE014F
:1006A000059648969C838B838B819C819A83898352
:1006B000AD8CBE8CCF8CD8A0E9A0FAA00BA11CA158
:1006C0002A2D3B2D4C2D5D2D6E2D7F2D802F912FB2
:1006D000A0E00E94540919F480E30E94E502898198
:1006E0009A8101979A83898389819A81FC0110827A
:1006F00066C089819A8101979A8389832D8C3E8C6B
:100700004F8C58A069A07AA08BA09CA00F2EFAE075
:10071000AF2EF02DB12CC12CD12CE12CF12C00E00E
:1007200010E0222D332D442D552D662D772D882D4B
:10073000992D0E94E508A22EB32EC42ED52EE62EAA
:10074000F72E082F192F2A2D3B2D4C2D5D2D6E2DA8
:100750007F2D802F912F822F805D282F89819A8174
:10076000FC0120832D8C3E8C4F8C58A069A07AA070
:100770008BA09CA00F2EFAE0AF2EF02DB12CC12C37
:10078000D12CE12CF12C00E010E0222D332D442D52
:10079000552D662D772D882D992D0E94E708A22EC4
:1007A000B32EC42ED52EE62EF72E082F192FAD8E80
:1007B000BE8ECF8ED8A2E9A2FAA20BA31CA3AD8C49
:1007C000BE8CCF8CD8A0E9A0FAA00BA11CA12A2D29
:1007D0003B2D4C2D5D2D6E2D7F2D802F912FA0E078
:1007E0000E94540909F085CF89819A810E94F40002
:1007F000A4960FB6F894DEBF0FBECDBFDF91CF91A8
:100800001F910F91FF90EF90DF90CF90BF90AF902E
:100810009F908F907F906F905F904F903F902F9020
:100820000895CF93DF931F921F92CDB7DEB78A83CF
:100830008A818A3018F48A81805D02C08A81895C4D
:10084000898389810E94E5020F900F90DF91CF91FB
:100850000895CF93DF931F92CDB7DEB78983898147
:1008600082958F700E94110489818F700E941104FB
:100870000F90DF91CF910895CF93DF931F921F9236
:10088000CDB7DEB79A83898389819A810E944E0809
:100890000E9441080F900F90DF91CF910895CF9360
:1008A000DF931F921F92CDB7DEB79A838983898128
:1008B0009A81FC01808191810E945F080E94410819
:1008C0000F900F90DF91CF9108950F931F93CF93C7
:1008D000DF9300D01F92CDB7DEB79A8389837C83E4
:1008E0006B8389819A810197C9F48B819C810196E0
:1008F000A9F405EE14E020E030E041E858E068E0BB
:1009000072E0C8010E94B905C801079620E030E0F6
:1009100040E050E060E070E00E9421060F900F90F0
:100920000F900F90DF91CF911F910F910895CF936A
:10093000DF93CDB7DEB76FEF7FEF81E090E00E94ED
:100940006504DF91CF910895CF93DF93CDB7DEB7E4
:100950000E94550684E290E02FEFFC01208385E29F
:1009600090E02FEFFC012083FFCFCF93DF93CDB733
:10097000DEB78DE00E94E5028AE00E94E502DF9189
:10098000CF910895CF93DF93CDB7DEB7DF91CF91AD
:100990000895CF93DF931F921F92CDB7DEB79A834E
:1009A000898389819A810E94F4000F900F90DF91D2
:1009B000CF910895CF93DF931F921F92CDB7DEB7EB
:1009C0009A83898389819A810E94BD010F900F903B
:1009D000DF91CF910895CF93DF931F921F92CDB7F0
:1009E000DEB79A83898389819A8129813A81FC01C2
:1009F0003383228389819A81FC0122813381898119
:100A00009A81FC01318320830F900F90DF91CF9169
:100A10000895CF93DF9300D000D0CDB7DEB79A838F
:100A200089837C836B835E834D8389819A812D8149
:100A30003E81FC013383228389819A812B813C8111
:100A4000FC01318320838B819C8129813A81FC01C7
:100A5000338322838D819E8129813A81FC013183F8
:100A6000208326960FB6F894DEBF0FBECDBFDF9170
:100A7000CF910895CF93DF9300D01F92CDB7DEB70B
:100A80009A8389837C836B838B819C81FC01428167
:100A900053812B813C8189819A81B9010E9409058A
:100AA0000F900F900F900F90DF91CF910895CF93FB
:100AB000DF9300D01F92CDB7DEB79A8389837C8302
:100AC0006B838B819C8129813A81FC013383228352
:100AD00089819A812B813C81FC01318320830F9095
:100AE0000F900F900F90DF91CF910895CF93DF93E8
:100AF0001F921F92CDB7DEB79A83898389819A812D
:100B0000FC012081318189819A81FC01828193815C
:100B1000B9010E94570589819A810E94EB040F90C8
:100B20000F90DF91CF910895CF93DF9300D01F9264
:100B3000CDB7DEB79A8389837C836B8389819A8161
:100B4000FC012081318189819A81FC01828193811C
:100B5000B9010E9457052B813C8189819A81B90195
:100B60000E943A050F900F900F900F90DF91CF9158
:100B70000895CF93DF93CDB7DEB728970FB6F894DB
:100B8000DEBF0FBECDBF9A8389837C836B835E8378
:100B90004D8338872F8389819A812B813C81FC0189
:100BA0003183208389819A812D813E81FC013383A9
:100BB000228389819A81FC01148289819A812F8103
:100BC0003885FC013683258328960FB6F894DEBF5E
:100BD0000FBECDBFDF91CF910895CF93DF93CDB7F7
:100BE000DEB728970FB6F894DEBF0FBECDBF9A834D
:100BF00089837C836B835E834D8338872F838981D0
:100C00009A812B813C81FC013183208389819A81E7
:100C10002D813E81FC013383228389819A81FC01ED
:100C2000148289819A812F813885FC01368325833E
:100C300028960FB6F894DEBF0FBECDBFDF91CF91DF
:100C40000895CF93DF93CDB7DEB728970FB6F8940A
:100C5000DEBF0FBECDBF9A8389837C836B835E83A7
:100C60004D8338872F8389819A812B813C81FC01B8
:100C70003183208389819A812D813E81FC013383D8
:100C8000228389819A81FC01148289819A812F8132
:100C90003885FC013683258328960FB6F894DEBF8D
:100CA0000FBECDBFDF91CF910895CF93DF931F92F9
:100CB0001F92CDB7DEB71A82198289819A81049773
:100CC00084F489819A81880F991F880F991F805910
:100CD0009C4F0E94EB0489819A8101969A838983B3
:100CE000ECCF0F900F90DF91CF910895CF93DF93CA
:100CF0001F921F92CDB7DEB79A8389830E94A50207
:100D000089819A81FC01148E89819A81FC01128665
:100D100089819A81049660E072E00E9494050E94A5
:100D2000C7020F900F90DF91CF910895CF93DF937B
:100D30001F921F92CDB7DEB79A8389830E94A502C6
:100D400089819A8123E0FC01248F89819A8104960C
:100D50000E9476050E94C7020F900F90DF91CF91FD
:100D60000895CF93DF931F92CDB7DEB78983898132
:100D7000882F90E083309105A1F0843091052CF408
:100D8000009761F0029781F01BC085309105A9F0B2
:100D9000853091057CF0069751F012C089E392E00E
:100DA00011C08DE392E00EC082E492E00BC087E4B4
:100DB00092E008C08FE492E005C085E592E002C0B1
:100DC0008AE592E00F90DF91CF910895CF93DF9362
:100DD0001F921F92CDB7DEB7809104029091050259
:100DE00084979A83898389819A81849684509240DA
:100DF00009F456C089819A81FC0182A193A1892BB3
:100E000041F089819A81FC0182A193A10E94C904C9
:100E100004C08BE592E00E94C90483E692E00E9440
:100E2000C90489819A81FC01868D978D0E94DA041C
:100E300089E692E00E94C90489819A81FC0180A11F
:100E400091A10E94DA048FE692E00E94C904898190
:100E50009A81FC0182A593A50E94DA0486E792E0BC
:100E60000E94C90489819A81FC0180A591A50E94F4
:100E7000DA048DE792E00E94C90489819A81FC011D
:100E8000848D0E94B1060E94C9040E94EC078981EA
:100E90009A81FC0184A195A184979A838983A3CF29
:100EA0000F900F90DF91CF910895CF93DF9300D0F3
:100EB0001F92CDB7DEB79C838B8380910402909103
:100EC000050284979A83898389819A8184968450C4
:100ED0009240F9F089819A81FC0182A193A1892B2A
:100EE00079F089819A81FC0182A193A12B813C81B7
:100EF000B9010E946809892B19F489819A810BC074
:100F000089819A81FC0184A195A184979A83898320
:100F1000DBCF80E090E00F900F900F900F90DF916B
:100F2000CF910895CF93DF9300D000D0CDB7DEB737
:100F30009C838B837E836D838B819C81039739F0A7
:100F400080E992E00E94710980E090E03CC08D81D0
:100F50009E810496FC01808191810E9455079A83AD
:100F6000898321E089819A81892B09F020E022235D
:100F700039F083EB92E00E94710980E090E023C099
:100F80008D819E810296FC018081918164EC72E0EA
:100F90000E946809892B29F489819A810E9476062A
:100FA00010C08D819E810296FC01808191816AEC46
:100FB00072E00E946809892B21F489819A810E943C
:100FC000960680E090E026960FB6F894DEBF0FBE3E
:100FD000CDBFDF91CF910895CF93DF93CDB7DEB72B
:100FE0000E94C2040E94B504DF91CF9108950F932F
:100FF0001F93CF93DF9300D01F92CDB7DEB79A83B4
:1010000089837C836B8389819A81019721F58B8108
:101010009C81019601F500E813E020E030E046EE07
:1010200056E067E073E0C8010E94ED05095F1F4FBD
:1010300020E030E042E957E06AE073E0C8010E9436
:10104000B905C801079620E030E040E050E060E0DC
:1010500070E00E9421060F900F900F900F90DF918B
:10106000CF911F910F910895CF93DF93CDB7DEB746
:101070006FEF7FEF81E090E00E94F707DF91CF9163
:101080000895CF93DF93CDB7DEB78DE00E94E502E0
:101090008AE00E94E502DF91CF910895CF93DF931C
:1010A0001F921F92CDB7DEB79A83898389819A8177
:1010B0000E94F4000F900F90DF91CF910895CF938D
:1010C000DF931F921F92CDB7DEB79A838983898100
:1010D0009A810E94BD010F900F90DF91CF910895EA
:1010E000CF93DF931F921F92CDB7DEB79A83898388
:1010F00089819A810E941C010F900F90DF91CF91FE
:101100000895CF93DF9300D000D0CDB7DEB79C8396
:101110008B837E836D8382E593E00E943C041A8278
:10112000198289819A81C8970CF044C089819A817B
:101130000E9470088EE593E00E944E0829813A8152
:10114000C901880F991F820F931F880F991F8B5613
:101150009C4FFC01808191810E94290281E693E0ED
:101160000E944E0829813A81C901880F991F820F78
:10117000931F880F991F89569C4FFC018081918194
:101180000E94290281E693E00E944E0829813A815B
:10119000C901880F991F820F931F880F991F04960A
:1011A0008B569C4F0E944F0489819A8101969A83A5
:1011B0008983B7CF80E090E026960FB6F894DEBF23
:1011C0000FBECDBFDF91CF910895689401C0E89420
:1011D0008F929F92CF93DF930E94F308DF91CF917C
:1011E0009F908F90089588249924F401E401B0E43D
:1011F0009F93AA279A158B049C04ED05FE05CF0545
:10120000D007A10798F4AD2FDC2FCF2FFE2FE92DAB
:10121000982C892E982F872F762F652F542F432FA8
:10122000322F2227B85031F7BF9127C01B2EBF9114
:10123000BB27220F331F441F551F661F771F881FB0
:10124000991F881C991CEE1FFF1FCC1FDD1FAA1FB2
:10125000BB1F8A149B04EC05FD05CE05DF05A00726
:10126000B10748F08A189B08EC09FD09CE09DF098F
:10127000A00BB10B21601A94E1F62EF49401AF019A
:10128000BE01CD01000C08956095709580959095F4
:1012900030954095509521953F4F4F4F5F4F6F4F81
:1012A0007F4F8F4F9F4F08950024A7FD00942A176A
:1012B00030054005500560057005800590050895CE
:1012C000EE0FFF1F881F8BBF0790F691E02D19943A
:1012D000FB01DC018D91019080190110D9F3990B6C
:1012E00008950F931F93CF93DF93E091FC04F09147
:1012F000FD04238121FF1BC08C01D0E0C0E0F80178
:1013000081918F016091FC047091FD04DB011896BE
:10131000ED91FC911997882331F01995892B79F378
:10132000DFEFCFEFECCF8AE01995892B19F08FEF23
:101330009FEF02C08D2F9C2FDF91CF911F910F91B6
:061340000895F894FFCFB0
:00000001FF
