:100000000C948F000C94C0000C94C0000C94C000A1
:100010000C94C0000C94C0000C94C0000C94C00060
:100020000C94C0000C94C0000C94C0000C94C00050
:100030000C94C0000C94C0000C94C0000C94C00040
:100040000C94C0000C94C0000C94C0000C94C00030
:100050000C94C0000C94C0000C94C0000C94C00020
:100060000C94C0000C94200A0C945C0A0C94980A1E
:100070000C94C0000C94C0000C94C0000C94C00000
:100080000C94C0000C94C0000C94C0000C94C000F0
:100090000C94C0000C94C0000C94C0000C94C000E0
:1000A0000C94C0000C94C0000C94C0000C94C000D0
:1000B0000C94C0000C94C0000C94C0000C94C000C0
:1000C0000C94C0000C94C0000C94C0000C94C000B0
:1000D0000C94C0000C94C0000C94C0000C94C000A0
:1000E0000C94C0000C94AF090C9493090C94A103D8
:1000F0000C945F030C948D030C9463090C94080B0F
:100100000C9435060C94DC020C9411090C947903C0
:100110000C948F020C94CF090C944B03080B112400
:100120001FBECFEFD1E2DEBFCDBF00E00CBF12E0BB
:10013000A0E0B2E0EAE7F7E100E00BBF02C0079001
:100140000D92A43FB107D9F723E0A4EFB2E001C0BC
:100150001D92A630B207E1F710E0CFE8D0E000E052
:1001600006C021970109802FFE010E94AE0BCE38F8
:10017000D10780E00807A9F70E94D40A0C94BB0BB2
:100180000C940000CF93DF9300D0CDB7DEB79A83F5
:1001900089836B832B8189819A81FC01268381E08D
:1001A00090E00F900F900F90DF91CF910895CF9333
:1001B000DF931F921F92CDB7DEB79A83898389811F
:1001C0009A81FC018681882F90E00F900F90DF913B
:1001D000CF910895CF93DF931F921F92CDB7DEB7D3
:1001E0009A83898389819A81FC018081882F90E09C
:1001F000807899270F900F90DF91CF910895CF933A
:10020000DF931F921F92CDB7DEB79A8389838981CE
:100210009A81FC018081882F90E0807299270F904D
:100220000F90DF91CF910895CF93DF9300D01F926D
:10023000CDB7DEB79A8389837C836B838B819C8166
:10024000892B39F089819A81FC018181282F2061D5
:1002500006C089819A81FC018181282F2F7E8981A6
:100260009A81FC0121830F900F900F900F90DF91E6
:10027000CF910895CF93DF9300D01F92CDB7DEB713
:100280009A8389837C836B838B819C81892B39F052
:1002900089819A81FC018181282F286006C089818B
:1002A0009A81FC018181282F277F89819A81FC0115
:1002B00021830F900F900F900F90DF91CF910895B1
:1002C000CF93DF9300D01F92CDB7DEB79A83898397
:1002D0007C836B838B819C81892B39F089819A8106
:1002E000FC018181282F206806C089819A81FC0148
:1002F0008181282F2F7789819A81FC0121830F909A
:100300000F900F900F90DF91CF910895CF93DF93CF
:1003100000D01F92CDB7DEB79A8389837C836B832D
:100320008B819C81892B39F089819A81FC018181A3
:10033000282F206206C089819A81FC018181282FA3
:100340002F7D89819A81FC0121830F900F900F905E
:100350000F90DF91CF910895CF93DF9300D01F923C
:10036000CDB7DEB79A8389837C836B838B819C8135
:10037000892B39F089819A81FC018181282F2064A1
:1003800006C089819A81FC018181282F2F7B898178
:100390009A81FC0121830F900F900F900F90DF91B5
:1003A000CF910895EF920F93CF93DF93CDB7DEB740
:1003B0002B970FB6F894DEBF0FBECDBF9C838B8307
:1003C0004D835E836F83788729870A87EB868B81CD
:1003D0009C81FC018081282F22608B819C81FC0103
:1003E000208380E099E0ADE3B0E02D813E814F8134
:1003F0005885BC01CD010E94150BDA01C901019796
:10040000A109B109B695A795979587959A83898390
:1004100089819A81892F9927282F8B819C81FC01C2
:10042000258329818B819C81FC0124832B960FB627
:10043000F894DEBF0FBECDBFDF91CF910F91EF904B
:100440000895AF92BF92CF92DF92EF92FF920F93F7
:100450001F93CF93DF93CDB7DEB760970FB6F894B5
:10046000DEBF0FBECDBF29873A874B875C876D877C
:100470007E878F87988B898589838A858A838B85F8
:100480008B838C858C838D858D838E858E838F85E4
:100490008F8388898887A980BA80CB80DC80ED80B3
:1004A000FE800F8118852A2D3B2D4C2D5D2D6E2D44
:1004B0007F2D802F912FAFEF0E94960BA22EB32E8F
:1004C000C42ED52EE62EF72E082F192FA982BA8218
:1004D000CB82DC82ED82FE820F831887E1E02A2D39
:1004E0003B2D4C2D5D2D6E2D7F2D802F912FA0E06B
:1004F0000E94A20B09F4E0E0EE2369F660960FB6C5
:10050000F894DEBF0FBECDBFDF91CF911F910F9149
:10051000FF90EF90DF90CF90BF90AF900895CF9372
:10052000DF9300D01F92CDB7DEB79A8389837C8397
:100530006B8389819A81FC01868197812B813C8123
:10054000B9010E94140189819A81FC0186819781F9
:100550002B813C81B9010E943A0189819A81FC0179
:100560008681978160E070E00E94AC0189819A8168
:10057000FC018681978160E070E00E94860189819C
:100580009A81FC01868197812B813C81B9010E946F
:10059000600120E137E240E050E060E070E080E0A0
:1005A00090E00E94210280E090E00F900F900F9069
:1005B0000F90DF91CF910895CF93DF9300D0CDB707
:1005C000DEB79A8389836B838B81882F90E082309A
:1005D000910589F0833091052CF4009721F1019762
:1005E00071F151C084309105B1F1843091057CF0F6
:1005F0000597E9F148C089819A81FC01868197813C
:1006000061E070E00E94860180E090E03EC0898158
:100610009A81FC018681978160E070E00E948601EA
:1006200080E090E032C089819A81FC0186819781C7
:1006300061E070E00E94600180E090E026C0898166
:100640009A81FC018681978160E070E00E946001E0
:1006500080E090E01AC089819A81FC0186819781AF
:1006600061E070E00E94AC0180E090E00EC0898102
:100670009A81FC018681978160E070E00E94AC0164
:1006800080E090E002C08FEF9FEF0F900F900F90EF
:10069000DF91CF910895CF93DF931F921F92CDB733
:1006A000DEB79A83898389819A81FC01868197814B
:1006B0000E94D7000F900F90DF91CF910895CF93B4
:1006C000DF9300D01F92CDB7DEB79A8389837C83F6
:1006D0006B832B8189819A81FC0186819781622FAE
:1006E0000E94C2000F900F900F900F90DF91CF915A
:1006F0000895CF93DF931F921F92CDB7DEB79A83F1
:10070000898389819A81FC01868197810E94EA0010
:100710000F900F90DF91CF910895CF93DF931F92A9
:100720001F92CDB7DEB79A83898389819A81FC01B4
:10073000868197810E94FF000F900F90DF91CF91EB
:100740000895EF920F93CF93DF93CDB7DEB72B973A
:100750000FB6F894DEBF0FBECDBF9A8389834B835B
:100760005C836D837E832F830887E98689819A81E4
:10077000FC018681978161E070E00E943A018981E5
:100780009A81FC018681978161E070E00E941401EA
:100790008B819C81AD81BE8129813A81F9010680DE
:1007A000F781E02DFB87EA87E98408852F81AC017A
:1007B000BD018A859B850E94D20189819A81FC01B5
:1007C0008681978161E070E00E94600180E090E0A6
:1007D0002B960FB6F894DEBF0FBECDBFDF91CF9141
:1007E0000F91EF900895AF92BF92CF92DF92EF9268
:1007F000FF920F931F93CF93DF93CDB7DEB7289768
:100800000FB6F894DEBF0FBECDBF29833A834B836A
:100810005C836D837E838F839887A980BA80CB8029
:10082000DC80ED80FE800F8118852A2D3B2D4C2D1C
:100830005D2D6E2D7F2D802F912F0E94D60728963B
:100840000FB6F894DEBF0FBECDBFDF91CF911F91E1
:100850000F91FF90EF90DF90CF90BF90AF900895F1
:10086000CF93DF931F92CDB7DEB7898380910203C8
:1008700090910303892B19F480E090E00EC08091E1
:10088000020390910303FC012081318180910403D4
:10089000909105036981F90119950F90DF91CF912E
:1008A0000895CF93DF9300D01F92CDB7DEB79A8320
:1008B00089837C836B838091020390910303892B4E
:1008C00019F480E090E011C080910203909103033D
:1008D000FC012481358180910403909105034B81B3
:1008E0005C8169817A81F90119950F900F900F90C1
:1008F0000F90DF91CF910895CF93DF93CDB7DEB7FF
:100900008DE00E9403068AE00E940306DF91CF91EA
:100910000895CF93DF9300D000D0CDB7DEB74983E1
:100920005A836B837C838D839E8380E092E00E9458
:10093000BA088B819C810E94BA080E947C0487E0DF
:1009400092E00E94BA088D819E810E94BA080E949E
:100950007C048EE092E00E94BA0889819A810E940C
:10096000E2080E947C0426960FB6F894DEBF0FBE04
:10097000CDBFDF91CF910895CF93DF9300D01F9229
:100980001F92CDB7DEB79A8389837C836B834D83B7
:100990008D81882361F089819A81FC0192818B810C
:1009A000292F282B89819A81FC0122830CC08981FF
:1009B0009A81FC0192818B818095292F282389813E
:1009C0009A81FC01228380E090E00F900F900F90BD
:1009D0000F900F90DF91CF910895CF93DF9300D0C8
:1009E0001F92CDB7DEB79A8389837C836B8389811D
:1009F0009A81FC018081882F90E00F900F900F90DA
:100A00000F90DF91CF910895CF93DF9300D01F9285
:100A1000CDB7DEB79A8389837C836B832B818981F1
:100A20009A81FC01208380E090E00F900F900F905E
:100A30000F90DF91CF910895CF93DF93CDB7DEB7BD
:100A4000A0970FB6F894DEBF0FBECDBF9A8F898FE7
:100A50007C8F6B8F2D8F3E8F4F8F58A38D8D9E8DEA
:100A6000AF8DB8A18827AA27BB27892B8A2B8B2B70
:100A700071F08D8D9E8DAF8DB8A19927AA27BB27C8
:100A8000892B8A2B8B2B19F08FEF9FEFB3C08D8DA5
:100A90009E8DAF8DB8A181709927AA27BB27892B7E
:100AA0008A2B8B2B09F48CC0898D9A8DFC01918146
:100AB0008B8D8095292F2823898D9A8DFC01218388
:100AC0008D8D9E8DAF8DB8A180719927AA27BB27E8
:100AD000892B8A2B8B2B99F086E0E8E4F2E0DE018B
:100AE000539601900D928A95E1F74B895C896D8947
:100AF0007E898F89988D0E9489040E94AD078D8D13
:100B00009E8DAF8DB8A182709927AA27BB27892B0C
:100B10008A2B8B2B99F086E0EEE4F2E0DE011D9645
:100B200001900D928A95E1F74D855E856F857889F4
:100B300089899A890E9489040E94AD078D8D9E8DB6
:100B4000AF8DB8A184709927AA27BB27892B8A2B40
:100B50008B2B99F086E0E4E5F2E0DE011796019038
:100B60000D928A95E1F74F81588569857A858B8545
:100B70009C850E9489040E94AD078D8D9E8DAF8D4E
:100B8000B8A188709927AA27BB27892B8A2B8B2B82
:100B9000A1F026E0EAE5F2E0CE010196DC01019049
:100BA0000D922A95E1F749815A816B817C818D8173
:100BB0009E810E9489040E94AD0780E090E01AC0E7
:100BC0008D8D9E8DAF8DB8A188279170AA27BB27E8
:100BD000892B8A2B8B2B71F0898D9A8DFC01918149
:100BE0008B8D292F282B898D9A8DFC01218380E004
:100BF00090E000C0A0960FB6F894DEBF0FBECDBF48
:100C0000DF91CF910895CF93DF931F92CDB7DEB7D9
:100C1000898389810E9430040F90DF91CF910895DC
:100C2000CF93DF9300D01F92CDB7DEB79A8389832D
:100C30007C836B832B813C8189819A81B9010E94DD
:100C400051040F900F900F900F90DF91CF91089566
:100C5000CF93DF93CDB7DEB78DE00E9403068AE025
:100C60000E940306DF91CF910895CF93DF93CDB714
:100C7000DEB780E792E00E94BA080E942806FFCF04
:100C8000CF93DF9300D0CDB7DEB79A8389836B8390
:100C90002B8189819A81FC01268381E090E00F906D
:100CA0000F900F90DF91CF910895CF93DF9300D0F5
:100CB0001F92CDB7DEB79A8389837C836B838B8148
:100CC0009C81892B39F089819A81FC018181282FAF
:100CD000286006C089819A81FC018181282F277FA5
:100CE00089819A81FC0121830F900F900F900F90C2
:100CF000DF91CF910895EF920F93CF93DF93CDB70C
:100D0000DEB72B970FB6F894DEBF0FBECDBF9C8326
:100D10008B834D835E836F83788729870A87EB8671
:100D20008B819C81FC018081282F22608B819C819A
:100D3000FC01208380E099E0ADE3B0E02D813E81AD
:100D40004F815885BC01CD010E94150BDA01C90104
:100D50000197A109B109B695A795979587959A83AB
:100D6000898389819A81892F9927282F8B819C815A
:100D7000FC01258329818B819C81FC0124832B9696
:100D80000FB6F894DEBF0FBECDBFDF91CF910F91AC
:100D9000EF900895CF93DF931F92CDB7DEB78FE525
:100DA00090E0FC0180818983F89489810F90DF9124
:100DB000CF910895CF93DF93CDB7DEB70E94CA06D7
:100DC000DF91CF910895AF92BF92CF92DF92EF92D1
:100DD000FF920F931F93CF93DF93CDB7DEB760974A
:100DE0000FB6F894DEBF0FBECDBF29873A874B8779
:100DF0005C876D877E878F87988B898589838A85B5
:100E00008A838B858B838C858C838D858D838E8562
:100E10008E838F858F8388898887A980BA80CB80CD
:100E2000DC80ED80FE800F8118852A2D3B2D4C2D16
:100E30005D2D6E2D7F2D802F912FAFEF0E94960B91
:100E4000A22EB32EC42ED52EE62EF72E082F192F44
:100E5000A982BA82CB82DC82ED82FE820F83188760
:100E6000E1E02A2D3B2D4C2D5D2D6E2D7F2D802F09
:100E7000912FA0E00E94A20B09F4E0E0EE2369F6B6
:100E800060960FB6F894DEBF0FBECDBFDF91CF9155
:100E90001F910F91FF90EF90DF90CF90BF90AF9098
:100EA0000895EF920F93CF93DF93CDB7DEB720E095
:100EB00031E040E050E060E870E083E290E00E94C2
:100EC0001C0540E060E870E083E290E00E94BC0412
:100ED000EE24E39408E02EE640E052EC61E070E09E
:100EE00080EC90E00E947B0661E070E080EC90E096
:100EF0000E945506DF91CF910F91EF900895CF9307
:100F0000DF93CDB7DEB70E94DA0641E060E870E01B
:100F100083E290E00E94BC0420E533EC40E050E026
:100F200060E070E080E090E00E94E30640E060E86E
:100F300070E083E290E00E94BC0420E533EC40E0E6
:100F400050E060E070E080E090E00E94E30661E441
:100F500080EC90E00E944006D8CFCF93DF93CDB7CE
:100F6000DEB70E94B60BCF93DF9300D01F92CDB7B0
:100F7000DEB79C838B831A82198205C089819A818E
:100F800001969A83898389819A812B813C81820F82
:100F9000931FFC018081882389F789819A810F90B2
:100FA0000F900F900F90DF91CF9108952F923F9265
:100FB0004F925F926F927F928F929F92AF92BF9269
:100FC000CF92DF92EF92FF920F931F93CF93DF9315
:100FD000CDB7DEB7A4970FB6F894DEBF0FBECDBF76
:100FE0002D8F3E8F4F8F58A369A37AA38BA39CA309
:100FF000CE01059648969C838B838B819C819A8336
:101000008983AD8CBE8CCF8CD8A0E9A0FAA00BA1AF
:101010001CA12A2D3B2D4C2D5D2D6E2D7F2D802F5B
:10102000912FA0E00E94A20B19F480E30E94030616
:1010300089819A8101979A83898389819A81FC01A8
:10104000108266C089819A8101979A8389832D8C49
:101050003E8C4F8C58A069A07AA08BA09CA00F2E2C
:10106000FAE0AF2EF02DB12CC12CD12CE12CF12CBB
:1010700000E010E0222D332D442D552D662D772DC7
:10108000882D992D0E94370BA22EB32EC42ED52E5B
:10109000E62EF72E082F192F2A2D3B2D4C2D5D2DD6
:1010A0006E2D7F2D802F912F822F805D282F89819B
:1010B0009A81FC0120832D8C3E8C4F8C58A069A016
:1010C0007AA08BA09CA00F2EFAE0AF2EF02DB12CB1
:1010D000C12CD12CE12CF12C00E010E0222D332D7D
:1010E000442D552D662D772D882D992D0E94390B75
:1010F000A22EB32EC42ED52EE62EF72E082F192F92
:10110000AD8EBE8ECF8ED8A2E9A2FAA20BA31CA3ED
:10111000AD8CBE8CCF8CD8A0E9A0FAA00BA11CA1ED
:101120002A2D3B2D4C2D5D2D6E2D7F2D802F912F47
:10113000A0E00E94A20B09F085CF89819A810E94CC
:10114000BA08A4960FB6F894DEBF0FBECDBFDF91EC
:10115000CF911F910F91FF90EF90DF90CF90BF90B4
:10116000AF909F908F907F906F905F904F903F9047
:101170002F900895CF93DF931F921F92CDB7DEB7C4
:101180009A83898389819A81892B69F48EE40E94EC
:10119000030685E50E9403068CE40E9403068CE4A6
:1011A0000E9403060AC089819A810E94B3079C01AC
:1011B00089819A81B9010E9410060F900F90DF91EA
:1011C000CF910895AF92BF92CF92DF92EF92FF92AC
:1011D0000F931F93CF93DF931F921F92CDB7DEB76C
:1011E0009A83898389819A815C01C12CD12CE12C5D
:1011F000F12C87012A2D3B2D4C2D5D2D6E2D7F2D41
:10120000802F912F0E94F3030F900F90DF91CF91C9
:101210001F910F91FF90EF90DF90CF90BF90AF9014
:101220000895CF93DF9300D0CDB7DEB79A8389833B
:101230006B838FEF9FEF0F900F900F90DF91CF9107
:101240000895CF93DF931F921F92CDB7DEB79A8395
:10125000898329EC32E089819A81FC0131832083E2
:101260000F900F90DF91CF910895CF93DF9300D02F
:1012700000D0CDB7DEB79A8389837C836B835E838E
:101280004D8389819A810E9421092BEB32E089816B
:101290009A81FC013183208389819A812B813C8151
:1012A000FC013383228389819A812D813E81FC0157
:1012B0003583248326960FB6F894DEBF0FBECDBFCC
:1012C000DF91CF910895CF93DF93CDB7DEB7289705
:1012D0000FB6F894DEBF0FBECDBF9A8389834B83D0
:1012E0005C836D837E838B819C81AD81BE812981EE
:1012F0003A81F9016481758129813A81F90102807D
:10130000F381E02DF887EF839C01AD018F819885F3
:101310000E941C0528960FB6F894DEBF0FBECDBF05
:10132000DF91CF910895CF93DF9300D0CDB7DEB793
:101330009A8389836B8389819A81FC012481358119
:1013400089819A81FC01828193814B81B9010E943C
:10135000BC040F900F900F90DF91CF910895CF9321
:10136000DF931F921F92CDB7DEB79A83898389815D
:101370009A81FC012481358189819A81FC018281D5
:101380009381B9010E94ED0421E0892B09F420E04A
:10139000822F90E00F900F90DF91CF910895CF931F
:1013A000DF931F921F92CDB7DEB79A83898389811D
:1013B0009A81FC012481358189819A81FC01828195
:1013C0009381B9010E9404050F900F90DF91CF9196
:1013D0000895CF93DF931F921F92CDB7DEB79A8304
:1013E000898329EA32E089819A81FC013183208353
:1013F0000F900F90DF91CF910895CF93DF9300D09E
:101400001F92CDB7DEB79A8389837C836B838981F2
:101410009A810E94E90925EE32E089819A81FC01D6
:101420003183208389819A812B813C81FC01378320
:1014300026830F900F900F900F90DF91CF9108951A
:101440001F920F9200905F000F92112400905B009A
:101450000F922F933F934F935F936F937F938F934D
:101460009F93AF93BF93EF93FF93CF93DF93CDB74A
:10147000DEB72091FC023091FD028091FE02909136
:10148000FF0260E070E0F9011995DF91CF91FF91C3
:10149000EF91BF91AF919F918F917F916F915F91EC
:1014A0004F913F912F910F9000925B000F9000920F
:1014B0005F000F901F9018951F920F9200905F0091
:1014C0000F92112400905B000F922F933F934F9344
:1014D0005F936F937F938F939F93AF93BF93EF939C
:1014E000FF93CF93DF93CDB7DEB72091FC0230910D
:1014F000FD028091FE029091FF0262E070E0F9012E
:101500001995DF91CF91FF91EF91BF91AF919F918D
:101510008F917F916F915F914F913F912F910F909C
:1015200000925B000F9000925F000F901F90189543
:101530001F920F9200905F000F92112400905B00A9
:101540000F922F933F934F935F936F937F938F935C
:101550009F93AF93BF93EF93FF93CF93DF93CDB759
:10156000DEB72091FC023091FD028091FE02909145
:10157000FF0261E070E0F9011995DF91CF91FF91D1
:10158000EF91BF91AF919F918F917F916F915F91FB
:101590004F913F912F910F9000925B000F9000921E
:1015A0005F000F901F901895CF93DF93CDB7DEB7F4
:1015B0000E9451070E947F0780E090E0DF91CF9169
:1015C0000895CF93DF9300D01F92CDB7DEB79A83F3
:1015D00089837C836B8389819A81019791F48B81C4
:1015E0009C81019671F440E850E063E270E084EF82
:1015F00092E00E94350960EC70E08AEF92E00E9470
:10160000FD090F900F900F900F90DF91CF910895EB
:10161000CF93DF93CDB7DEB76FEF7FEF81E090E040
:101620000E94E10ADF91CF910895A1E21A2EAA1B30
:10163000BB1BFD010DC0AA1FBB1FEE1FFF1FA21782
:10164000B307E407F50720F0A21BB30BE40BF50B7F
:10165000661F771F881F991F1A9469F76095709508
:10166000809590959B01AC01BD01CF0108956894D0
:1016700001C0E8948F929F92CF93DF930E94450B15
:10168000DF91CF919F908F90089588249924F40141
:10169000E401B0E49F93AA279A158B049C04ED05FE
:1016A000FE05CF05D007A10798F4AD2FDC2FCF2F73
:1016B000FE2FE92D982C892E982F872F762F652FB6
:1016C000542F432F322F2227B85031F7BF9127C014
:1016D0001B2EBF91BB27220F331F441F551F661FB0
:1016E000771F881F991F881C991CEE1FFF1FCC1F96
:1016F000DD1FAA1FBB1F8A149B04EC05FD05CE0548
:10170000DF05A007B10748F08A189B08EC09FD091E
:10171000CE09DF09A00BB10B21601A94E1F62EF47B
:101720009401AF01BE01CD01000C08950024A7FD76
:1017300000942A0F301D401D501D601D701D801D1E
:10174000901D08950024A7FD00942A173005400538
:10175000500560057005800590050895EE0FFF1F88
:10176000881F8BBF0790F691E02D199481E090E0DF
:0A177000F8940C94BB0BF894FFCF23
:00000001FF
