:020000040800F2
:1000000010B5054C237833B9044B13B10448AFF352
:1000100000800123237010BD000A002000000000B2
:100020003C35020808B5034B1BB103490348AFF345
:10003000008008BD00000000040A00203C350208D2
:10004000A3F5803A704700BF174B002B08BF134B36
:100050009D46FFF7F5FF00218B460F461348144AD3
:10006000121A1CF047FB0E4B002B00D098470D4B8B
:10007000002B00D098470020002104000D000D48FF
:10008000002802D00C4820F0AFF81BF00BFF200036
:10009000290000F01DF81BF0EFF900BF0000080078
:1000A000000000000000000000000000000A002026
:1000B0004C0B0020E90102080516020880B483B049
:1000C00000AF7860396000BF0C37BD4680BC704718
:1000D00080B500AF00F016FBFCE780B584B002AF3E
:1000E000786039607B68012B0FD13B684FF6FF7257
:1000F00093420AD14FF47A724FF00003CDE9002306
:100100000022044904480FF06BF800BF0837BD46D1
:1001100080BD00BFBD000008200A002080B500AFF0
:100120004FF6FF710120FFF7D8FF80BD80B483B088
:1001300000AFEFF3108372B67B607B6818460C3714
:10014000BD4680BC704780B500AFFFF7EFFF00BF32
:1001500080BD80B500AF0D2001F026FB0A2001F024
:1001600023FB00BF80BD80B584B000AF3B1D83E89A
:1001700007000F4804F0F5FDBB68184604F0F1FDD8
:10018000FFF7E7FF0B4804F0ECFDFB68184604F0AE
:10019000E8FDFFF7DEFF084804F0E3FD7B68184642
:1001A00004F017FFFFF7D5FF00BF1037BD4680BD35
:1001B000A0350208A8350208B035020880B582B023
:1001C00000AF7860FFF7BFFFFEE780B584B000AFF7
:1001D000054A3B1D07CA83E807003B1D93E807005B
:1001E000FFF7C1FF01F0FAFAB835020880B584B014
:1001F00000AF064A3B1D07CA83E807003B1D93E892
:100200000700FFF7B0FF01F0E9FA00BFC4350208AC
:1002100080B584B000AF064A3B1D07CA83E80700DB
:100220003B1D93E80700FFF79EFF01F0D7FA00BFE0
:10023000D035020880B584B000AF064A3B1D07CA1E
:1002400083E807003B1D93E80700FFF78CFF01F0F0
:10025000C5FA00BFDC35020880B584B000AF064A9D
:100260003B1D07CA83E807003B1D93E80700FFF723
:100270007AFF01F0B3FA00BFE835020880B584B018
:1002800000AF064A3B1D07CA83E807003B1D93E801
:100290000700FFF768FF01F0A1FA00BFF43502087C
:1002A00080B584B000AF064A3B1D07CA83E807004B
:1002B0003B1D93E80700FFF756FF01F08FFA00BFE0
:1002C0000036020880B584B000AF064A3B1D07CA5D
:1002D00083E807003B1D93E80700FFF744FF01F0A8
:1002E0007DFA00BF0C36020880B584B000AF064A24
:1002F0003B1D07CA83E807003B1D93E80700FFF793
:1003000032FF01F06BFA00BF1836020880B584B0E6
:1003100000AF064A3B1D07CA83E807003B1D93E870
:100320000700FFF720FF01F059FA00BF243602084A
:1003300080B483B000AF78607B687A685A607B686D
:100340005A687B681A6000BF0C37BD4680BC704796
:1003500080B485B000AFF860B9607A60FB687A68F5
:100360005A60FB68BA681A60BB68FA685A607B68B2
:10037000FA681A6000BF1437BD4680BC704780B56C
:1003800082B000AF786039603B685B681A463968B4
:100390007868FFF7DDFF00BF0837BD4680BD80B439
:1003A00083B000AF786039603B687A685A607B68D8
:1003B0003A681A6000BF0C37BD4680BC704780B5F4
:1003C00082B000AF78607B685A687B681B6819460A
:1003D0001046FFF7E4FF7868FFF7AAFF00BF083771
:1003E000BD4680BD80B483B000AF78607B681B6879
:1003F0007A689A420CBF01230023DBB218460C37FF
:10040000BD4680BC704780B582B000AF78600B46B7
:10041000FB707B68FA781A737B6800229A607B68AD
:100420001846FFF785FF00BF0837BD4680BD80B482
:1004300083B000AF7860002318460C37BD4680BCFF
:10044000704780B584B000AFF860C7E90023FB684F
:1004500097F8202011461846FFF7D5FFF968D7E92D
:100460000023C1E90423F968D7E90623C1E906237B
:1004700000BF1037BD4680BD80B588B004AFF860BE
:10048000B9607A60F96804230293D7E90823CDE9BB
:100490000023D7E906230846FFF7D3FFFB68BA68B5
:1004A0001A62FB687A685A6200BF1037BD4680BD89
:1004B000B0B485B000AFF860C7E90023FB68D3E9AA
:1004C0000423D7E90001841A61EB0305FB68D3E933
:1004D0000623944275EB0303ACBF01230023DBB278
:1004E00018461437BD46B0BC7047B0B588B004AFED
:1004F000F860B9601346FB7100F0ECFE04460D464F
:10050000B86800F06FFF02460B46F9790291CDE919
:10051000002322462B46F868FFF793FF00BF1037F1
:10052000BD46B0BDB0B588B004AFF860B9607A60C0
:100530003B6000F0CFFE04460D46386800F052FFE5
:1005400002460B46CDE90223CDE900457A68B96839
:10055000F868FFF791FF00BF1037BD46B0BD80B50A
:1005600082B000AF786000F0B5FE02460B467968B5
:10057000C1E9042300BF0837BD4680BD80B584B003
:1005800000AFF860C7E900233B68184600F02AFF77
:1005900002460B46F968C1E9062300BF1037BD4685
:1005A00080BD80B582B000AF0B4B1B687B607B6861
:1005B000094A93420CD07B6803F110017B68183321
:1005C0001A4606480EF04BFE7B681B687B60EEE720
:1005D00000BF0837BD4680BD0400002080360208F9
:1005E00080B483B000AF78607B681A687B685B6812
:1005F0009A4214BF01230023DBB218460C37BD46D4
:1006000080BC704780B582B000AF78607B681846C8
:10061000FFF7D5FE00BF0837BD4680BD2DE9B04FBE
:1006200088B000AF78600023BB617B68D3E9040128
:100630007B68D3E9062310EB020A41EB030BC7E901
:1006400004AB0023BB6101F030F81B4B1B68FB615E
:10065000FB69194A93421DD0FB69D3E90401FB6988
:10066000D3E9062310EB020841EB0309C7E902892D
:10067000D7E90401D7E90223841A61EB0305002CB2
:1006800075F1000302DAFB69BB6103E0FB691B68DB
:10069000FB61DDE77A68BB69002B01D0BB6900E034
:1006A000054B19461046FFF76AFE01F02DF800BF12
:1006B0002037BD46BDE8B08F0400002080B584B06F
:1006C00000AF78607B681B7B032B0FD0042B14D109
:1006D0007B68FB607B681846FFF771FEFB681B6A4E
:1006E000FA68526AF9681046984707E07B68083B49
:1006F000BB60B86800F06CF900E000BF00BF1037C5
:10070000BD4680BD80B584B000AF00F0E3FD024679
:100710000B46C7E9022300F0C8FF1548FFF762FE49
:100720000346002B0CBF01230023DBB2002B17D0A4
:100730000F4B1B687B6000F0E7FFD7E90223786866
:10074000FFF7B6FE0346002B14BF01230023DBB2E4
:10075000002B08D07868FFF7B1FF00F0A6FFDCE7B8
:1007600000F0D2FF00E000BF1037BD4680BD00BFE3
:100770000400002080B500AF0D2001F015F80A201C
:1007800001F012F800BF80BD80B582B000AF786084
:10079000786804F0E6FA00BF0837BD4680BD80B532
:1007A00082B000AF0346FB80FB88184604F001FCD2
:1007B00000BF0837BD4680BD80B483B000AF78600D
:1007C0007B687A685A607B685A687B681A6000BFE9
:1007D0000C37BD4680BC704780B485B000AFF86070
:1007E000B9607A60FB687A685A60FB68BA681A6018
:1007F000BB68FA685A607B68FA681A6000BF1437F1
:10080000BD4680BC704780B582B000AF786039606B
:100810003B685B681A4639687868FFF7DDFF00BF00
:100820000837BD4680BD80B483B000AF78603960C2
:100830003B687A685A607B683A681A6000BF0C3778
:10084000BD4680BC704780B582B000AF78607B68E1
:100850005A687B681B6819461046FFF7E4FF786802
:10086000FFF7AAFF00BF0837BD4680BD80B582B044
:1008700000AF786039607B685A687B681B681946EE
:100880001046FFF7D0FF39687868FFF7BCFF00BF5C
:100890000837BD4680BD80B483B000AF78607B6808
:1008A0001B687A689A420CBF01230023DBB218460A
:1008B0000C37BD4680BC704780B584B000AF3B1D8F
:1008C00083E807000F4804F04CFABB68184604F0B0
:1008D00048FAFFF74FFF0C4804F043FAFB6818464C
:1008E00004F03FFAFFF746FF084804F03AFA7B6845
:1008F000184604F06EFBFFF73DFF00BF1037BD4602
:1009000080BD00BFC8360208D0360208D8360208BB
:1009100080B483B000AF7860002318460C37BD4622
:1009200080BC704780B400AF62B600BFBD4680BCDB
:10093000704780B483B000AFEFF3108372B67B6072
:100940007B6818460C37BD4680BC704780B500AF49
:10095000FFF7EFFF00BF80BD80B400AF024B1B6804
:100960001846BD4680BC7047680A002080B582B03A
:1009700000AF00237B607B68032B0ADC7B68DB0015
:10098000064A13441846FFF717FF7B6801337B6064
:10099000F1E700BF0837BD4680BD00BF480A002010
:1009A00080B582B000AF78607B6803F108027B6895
:1009B00093F82830DB0005490B4419461046FFF731
:1009C00055FF00BF0837BD4680BD00BF480A002064
:1009D00080B582B000AF786000F067FE7B680022CF
:1009E00083F829207B6800221A757B680833054943
:1009F0001846FFF73BFF00F087FE00BF0837BD46F3
:100A000080BD00BF0C00002080B582B000AF7860D0
:100A1000396000F04AFE7B68062283F829207B6853
:100A2000083305491846FFF721FF00F06DFE00BFAF
:100A30000837BD4680BD00BF1400002080B582B0DD
:100A400000AF786000F031FE7B68042283F8292033
:100A50007B68083304491846FFF708FF00F054FE8E
:100A600000BF0837BD4680BD1C00002080B582B0A5
:100A700000AF786000F019FE7B68032283F829201C
:100A80007B6808331846FFF7DEFE00F03DFE00BF2E
:100A90000837BD4680BD80B582B000AFFFF75CFF70
:100AA00078607868FFF7CAFF00F08CF900BF08375C
:100AB000BD4680BD80B582B000AF7860144A7B68C7
:100AC00013607A6892F8403043F0010382F84030B6
:100AD0007B6893F82A30184600F058FE7B6893F83C
:100AE0002A30002B02D0FFF731FF01E0FFF71AFF99
:100AF0007B68DB8F01339AB27B68DA877B681B687F
:100B00001B687868984700BF0837BD4680BD00BFA6
:100B1000680A002080B485B000AF0023FB6000238A
:100B20007B607B68032B16DC154A7B6852F83330F8
:100B3000BB607B68DB00124A1344BA689A4206D055
:100B4000FB680133FB60BB681B68BB60F1E77B6837
:100B500001337B60E5E70B4B1B68BB60BB68094A50
:100B6000934206D0FB680133FB60BB681B68BB6027
:100B7000F4E7FB6818461437BD4680BC704700BFD9
:100B8000480A00200C00002080B483B000AF034668
:100B9000FB71FB79062B1DD801A252F823F000BF90
:100BA000BD0B0008D50B0008C50B0008C10B0008E1
:100BB000CD0B0008D10B0008C90B0008084B0AE058
:100BC000084B08E0084B06E0084B04E0084B02E045
:100BD000084B00E0084B18460C37BD4680BC7047F8
:100BE000E0360208E4360208EC360208F436020861
:100BF000FC360208043702080C37020880B582B0C0
:100C000000AF274B1B68343B7B607B683433244A3E
:100C1000934240D07B681B6B002B05D07B681B6B1D
:100C20001846FFF7B1FD02E01E48FFF7ADFD1E4874
:100C3000FFF7AAFD7B689B8D1846FFF7B0FD1B48A8
:100C4000FFF7A2FD7B68DB8D1846FFF7A8FD18486B
:100C5000FFF79AFD7B68DB8F1846FFF7A0FD15486C
:100C6000FFF792FD7B689B8F1846FFF798FD1248AF
:100C7000FFF78AFD7B6893F829301846FFF784FF59
:100C800003461846FFF780FD0EF0DBFB7B685B6BCD
:100C9000343B7B60B9E700BF0837BD4680BD00BF6D
:100CA00024000020103702081837020820370208F5
:100CB00028370208303702083837020880B582B07A
:100CC00000AFFFF743FE3C48FFF7E5FD0346002B6E
:100CD0000CBF01230023DBB2002B17D0364B1B685F
:100CE000083B3B603B6808331846FFF7ACFDFFF755
:100CF00019FE3B68052283F8292038680EF084FB32
:100D0000386800F049FAFFF721FEDCE7FFF70AFE3A
:100D1000FFF71CFE2948FFF7BEFD0346002B0CBF62
:100D200001230023DBB2002B07D0244B1B68083BB8
:100D30003B603868FFF734FEECE7FFF7F3FD002374
:100D40007B607B68032B33DC7B68DB001C4A13442D
:100D50001846FFF7A0FD0346002B0CBF012300231C
:100D6000DBB2002B20D0164A7B6852F83330083BA8
:100D70003B603B6893F8403003F02003DBB2002B6C
:100D800003D03868FFF75AFE13E03B6803F108020E
:100D90007B68DB000A490B4419461046FFF766FDE5
:100DA0003868FFF787FE04E07B6801337B60C8E7A3
:100DB00000BF0837BD4680BD1C0000200C0000208D
:100DC000480A002080B582B000AFFFF7C5FD78600B
:100DD0007B6893F8403003F00203DBB2002B02D1B2
:100DE0004FF0FF3314E000F0C7FC0346DAB27B6833
:100DF00083F82A207B689B8F01339AB27B689A879D
:100E00007B681B6804331B6878689847034600BFFB
:100E100018460837BD4680BD80B500AFFFF7A6FD78
:100E200000BF80BD80B582B000AF00F03EFC002363
:100E30007B607B68032B23DC3B1D194614480EF0B6
:100E400008FB7B68134A52F83330083B3B603B6831
:100E500003F108027B68DB000E490B449A420BD079
:100E60000D48FFF791FC3B4618460EF001FB3B682E
:100E70009B68083B3B60EAE77B6801337B60D8E70F
:100E800000F042FC01E00FF021FB0837BD4680BDB9
:100E900040370208480A00204C37020880B500AFEE
:100EA000DFF888D1FFF73EFD00F05AFC00F074F83F
:100EB000FCE780B584B000AF7860114B1B68343B11
:100EC000FB60FB6834330E4A934213D0FB681B6B04
:100ED000002B0AD0FB681B6B796818460DF074FF75
:100EE0000346002B01D1FB6805E0FB685B6B343BDC
:100EF000FB60E6E7002318461037BD4680BD00BF03
:100F00002400002080B584B000AF786039607B6831
:100F1000032B04D01C481BF025FD00232FE03B6869
:100F200008331B681846FFF7C4FFF860FB68002B06
:100F30000CBF01230023DBB2002B04D013481BF0AD
:100F400011FD00231BE03B6804331B681049184661
:100F50000DF03AFF0346002B03D1F868FFF738FD88
:100F60000CE03B6804331B680A4918460DF02CFF5F
:100F70000346002B02D1F868FFF778FD00231846DE
:100F80001037BD4680BD00BF5037020874370208D5
:100F9000883702089037020880B584B000AF064A4F
:100FA0003B1D07CA83E807003B1D93E80700FFF7D6
:100FB00083FC00F013FC00BF9837020890B583B0A3
:100FC00000AF786039607B68012B19D13B684FF620
:100FD000FF72934214D10C4C00230C4A0C4920465A
:100FE0000EF0E0F9103400230A4A0B4920460EF0B7
:100FF000C0F904F110000023002200210EF0EBF9EB
:1010000000BF0C37BD4690BD6C0A0020FD0B0008E8
:10101000A8370208050F0008AC37020880B500AFFA
:101020004FF6FF710120FFF7C9FF80BDFC7F012053
:1010300080B500AF0D2000F0B7FB0A2000F0B4FB34
:1010400000BF80BD80B582B000AF7860786803F0E3
:1010500088FE00BF0837BD4680BD80B582B000AFB6
:101060000346FB71FB79184603F093FF00BF083776
:10107000BD4680BD80B582B000AF0346FB80FB88D3
:10108000184603F096FF00BF0837BD4680BD80B408
:1010900083B000AF7860002318460C37BD4680BC93
:1010A000704780B483B000AF0023FB70194B1B88DE
:1010B00001339AB2174B1A80164B1B88002B05D1AF
:1010C000144B1B8801339AB2124B1A800023FB7019
:1010D000114B1B68343B7B607B6834330E4A934270
:1010E0000DD07B689A8D0B4B1B889A4202D101234D
:1010F000FB7004E07B685B6B343B7B60ECE7FB7868
:10110000002B00D0D2E7034B1B8818460C37BD4696
:1011100080BC70479C0A00202400002080B483B06B
:1011200000AF0023FB701A4B1B8801339AB2184B97
:101130001A80174B1B88002B05D1154B1B880133D8
:101140009AB2134B1A800023FB70124B1B68343B7E
:101150007B607B6834330F4A93420DD07B68DA8D15
:101160000B4B1B889A4202D10123FB7004E07B6881
:101170005B6B343B7B60ECE7FB78002B00D0D2E765
:10118000034B1B8818460C37BD4680BC704700BF18
:101190009E0A00202400002080B582B000AF786055
:1011A0007B685B68002B09D07B685B681B680C332D
:1011B0001B687A68526814211046984700BF0837A8
:1011C000BD4680BD80B584B000AF1E4B1B68FB6080
:1011D000FB681C4A934231D0FB68343BBB60BB6860
:1011E0007B603B1D18460EF06DF91748FFF72AFF8C
:1011F000BB68DB8F1846FFF73DFF1448FFF722FF5F
:10120000BB689B8F1846FFF735FF1148FFF71AFFA1
:10121000BB6893F828301846FFF71FFF0D48FFF70B
:1012200011FFBB6893F829301846FFF716FF0A48EC
:101230000EF060F9FB681B68FB60C9E700BF103760
:10124000BD4680BD24000020B4370208C437020820
:10125000D4370208DC370208E837020880B582B0CC
:1012600000AF78607868FFF7B3FB00BF0837BD4672
:1012700080BD80B582B000AF78607868FFF7F6FB7C
:1012800000BF0837BD4680BD80B582B000AF786032
:1012900039603B68142B08D17B6893F82930062B02
:1012A00012D17868FFF7DAFF0EE03B68022B03D11A
:1012B0007868FFF7C3FB08E07B6830333A4619468D
:1012C00003480EF024F900E000BF0837BD4680BD9A
:1012D000EC37020880B582B000AF00F0E6F9074BAA
:1012E000D3E90023C7E9002300F00EFAD7E9002371
:1012F000104619460837BD4680BD00BFA00A002031
:1013000080B483B000AF78600B4A7B6813604FF401
:101310007A327B68B2FBF3F3084A1360084B1B6810
:101320001A464FF47A23B3FBF2F3064A136000BF68
:101330000C37BD4680BC70472C00002034000020D4
:101340003C00002038000020B0B500AFFFF7C2FF1E
:101350000D4B1B681A464FF0000302FB01F500FB22
:1013600003F42C44A0FB0223E1180B464FF00000CD
:101370004FF00001100A40EA0360191202460B46C2
:1013800010461946B0BD00BF34000020B0B586B08D
:1013900000AFC7E90001FFF7D7FFC7E90401D7E9AC
:1013A00004010BF0B5FDD7E900230BF029FC024640
:1013B0000B46104619460CF0F9FA02460B46C7E9EF
:1013C000022300BFFFF7C0FFD7E90223141A63EB23
:1013D0000105012C75F10003F4DA00BF00BF1837D6
:1013E000BD46B0BD80B483B000AF78607B681A02A0
:1013F000064B1B68B2FBF3F31A464FF0000310468E
:1014000019460C37BD4680BC704700BF3400002031
:1014100080B400AF064BD3E90023501C43F1000118
:10142000034BC3E9000100BFBD4680BC704700BF4D
:10143000A00A002080B400AF024B1B681846BD46CE
:1014400080BC70473000002080B483B000AF78606B
:10145000034A7B68136000BF0C37BD4680BC7047F1
:101460003000002090B58BB000AF786000F01DF91F
:10147000204B1B681A46204B9B68D31A1A464FF024
:101480000003C7E908231D4BD3E90023C7E9022362
:10149000184B1B681A46184B9B68D31A1A464FF014
:1014A0000003C7E9042300F02FF900F0FEF8134B06
:1014B000D3E90023C7E9062300F026F9D7E90401A0
:1014C000D7E90823904271EB0303CFDBD7E902236E
:1014D000D7E90601994208BF9042C7D17B681C46F4
:1014E00007F108030FCB84E80F0078682C37BD465E
:1014F00090BD00BF3C00002010E000E0A00A0020EA
:101500002DE9B00387B000AF3C4684E80F00D7E96F
:101510000001334B1B681A464FF0000302FB01F534
:1015200000FB03F42C44A0FB0223E1180B464FF010
:1015300000004FF00001100A40EA03601912024651
:101540000B464FF000044FF000055D0145EAD265FF
:10155000540122462B46121A63EB01034FF000049C
:101560004FF000059D0045EA9275940022462B46F7
:10157000121841EB03034FF000004FF00001D900B7
:1015800041EA5271D00002460B46C7E90423D7E96D
:101590000201144B1B681A464FF0000302FB01F5D1
:1015A00000FB03F42C44A0FB0201631819464FF022
:1015B00000024FF00003820A42EA81528B12D7E9FF
:1015C000040110EB020841EB0309C7E90489D7E9DC
:1015D0000423104619461C37BD46BDE8B0037047CA
:1015E000340000203800002080B584B000AF3B46B6
:1015F0001846FFF737FF3B460FCBFFF781FF024648
:101600000B46104619461037BD4680BD90B484B0D5
:1016100000AF3C4684E80F00D7E90001D7E9062374
:10162000994208BF90420CD0D7E90023D7E90601C0
:10163000904271EB030301DA012318E04FF0FF330E
:1016400015E0D7E90201D7E90823994208BF904283
:101650000CD0D7E90223D7E90801904271EB0303CC
:1016600001DA012303E04FF0FF3300E000231846C6
:101670001037BD4690BC704780B483B000AFEFF325
:10168000108372B67B607B6818460C37BD4680BC01
:10169000704780B483B000AF78607B6883F31088B4
:1016A00000BF0C37BD4680BC704780B582B000AF2C
:1016B000FFF7E2FF78600F4B1B68002B0CBF012384
:1016C0000023DBB2002B02D00B4A7B681360094B6E
:1016D0001B680133074A1360064B1B68092B05DDA5
:1016E000064B074A1321074819F094FE00BF08373C
:1016F000BD4680BDAC0A0020A80A00202838020898
:10170000343802084838020880B500AF0F4B1B6818
:10171000013B0E4A13600D4B1B68002B05DA0C4B86
:101720000C4A19210C4819F075FE084B1B68002B58
:101730000CBF01230023DBB2002B04D0074B1B6836
:101740001846FFF7A6FF00BF80BD00BFAC0A00200F
:10175000883802089438020848380208A80A00208D
:1017600080B400AF034B00221A6000BFBD4680BCAE
:10177000704700BFAC0A002080B400AF024B1B686A
:101780001846BD4680BC7047AC0A002080B483B0C8
:1017900000AF7860034A7B68136000BF0C37BD461A
:1017A00080BC7047AC0A002080B582B000AF034611
:1017B000FB71FB79184603F06FFE00BF0837BD468A
:1017C00080BD80B582B000AF7860396039687868D4
:1017D00003F094FE00BF0837BD4680BD80B500AF62
:1017E00019F010FE80B483B000AF0346FB71FB79A3
:1017F000392B03D8FB79303BDBB202E0FB79373B76
:10180000DBB218460C37BD4680BC704780B58CB043
:1018100000AFC7E902017A60FB707B68FB624FF0A2
:1018200000024FF00003C7E906237B6800221A700C
:101830007B68BB62FB78012B02D9FB78242B01D992
:101840007B6860E0D7E90223002A73F100030FDA16
:10185000FB6A5A1CFA622D221A70BB6A0133BB6202
:10186000D7E90223524263EB4303C7E9062303E0AF
:10187000D7E90223C7E906230023FB82FA784FF059
:101880000003D7E906010CF079F81346FB82B7F99B
:101890001630092B04DCFB8ADBB23033DAB203E00A
:1018A000FB8ADBB25733DAB2FB6A591CF9621A7051
:1018B000FA784FF00003D7E906010CF05FF8024612
:1018C0000B46C7E90623D7E906231343D6D1FB6AA3
:1018D00000221A70FB6A013B7B620FE0BB6A1B7837
:1018E0007B757B6A1A78BB6A1A707B6A7A7D1A707C
:1018F000BB6A0133BB627B6A013B7B62BA6A7B6A6B
:101900009A42EBD3FB6A18463037BD4680BD80B59E
:1019100084B000AFF860B9601346FB71FB681846ED
:101920004FEAE071FB79BA68FFF770FF034618468B
:101930001037BD4680BD80B582B000AF0346396028
:10194000FB8013467B71B7F906004FEAE0717B79A3
:101950003A68FFF75BFF034618460837BD4680BD6F
:1019600080B582B000AF03463960FB711346BB718E
:1019700097F907004FEAE071BB793A68FFF746FF35
:10198000034618460837BD4680BD80B58CB000AF11
:10199000C7E902017A60FB707B68FB624FF00002CE
:1019A0004FF00003C7E906237B6800221A707B68AA
:1019B000BB62FB78012B02D9FB78242B01D97B6811
:1019C0004AE0D7E90223C7E906230023FB82FA781D
:1019D0004FF00003D7E906010BF0D0FF1346FB825E
:1019E000B7F91630092B04DCFB8ADBB23033DAB2EC
:1019F00003E0FB8ADBB23733DAB2FB6A591CF962C7
:101A00001A70FA784FF00003D7E906010BF0B6FF21
:101A100002460B46C7E90623D7E906231343D6D16E
:101A2000FB6A00221A70FB6A013B7B620FE0BB6A13
:101A30001B787B757B6A1A78BB6A1A707B6A7A7D21
:101A40001A70BB6A0133BB627B6A013B7B62BA6A74
:101A50007B6A9A42EBD3FB6A18463037BD4680BD9D
:101A600080B584B000AFC7E902017A60FB70FB78F3
:101A70007A68D7E90201FFF788FF03461846103756
:101A8000BD4680BD80B584B000AFC7E902017A6071
:101A9000FB70FB787A68D7E90201FFF776FF03460F
:101AA00018461037BD4680BD80B584B000AFC7E989
:101AB00002017A60FB70FB787A68D7E90201FFF7D0
:101AC00064FF034618461037BD4680BD90B587B009
:101AD00000AFF8600B467A60FB7200237B610AE07E
:101AE000FB7A7A6902FB03F4FB7C1846FFF77AFE67
:101AF000034623447B61FB685A1CFA601B78FB7425
:101B0000FB7C0133094A13441B7803F04403002B88
:101B1000E6D17B68002B03D0FB685A1E7B681A60F5
:101B20007B6918461C37BD4690BD00BF9056020821
:101B30002DE9B04388B000AFF8600B467A60FB72C5
:101B40004FF000024FF00003C7E906231CE0FA7AC9
:101B50004FF00003B96903FB01F0F96902FB01F1E1
:101B60000144B869A0FB02454B191D46FB7D184690
:101B7000FFF738FE0346DAB24FF0000314EB020819
:101B800045EB0309C7E90689FB685A1CFA601B7814
:101B9000FB75FB7D01330B4A13441B7803F04403B0
:101BA000002BD4D17B68002B03D0FB685A1E7B68C6
:101BB0001A60D7E90623104619462037BD46BDE80E
:101BC000B08300BF9056020880B586B000AFF860C1
:101BD0000B467A60FB72FB681B782D2B0CBF012330
:101BE0000023DBB2FB75FB7D002B02D0FB680133C9
:101BF000FB60FB7A7A681946F868FFF767FF0346CF
:101C00003B61FB7D002B02D03B695B4200E03B69FE
:101C100018461837BD4680BD80B588B000AFF86063
:101C20000B467A60FB72FB681B782D2B0CBF0123DF
:101C30000023DBB2FB77FB7F002B02D0FB68013374
:101C4000FB60FB7A7A681946F868FFF771FF024675
:101C50000B46C7E90423FB7F002B05D0D7E90423FB
:101C6000524263EB430301E0D7E9042310461946CF
:101C70002037BD4680BDB0B58AB000AFF860B9600E
:101C80001346FB71BB687B627B6A3B62FB6823F097
:101C9000004401231D46994920460BF013FE0346DC
:101CA000002B08D1954920460BF0EEFD0346002B92
:101CB00001D100231D46EBB283F00103DBB2002B00
:101CC00015D04FF00001F8680BF0F2FD0346002B31
:101CD00001D02B2100E02D21BB685A1CBA600A46B6
:101CE0001A70BB6886491A460868106002E1F968F4
:101CF000F8680BF0E7FD0346002B05D0BB6881496F
:101D00001A4608681060F5E097F907300A2B01DDE4
:101D10000A23FB714FF00001F8680BF0ABFD03469E
:101D2000002B08D0FB6883F00043FB607B6A5A1CE1
:101D30007A622D221A7097F90730002B3EDA4FF0A5
:101D40007E51F8680BF096FD0346002B02D0062367
:101D5000FB7133E06C49F8680BF08CFD0346002BF7
:101D600002D00523FB7129E06849F8680BF082FD79
:101D70000346002B02D00423FB711FE06449F8687E
:101D80000BF078FD0346002B02D00323FB7115E016
:101D90006049F8680BF06EFD0346002B02D0022369
:101DA000FB710BE05C49F8680BF064FD0346002B07
:101DB00002D00123FB7101E00023FB7197F907308A
:101DC000002B13D0F8680BF079F897F90730534AD5
:101DD000DB001344D3E900230AF012FF02460B464E
:101DE000104619460BF09AFB0346FB60F8680BF0AF
:101DF0007FFD0346FB61F8690BF09AFC0346194628
:101E0000F8680BF0DFFB0346FB60FB69002B05D194
:101E10007B6A5A1C7A6230221A7038E07B6A3B6215
:101E20001AE0FA693E4B83FB02139910D317C91AC3
:101E30000B469B000B445B00D11ACAB23B6A591C8B
:101E400039623032D2B21A70FB69354A82FB031212
:101E50009210DB17D31AFB61FB69002BE1D13B6ABF
:101E6000BB610EE03B6A013B3B623B6A1B78FB7542
:101E70007B6A1A783B6A1A707B6A5A1C7A62FA7D0E
:101E80001A703A6A7B6A9A42ECD8BB697B6297F90E
:101E90000730002B2AD07B6A5A1C7A622E221A70D5
:101EA0001CE01949F8680AF0F1FD0346FB60F86888
:101EB0000BF044FD0346FB757B6A5A1C7A62FA7D7F
:101EC0003032D2B21A70FB7D18460BF031FC03465B
:101ED0001946F8680BF076FB0346FB6097F907306C
:101EE000DAB2013AD2B2FA71002BDAD17B6A00225F
:101EF0001A70BB6818462837BD46B0BDFFFF7F7F0C
:101F0000083902080C390208000020410000C842CC
:101F100000007A4400401C460050C347B038020815
:101F20006766666680B584B000AF786039604FF050
:101F300001024FF00003C7E9022313E07B681A4651
:101F40004FEAE273F96802FB01F0B96803FB01F1A3
:101F50000144B868A0FB022319440B46C7E90223D9
:101F6000C7E902233B685A1E3A60002BE6D1D7E945
:101F700002010AF0CDFF02460B4610461946103703
:101F8000BD4680BD2DE9B04388B000AF78603960B0
:101F90007B681B780133454A13441B7803F0040324
:101FA000002B06D17B681B782D2B02D04FF000034D
:101FB00076E07B681B782D2B0CBF01230023DBB25E
:101FC000FB77FB7F002B02D07B6801337B6007F13E
:101FD00008031A460A217868FFF778FDB861BB68E4
:101FE0007B607B681B782E2B46D17B6801337B603E
:101FF00007F108031A460A217868FFF799FD02469F
:102000000B46C7E904233B68002B02D0BA683B6843
:102010001A60B8690BF088FB034618460AF04EFFB9
:1020200004460D46D7E904010AF072FF804689464E
:10203000BA687B68D31A19460A20FFF773FF024675
:102040000B46404649460BF0BBF802460B4620467D
:1020500029460AF0D5FD02460B46104619460BF0FC
:102060005DFA0346FB60FB7F002B03D0FB6883F027
:10207000004315E0FB6813E03B68002B02D0BA6810
:102080003B681A60FB7F002B06D0B8690BF04CFB55
:10209000034683F0004303E0B8690BF045FB0346B9
:1020A00018462037BD46BDE8B08300BF90560208F1
:1020B00080B584B000AFC7E902017A60FB70D7E950
:1020C00002010BF02BFA97F903301A467968FFF7F3
:1020D000D2FD034618461037BD4680BD2DE9B04FEE
:1020E0008AB000AF786039607B681B780133484A5A
:1020F00013441B7803F00403002B08D17B681B7882
:102100002D2B04D04FF000044FF0000577E07B68E2
:102110001B782D2B0CBF01230023DBB287F827305F
:1021200097F82730002B02D07B6801337B6007F1E2
:102130000C031A460A217868FFF7C8FC3862FB686E
:102140007B607B681B782E2B41D17B6801337B60E1
:1021500007F10C031A460A217868FFF7E9FC0246EA
:102160000B46C7E906233B68002B02D0FA683B68A0
:102170001A60386A0AF080FE80468946D7E906016F
:102180000AF0C6FE82468B46FA687B68D31A194667
:102190000A20FFF7C7FE02460B46504659460BF091
:1021A0000FF802460B46404649460AF029FD024612
:1021B0000B46C7E9042397F82730002B04D03C696D
:1021C0007B6983F000451AE0D7E9044517E03B68D6
:1021D000002B02D0FA683B681A6097F82730002B72
:1021E00008D0386A0AF048FE02460B46144683F0CF
:1021F000004504E0386A0AF03FFE04460D462246D8
:102200002B46104619462837BD46BDE8B08F00BFA3
:102210009056020880B483B000AF7860002318465F
:102220000C37BD4680BC704780B483B000AF034616
:10223000FB71FB79092B03D8FB793033DBB202E069
:10224000FB793733DBB218460C37BD4680BC70478C
:1022500080B588B000AFF860B9607A60F8680FF0B8
:1022600091FC7B685B001946F8680FF061FFBA6863
:102270007B6813447B610021F8680FF0DBFD0346A7
:10228000FB61BB68BB61BA697B699A4225D0BB69B7
:102290001B781B09DBB21846FFF7C6FF0346194639
:1022A000FB695A1CFA610A461A70BB691B7803F075
:1022B0000F03DBB21846FFF7B7FF03461946FB6969
:1022C0005A1CFA610A461A70BB690133BB61DAE72E
:1022D000F8680FF0B3FC0EF0F9F800BFF86820378B
:1022E000BD4680BD90B583B000AF78603960386876
:1022F00010F06AFC044638680FF022FD02467B6845
:1023000021461846FFF7A4FF78680C37BD4690BDFC
:1023100090B583B000AF7860396038680DF032F95D
:10232000044638680DF039F902467B6821461846A4
:10233000FFF78EFF78680C37BD4690BD80B483B040
:1023400000AF7860002318460C37BD4680BC70474C
:1023500080B483B000AF0346FB71FB79092B03D82F
:10236000FB793033DBB202E0FB793733DBB218465E
:102370000C37BD4680BC704790B589B000AFF8609F
:10238000B9601346FB71F8680DF057F9B8680DF0A5
:10239000F9F8F861B8680DF0F5F80446B8680DF082
:1023A000FCF803462344BB61FB691B78FA799A4227
:1023B00003D1FB690133FB61F6E7FA69BB699A4215
:1023C0001BD0FB693B61FA69BB699A4208D0FB6983
:1023D0001B78FA799A4203D0FB690133FB61F2E77B
:1023E0003B69FA69D31A7B6107F1140207F1100304
:1023F0001946F8680DF0D5F9D6E700BF04E0F86893
:102400000DF0B4F90EF062F8F8682437BD4690BDBF
:1024100090B589B000AFF860B9607A60F8680DF0E7
:102420000CF9B8680DF0B9F80346002B0CBF012376
:102430000023DBB2002B4FD1B8680DF0A3F8F86190
:10244000B8680DF09FF80446B8680DF0A6F803468A
:102450002344BB61FB691B78194678681AF0CAFEF1
:102460000346002B07D0FA69BB699A4203D0FB6987
:102470000133FB61EEE7FA69BB699A4223D0FB693D
:102480003B61FA69BB699A420CD0FB691B7819461B
:1024900078681AF0AFFE0346002B03D1FB690133C5
:1024A000FB61EEE73B69FA69D31A7B6107F114021D
:1024B00007F110031946F8680DF073F9FA69BB6962
:1024C0009A4202D0C6E700BF07E000BF05E0F86807
:1024D0000DF04CF90DF0FAFF00BFF8682437BD4647
:1024E00090BD80B592B000AFF860B9601346FB7143
:1024F000B8680DF093F90346002B0CBF01230023AD
:10250000DBB2002B11D007F1380318460EF014FF90
:1025100007F138031A465149F8680DF093F907F1AD
:10252000380318460EF00CFF94E007F1200318461C
:102530000FF028FB00237B64BB683B64386C0DF014
:10254000AEF903467B61386C0DF0BDF903463B6183
:1025500007F1100207F11403114618460DF0C7F9F0
:102560000346002B15D007F1140318460DF0E7F9C8
:10257000F8637B6C01337B64F86B0FF0E1FB024680
:102580007B6C13447B6407F1140318460DF0C7F904
:10259000DEE707F12003796C18460FF0E1FBB8681D
:1025A0000DF091F90346FB61B8680DF078F9034628
:1025B000BB6107F11C03002118460DF0CBF907F1B0
:1025C0001C0207F11803114618460DF090F9034656
:1025D000002B19D007F1180318460DF0B0F9024688
:1025E00007F120031146184610F0ACF9FA7907F10B
:1025F0002003114618460FF06BFC07F11803002169
:1026000018460DF0C0F9DAE707F1180318460DF087
:1026100096F9024607F120031146184610F092F988
:1026200007F120031946F8680FF0C6FA07F12003F6
:1026300018460FF003FB0DE007F1380318460EF0C3
:102640007FFE0DF043FF07F1200318460FF0F6FA66
:102650000DF03CFFF8684837BD4680BD10390208D0
:1026600080B588B000AFF860B9607A60F8680FF0A4
:1026700089FABB68FB61FA697B681344BB61FA693C
:10268000BB699A4257D0FB691B78184619F036FC93
:102690000346002B06D0FB691B781946F8680FF03B
:1026A00017FC3FE0FB691B780A2B05D10222244965
:1026B000F86810F06BF935E0FB691B78092B05D140
:1026C00002222049F86810F061F92BE0FB691B78C1
:1026D0005C2B05D102221C49F86810F057F921E063
:1026E000FB691B781B09DBB21846FFF731FE034676
:1026F000FB75FB691B7803F00F03DBB21846FFF78D
:1027000027FE0346BB7502221049F86810F03EF917
:10271000FB7D1946F8680FF0DBFBBB7D1946F868B6
:102720000FF0D6FBFB690133FB61A8E7F8680FF0F7
:1027300085FA0DF0CBFE00BFF8682037BD4680BD9E
:1027400014390208183902081C3902082039020815
:1027500090B583B000AF78603960386810F034FA13
:10276000044638680FF0ECFA02467B6821461846AA
:10277000FFF776FF78680C37BD4690BD80B483B014
:1027800000AF0346FB71FB79092B03D8FB7930338B
:10279000DBB202E0FB793733DBB218460C37BD46BB
:1027A00080BC704780B588B000AFF860B9607A60CF
:1027B000BB68FB61FA697B6813447B61FB68BB61A2
:1027C00067E0FB691B780133394A13441B7803F037
:1027D0009703002B06D0BB695A1CBA61FA691278BC
:1027E0001A7053E0FB691B780A2B0AD1BB695A1C8B
:1027F000BA615C221A70BB695A1CBA616E221A70E7
:1028000044E0FB691B78092B0AD1BB695A1CBA61E9
:102810005C221A70BB695A1CBA6174221A7035E0C6
:10282000FB691B785C2B0AD1BB695A1CBA615C221C
:102830001A70BB695A1CBA615C221A7026E0FB69E7
:102840001B781B09DBB21846FFF798FF0346FB74A1
:10285000FB691B7803F00F03DBB21846FFF78EFF0E
:102860000346BB74BB695A1CBA615C221A70BB690F
:102870005A1CBA6178221A70BB695A1CBA61FA7C78
:102880001A70BB695A1CBA61BA7C1A70FB690133B1
:10289000FB61FA697B699A4293D1BB6900221A7085
:1028A000BA69FB68D31A18462037BD4680BD00BF01
:1028B0009056020880B400AF00BFBD4680BC704790
:1028C00080B485B000AF78600B46FB701346BB70D8
:1028D000BB78FB7315E07B685A1C7A601A78FB7B27
:1028E0005340FB73FB7B03F00F030B4AD25CFB7B73
:1028F0001B09DBB203F00F0310330749CB5C5340D5
:10290000FB73FB785A1EFA70002BE4D1FB7B184650
:102910001437BD4680BC70476C39020880B485B05E
:1029200000AF78600B46FB701346BB707B68FB60A2
:10293000BB78FB7222E0FB685A1CFA601B78BB7202
:1029400008237B7217E0FA7ABB7A5340DBB203F0BC
:1029500001033B72FB7A5B08FB723B7A002B04D0CD
:10296000FB7A83F07303DB43FB72BB7A5B08BB72B9
:102970007B7A013B7B727B7A002BE4D1FB785A1E79
:10298000FA70002BD7D1FB7A18461437BD4680BCAD
:10299000704780B485B000AF78600B467B801346EB
:1029A0003B807B68FB603B887B8125E07B891B0A41
:1029B0009BB2DAB2FB68591CF9601B7853407B72FA
:1029C0007B7A1B09DAB27B7A53407B727B891B02CC
:1029D0001AB27B7A9BB21B039BB21BB253401AB252
:1029E0007B7A9BB25B019BB21BB253401AB27B7ADB
:1029F0001BB253401BB27B817B885A1E7A80002B0E
:102A0000D4D17B8918461437BD4680BC704780B44A
:102A100087B000AF78600B46FB708923FB72002300
:102A2000FB7500233B6124E07A683B6913441A7804
:102A3000FB7D5340FB750023FB6014E097F91730D2
:102A4000002B09DAFB7D5B005AB2FB7A5B005BB2BC
:102A500053405BB2DBB202E0FB7D5B00DBB2FB7597
:102A6000FB680133FB60FB68072BE7DD3B69013343
:102A70003B61FB783A699A42D6D3FB7D5B08DBB2B7
:102A800018461C37BD4680BC704780B48BB000AF81
:102A9000F860B9607A607B687B62FB68FB61BB6849
:102AA0009B08BB61BB6803F003037B6100233B62AF
:102AB00052E03B6A9B00FA6913441B687A6A5340F0
:102AC0007B627B6A1A017B6A1B0F554951F82330E0
:102AD00053407B627B6A1A017B6A1B0F504951F895
:102AE000233053407B627B6A1A017B6A1B0F4C497F
:102AF00051F8233053407B627B6A1A017B6A1B0FBB
:102B0000474951F8233053407B627B6A1A017B6A44
:102B10001B0F434951F8233053407B627B6A1A01F3
:102B20007B6A1B0F3E4951F8233053407B627B6A1E
:102B30001A017B6A1B0F3A4951F8233053407B62DC
:102B40007B6A1A017B6A1B0F354951F823305340C9
:102B50007B623B6A01333B623A6ABB699A42A8D303
:102B60007B69002B56D0BB699B00FA6913441B6834
:102B70007A69D200012101FA02F2013A13407A6A1D
:102B800053407B627B6A1A017B6A1B0F244951F810
:102B9000233053407B627B6A1A017B6A1B0F2049FA
:102BA00051F8233053407B627B6A1A017B6A1B0F0A
:102BB0001B4951F8233053407B627B6A1A017B6AC0
:102BC0001B0F174951F8233053407B627B6A1A016F
:102BD0007B6A1B0F124951F8233053407B627B6A9A
:102BE0001A017B6A1B0F0E4951F8233053407B6258
:102BF0007B6A1A017B6A1B0F094951F82330534045
:102C00007B627B6A1A017B6A1B0F054951F82330EE
:102C100053407B627B6A18462C37BD4680BC7047A8
:102C20008C39020880B500AF024802F09AF800BF64
:102C300080BD00BFCC39020880B588B000AFF86015
:102C4000B9607A603B600023FB6178680CF038FA69
:102C50000346BB61FB6A03F02003002B05D0BA6971
:102C6000BB6A9342A8BF1346BB613A68BB699A42EC
:102C700003DD3A68BB69D31A00E000237B61FB6A7D
:102C800003F00103002B0ED1FA697B691344FB6149
:102C900006E0FB682021B86898477B69013B7B61AF
:102CA0007B69002BF5D1FA69BB691344FB6108E02D
:102CB0007B685A1C7A601B781A46FB681146B86814
:102CC0009847BB695A1EBA61002BF1D1FA697B693A
:102CD0001344FB6103E0FB682021B86898477B69D7
:102CE0005A1E7A61002BF6D1FB6918462037BD4683
:102CF00080BD80B594B000AFF860B960C7E900232B
:102D000007F110031633FB62FB6AFB64FB6A0022C7
:102D10001A70BB6D002B0ED0D7E90023002A73F187
:102D2000000308DAD7E90023524263EB4303C7E903
:102D300000237C4B32E0BB6D002B04D07B6E03F094
:102D40000203002B29D1BB6D002B04D07B6E03F056
:102D50000403002B1ED1BB6E082B04D17B6E03F045
:102D60000803002B13D1BB6E102B0DD17B6E03F02B
:102D70000803002B08D07B6E03F48043002B01D0A6
:102D8000694B03E0694B01E0694B02E001E0694BEC
:102D900002E001E0684B01E000E0684BBB64002307
:102DA0007B64B86C0CF08CF90346BB637B6E03F458
:102DB0008043002B01D0412300E06123BB62BB6E46
:102DC0001A464FEAE273D7E900010AF0D7FD13462D
:102DD0003B643B6C092B04DDBB6A3A3B3A6C134401
:102DE0003B643B6CDBB2FA6C013AFA643033DAB222
:102DF000FB6C1A70BB6E1A464FEAE273D7E900010A
:102E00000AF0BCFD02460B46C7E90023D7E90023C0
:102E10001343D4D1FA6AFB6CD31AFB63FA6B3B6E93
:102E20009A420DDB7B6E03F01003002B06D07B6E05
:102E300003F00103002B01D1FB6D02E0002300E051
:102E40003B6EFA6B9A1ABB6BD31A7B637B6B23EADC
:102E5000E3737B63FA6DFB6BD21ABB6BD21A7B6B8D
:102E6000D31A3B633B6B23EAE3733B637B6E03F054
:102E70000103002B0ED17A6C3B6B13447B6406E09C
:102E8000FB682021B86898473B6B013B3B633B6B79
:102E9000002BF5D17A6CBB6B13447B6408E0BB6CF0
:102EA0005A1CBA641B781A46FB681146B8689847E2
:102EB000BB6B5A1EBA63002BF1D17A6C7B6B134447
:102EC0007B6403E0FB683021B86898477B6B5A1E2F
:102ED0007A63002BF6D17A6CFB6B13447B6408E0B9
:102EE000FB6C5A1CFA641B781A46FB681146B868DA
:102EF0009847FB6B5A1EFA63002BF1D17A6C3B6B3F
:102F000013447B6403E0FB682021B86898473B6B5F
:102F10005A1E3A63002BF6D17B6C18465037BD46DB
:102F200080BD00BFE0390208E4390208E839020830
:102F3000EC390208F0390208F4390208F8390208BD
:102F40002DE9B043AAB000AFF860B960C7E900232B
:102F5000D7E90023D7E900010AF0A2FA0346002BC3
:102F600005D04FF000024FF00003C7E9002307F13E
:102F70002C034033C7F8A430D7F8A430C7F8A030EA
:102F8000D7F8A030C7F89830D7F8A03000221A70D0
:102F90007B6803F00043002B15D03B683B607B68E7
:102FA00083F000437B60D7F8CC30102B09D1D7F8E1
:102FB000C83003F48043002B01D0BE4B3EE0BE4B33
:102FC0003CE0BE4B3AE0D7F8C83003F00203002BD8
:102FD0000FD0D7F8CC30102B09D1D7F8C83003F474
:102FE0008043002B01D0B64B28E0B64B26E0B64B11
:102FF00024E0D7F8C83003F00403002B0FD0D7F833
:10300000CC30102B09D1D7F8C83003F48043002B03
:1030100001D0AE4B12E0AE4B10E0AE4B0EE0D7F855
:10302000CC30102B09D1D7F8C83003F48043002BE3
:1030300001D0A94B02E0A94B00E0A94BC7F89C3096
:103040000023C7F89430D7F89430C7F89030D7F8F9
:103050009030BB67D7F89C000CF032F80346C7F8F5
:103060008430D7F8C83003F48043002B01D04123CB
:1030700000E061233B67D7F8C83003F02003002B42
:103080000CD0D7F8D430002B05D0D7F8C430012BA2
:10309000B8BF012309E0D7F8C43006E0D7F8CC3038
:1030A000102B01D10C2300E00623C7F8C43007F130
:1030B00020031A46D7E9000113F078FC02460B46BC
:1030C000C7E90623D7F8D030002B04D1D7F8D43085
:1030D000002B00F099804FF000024FF00003C7E989
:1030E00004232BE0D7E90801D7E9062309F088FD7E
:1030F00002460B4690469946D7F8CC0009F0CCFE24
:1031000002460B46404649460AF05AF802460B462C
:103110001046194607F120031A4613F047FC0246F1
:103120000B46C7E90623D7E904014FF000026D4BB7
:1031300009F066FD02460B46C7E90423D7F8CC0028
:1031400009F0AAFED7E908230AF08CF90346002B00
:10315000C8D1D7E906014FF000024FF000030AF092
:103160006DF90346002B37D12BE0D7E90801D7E9E9
:10317000062309F045FD02460B4690469946D7F8CE
:10318000CC0009F089FE02460B464046494609F04C
:10319000EDFE02460B461046194607F120031A467B
:1031A00013F004FC02460B46C7E90623D7E90401E5
:1031B0004FF000024B4B09F021FD02460B46C7E9D8
:1031C0000423D7E908014FF000024FF000030AF092
:1031D00035F90346002BC8D1D7E904014FF00002AE
:1031E000414B0AF035F90346002B0AD1D7F8C40049
:1031F00009F052FED7E904230AF034F90346002B04
:1032000002D00123C7F8D030D7F8D030002B09D135
:1032100007F120031A46D7E9000113F0C7FB024665
:103220000B4601E0D7E90623C7E90623D7F8D430D7
:10323000002B29D0D7E908231046194613F034FF94
:1032400002460B46104619460EF08EF88046894617
:10325000D7E908014FF000024FF000030AF0EEF842
:103260000346002B03D14FF000001E4903E04FF04E
:1032700000004FF0000142464B4609F0C1FC0246F7
:103280000B469046994603E04FF000084FF00009C6
:10329000D7F8C40009F000FE42464B4609F0AEFCE8
:1032A00002460B46104619460AF010F90346C7F8C5
:1032B000C4302AE0FC390208003A0208E03902086A
:1032C000043A0208083A0208F83902080C3A0208DF
:1032D000103A0208F4390208E4390208E839020811
:1032E000EC3902080000F03F000010C0D7F8CC0015
:1032F00009F0D2FDD7E9062309F038FE02460B4655
:10330000C7E90623BB6F0133BB67BA6FD7F8C43078
:103310009A420FDAD7E906014FF00002A64B13F0EC
:103320004FFE4FF000024FF000030AF087F803460B
:10333000002BDBD0D7E906231046194612F0D0FF48
:1033400002460B46C7E90623D7F8C430002B22D02B
:10335000D7F8CC0009F0A0FD80468946B86F09F087
:103360009BFD02460B464046494613F0D7FED7E97F
:1033700006230AF063F80346002B09D0D7E90801B9
:103380004FF000028C4B09F03BFC02460B4610E06C
:10339000D7E908230DE0D7E90801D7E9062309F0AA
:1033A0002FFC02460B461046194612F099FF0246C2
:1033B0000B46C7E90823D7F8CC0009F06DFD80461D
:1033C0008946B86F09F068FD02460B4640464946FB
:1033D00013F0A4FED7E906230AF030F80346002BC9
:1033E00002D1D7E9062303E04FF000024FF00003BB
:1033F000C7E90623D7F8D030002B36D0D7F8CC0059
:1034000009F04AFDD7E908230AF02CF80346002BFF
:103410002BD0D7E90801D7E9062309F0F1FB0246D2
:103420000B4690469946D7F8CC0009F035FD024688
:103430000B464046494609F0C3FE02460B4610467D
:10344000194607F120031A4613F0B0FA02460B465C
:10345000C7E90623D7E904014FF00002564B09F0F3
:10346000CFFB02460B46C7E90423D7F8D030002B28
:1034700000F0EB80D7E90423144623F00045D7F889
:10348000CC0009F009FD02460B462046294613F000
:1034900097FD02460B46104619460AF017F80346F8
:1034A000C7F88C30D7F88C30092B06DD3B6F3A3BE0
:1034B000D7F88C201344C7F88C30D7F88C30DBB2A7
:1034C000D7F89820013AC7F898203033DAB2D7F805
:1034D00098301A70D7E90489D7F8CC0009F0DCFCE1
:1034E00002460B464046494609F06AFE02460B4634
:1034F0001046194607F110031A4613F057FAD7E998
:1035000004014FF000024FF0000309F097FF03465B
:10351000002BAFD0D7F898000BF0D2FD0346012B5B
:103520000CD1D7F8CC30102B08D0D7F89830013B0D
:10353000C7F89830D7F8983030221A70D7E90423AA
:1035400003F00043002B01D02D2200E02B22D7F8FE
:103550009830013BC7F89830D7F898301A70D7F8F0
:10356000CC30102B09D1D7F8C83003F48043002B9E
:1035700001D050230AE0702308E0D7F8C83003F4E4
:103580008043002B01D0452300E06523D7F8982025
:10359000013AC7F89820D7F898201370D7F89830D8
:1035A000013BC7F8A030D7F8A030C7F8A430D7F84F
:1035B000A03000221A7048E00000F03FD7E906452D
:1035C000D7F8CC0009F068FC02460B462046294695
:1035D00013F0F6FC02460B461046194609F076FF3A
:1035E0000346C7F88C30D7F88C30092B06DD3B6FCB
:1035F0003A3BD7F88C201344C7F88C30D7F88C307E
:10360000DBB2D7F8A420013AC7F8A4203033DAB2ED
:10361000D7F8A4301A70D7E90645D7F8CC0009F0DE
:103620003BFC02460B462046294609F0C9FD0246EE
:103630000B461046194607F118031A4613F0B6F95F
:10364000D7F890300133C7F89030D7F89020BB6F8F
:103650009A42B3DBD7F8C430002B03D0D7F8D4306C
:10366000002B08D0BB6F002B05D1D7F8C83003F072
:103670000803002B08D0D7F8A430013BC7F8A430CA
:10368000D7F8A4302E221A70D7E90845D7F8CC0015
:1036900009F002FC02460B462046294613F090FC36
:1036A00002460B461046194609F010FF0346C7F8BC
:1036B0008C30D7F88C30092B06DD3B6F3A3BD7F8BE
:1036C0008C201344C7F88C30D7F88C30DBB2D7F895
:1036D000A420013AC7F8A4203033DAB2D7F8A430D6
:1036E0001A70D7E90845D7F8CC0009F0D5FB024697
:1036F0000B462046294609F063FD02460B4610465C
:10370000194607F120031A4613F050F9D7E90801CA
:103710004FF000024FF0000309F090FE0346002B2B
:10372000B2D0D7F8A020D7F8A430D31AC7F8883081
:10373000D7F898000BF0C4FC0346C7F88030D7F8E0
:10374000D430002B04D1D7F8C420BB6FD31A00E0CB
:1037500000237B67D7F8C020D7F88430D21AD7F877
:103760008830D21A7B6FD21AD7F88030D31A23EA66
:10377000E373FB67D7F8C83003F01103002B0FD1B8
:10378000D7F89420FB6F1344C7F8943003E0FB682C
:103790002021B8689847FB6F5A1EFA67002BF6D1B4
:1037A000D7F89420D7F884301344C7F894300AE04F
:1037B000D7F89C305A1CC7F89C201B781A46FB6827
:1037C0001146B8689847D7F884305A1EC7F8842045
:1037D000002BEDD1D7F8C83003F01003002B0FD029
:1037E000D7F89420FB6F1344C7F8943003E0FB68CC
:1037F0003021B8689847FB6F5A1EFA67002BF6D144
:10380000D7F89420D7F888301344C7F894300AE0EA
:10381000D7F8A4305A1CC7F8A4201B781A46FB68B6
:103820001146B8689847D7F888305A1EC7F88820DC
:10383000002BEDD1D7F894207B6F1344C7F8943058
:1038400003E0FB683021B86898477B6F5A1E7A679F
:10385000002BF6D1D7F89420D7F880301344C7F85E
:1038600094300AE0D7F898305A1CC7F898201B7893
:103870001A46FB681146B8689847D7F880305A1E38
:10388000C7F88020002BEDD1D7F8C83003F0010332
:10389000002B0FD0D7F89420FB6F1344C7F8943057
:1038A00003E0FB682021B8689847FB6F5A1EFA674F
:1038B000002BF6D1D7F894301846A837BD46BDE89E
:1038C000B083B0B592B006AFF860B9607A603B6083
:1038D0000023FB627B68FB6100F08BBC7B681B787C
:1038E000252B0ED000BF00E000BFFB6A0133FB6256
:1038F0007B681B781A46FB681146B868984700F049
:1039000073BC00233B6242E07B681B78203B102B9A
:1039100045D801A252F823F0713900089F390008F8
:103920009F3900087B3900089F3900089F3900083B
:103930009F3900089F3900089F3900089F39000807
:103940009F390008673900089F3900085D39000871
:103950009F3900089F390008853900083B6A43F009
:1039600001033B6213E03B6A43F002033B620EE05B
:103970003B6A43F004033B6209E03B6A43F00803FF
:103980003B6204E03B6A43F010033B6200BF7B688C
:1039900001337B607B681B78002BB5D100E000BF52
:1039A0007B681B782A2B08D13B681A1D3A601B687C
:1039B000BB627B6801337B6011E0786817F04EFDD5
:1039C000B86202E07B6801337B607B681B7801335F
:1039D000804A13441B7803F00403002BF2D1BB6A26
:1039E00023EAE373BB627B681B782E2B01D1202373
:1039F00000E000233A6A13433B627B681B782E2B5E
:103A00000FD17B6801337B607B681B782A2B08D140
:103A10003B681A1D3A601B687B627B6801337B60E0
:103A200011E0786817F01AFD786202E07B680133D4
:103A30007B607B681B780133664A13441B7803F074
:103A40000403002BF2D17B6A002B05DA3B6A23F0DA
:103A500020033B62002300E07B6A7B627B681B786B
:103A60004C3B2E2B00F2A88001A252F823F000BF9D
:103A7000A93B0008B93B0008B93B0008B93B000866
:103A8000B93B0008B93B0008B93B0008B93B000846
:103A9000B93B0008B93B0008B93B0008B93B000836
:103AA000B93B0008B93B0008B93B0008B93B000826
:103AB000B93B0008B93B0008B93B0008B93B000816
:103AC000B93B0008B93B0008B93B0008B93B000806
:103AD000B93B0008B93B0008B93B0008B93B0008F6
:103AE0002D3B0008B93B0008793B0008B93B0008B2
:103AF000513B0008B93B0008B93B0008B93B00083E
:103B0000B93B0008B93B0008B93B0008B93B0008C5
:103B1000993B0008B93B0008B93B0008B93B0008D5
:103B2000B93B0008B93B0008893B00087B680133BA
:103B30007B607B681B78682B04D17B6801337B60DA
:103B4000402300E080231A463B6A13433B6233E084
:103B50007B6801337B607B681B786C2B05D17B68AD
:103B600001337B604FF4007301E04FF480731A4619
:103B70003B6A13433B621FE03B6A43F480633B6252
:103B80007B6801337B6017E03B6A43F400633B6270
:103B90007B6801337B600FE03B6A43F480533B62F8
:103BA0007B6801337B6007E03B6A43F400533B6270
:103BB0007B6801337B6000BF7B681B780133054A5B
:103BC00013441B7803F00303012B05D14FF480430A
:103BD00003E000BF9056020800233A6A13433B6299
:103BE0007B681B78253B532B00F2AC8001A252F876
:103BF00023F000BFE9380008453D0008453D0008B6
:103C0000453D0008453D0008453D0008453D00088C
:103C1000453D0008453D0008453D0008453D00087C
:103C2000453D0008453D0008453D0008453D00086C
:103C3000453D0008453D0008453D0008453D00085C
:103C4000453D0008453D0008453D0008453D00084C
:103C5000453D0008453D0008453D0008453D00083C
:103C6000453D0008833F0008453D0008453D0008EC
:103C7000453D0008833F0008833F0008833F00085C
:103C8000453D0008453D0008453D0008453D00080C
:103C9000453D0008453D0008453D0008453D0008FC
:103CA000453D0008453D0008453D0008453D0008EC
:103CB000453D0008453D0008453D0008453D0008DC
:103CC0006F3E0008453D0008453D0008453D0008A1
:103CD000453D0008453D0008453D0008453D0008BC
:103CE000453D0008833F0008453D0008814000082D
:103CF000713D0008833F0008833F0008833F0008B0
:103D0000453D0008713D0008453D0008453D00085F
:103D1000453D0008453D00081F4100086F3E000872
:103D2000E3400008453D0008453D0008B14000085B
:103D3000453D00086F3E0008453D0008453D000830
:103D40006F3E00087A68FB69D31A0133FA6A13449C
:103D5000FB62FB691B781A46FB681146B8689847F6
:103D6000FB690133FB61FA697B689A42F1D93BE256
:103D70003B6A03F04003002B08D03B681A1D3A60F1
:103D80001B685BB25AB24FEAE27359E03B6A03F038
:103D90008003002B08D03B681A1D3A601B681BB2D9
:103DA0001AB24FEAE2734BE03B6A03F48073002BD4
:103DB00007D03B681A1D3A601B681A464FEAE27347
:103DC0003EE03B6A03F40073002B09D03B680733E5
:103DD00023F0070303F108023A60D3E900232FE040
:103DE0003B6A03F48063002B09D03B68073323F060
:103DF000070303F108023A60D3E9002320E03B6A9D
:103E000003F40063002B07D03B681A1D3A601B685F
:103E10001A464FEAE27313E03B6A03F48053002B27
:103E200007D03B681A1D3A601B681A464FEAE273D6
:103E300006E03B681A1D3A601B681A464FEAE273B7
:103E4000C7E90423D7E904230A210491396A0391BD
:103E5000796A0291B96A019101210091B968F86803
:103E6000FEF747FF0246FB6A1344FB62BCE13B6A74
:103E700003F04003002B08D03B681A1D3A601B6812
:103E8000DBB2DAB24FF0000356E03B6A03F0800386
:103E9000002B08D03B681A1D3A601B689BB29AB28F
:103EA0004FF0000348E03B6A03F48073002B07D017
:103EB0003B681A1D3A601B681A464FF000033BE04E
:103EC0003B6A03F40073002B09D03B68073323F0EF
:103ED000070303F108023A60D3E900232CE03B6AB0
:103EE00003F48063002B09D03B68073323F00703FA
:103EF00003F108023A60D3E900231DE03B6A03F4B2
:103F00000063002B07D03B681A1D3A601B681A46F5
:103F10004FF0000310E03B6A03F48053002B04D001
:103F20003B681A1D3A601B6803E03B681A1D3A6043
:103F30001B681A464FF00003C7E90423D7E90401C0
:103F40007B681B78752B07D07B681B786F2B01D1A2
:103F5000082302E0102300E00A2304933B6A039342
:103F60007B6A0293BB6A01930023009302460B46CF
:103F7000B968F868FEF7BDFE0246FB6A1344FB62AF
:103F800032E13B6A03F40053002B09D03B6807334E
:103F900023F0070303F108023A60D3E9002308E0A5
:103FA0003B68073323F0070303F108023A60D3E9C3
:103FB0000023C7E90423D7E9042379680978F9764F
:103FC000F97E013190480144097801F0030101298B
:103FD00002D1F97E203100E0F97E612901D1102063
:103FE00000E00A2079680978B976B97E0131864CFB
:103FF0002144097801F00301012902D1B97E203161
:1040000000E0B97E652911D0796809787976797EE2
:1040100001317D4C2144097801F00301012902D1CD
:10402000797E203100E0797E612901D1012400E010
:104030000024796809783976397E0131724D294436
:10404000097801F00301012902D1397E203100E015
:10405000397E67290CBF01210021C9B20591049462
:104060000390396A0291796A0191B96A0091B9683D
:10407000F868FEF765FF0246FB6A1344FB62B3E093
:104080003B681A1D3A601B68DBB23B7400237B74EB
:1040900007F110023B6A01937B6A0093BB6AB9681F
:1040A000F868FEF7C9FD0246FB6A1344FB629BE019
:1040B0003B681A1D3A601B683B613B69002B01D0CD
:1040C0003A6900E0514A3B6A01937B6A0093BB6AFC
:1040D000B968F868FEF7B0FD0246FB6A1344FB625C
:1040E00082E03B681A1D3A601B683B613B691A46D7
:1040F0004FF00003396A41F0180110200490039139
:104100000A210291B96A019100210091B968F86809
:10411000FEF7EFFD0246FB6A1344FB6264E03B6A74
:1041200003F04003002B07D03B681A1D3A601B6860
:10413000FA6A52B21A7056E03B6A03F08003002B11
:1041400007D03B681A1D3A601B68FA6A12B21A80DF
:1041500049E03B6A03F48073002B06D03B681A1DCC
:104160003A601B68FA6A1A603DE03B6A03F4007328
:10417000002B0AD03B681A1D3A601968FB6A1A4680
:104180004FEAE273C1E900232DE03B6A03F4806348
:10419000002B0AD03B681A1D3A601968FB6A1A4660
:1041A0004FEAE273C1E900231DE03B6A03F40063B8
:1041B000002B06D03B681A1D3A601B68FA6A1A6029
:1041C00011E03B6A03F48053002B06D03B681A1DB4
:1041D0003A601B68FA6A1A6005E03B681A1D3A608B
:1041E0001B68FA6A1A6000BF7B6801337B607B68DA
:1041F000FB617B681B78002B7FF470ABFB6A184671
:104200003037BD46B0BD00BF90560208143A0208D0
:1042100080B588B000AFF860B9607A603B60FB6839
:10422000BB617B687B61BB68002B02D03B68002BC5
:1042300001D1002332E0BA683B689A4201D20023E0
:104240002CE03B68012B08D17B691B78BA681946C2
:10425000F8680AF0BDFC034620E0BA683B68D31A50
:10426000BA6913443B61BB69FB6112E0FB691A78D0
:104270007B691B789A4209D13A687969F86918F024
:104280009DF90346002B01D1FB6907E0FB6901336F
:10429000FB61FA693B699A42E8D900231846203746
:1042A000BD4680BD80B483B000AF7860002318465F
:1042B0000C37BD4680BC7047B0B588B000AFF86021
:1042C000B9607A603B60F8680DF05CFCB8680EF08D
:1042D0007BFCF861B8680EF077FC0446B8680DF016
:1042E0002FFD03462344BB6178680DF02BFD034688
:1042F000002B0CBF01230023DBB2002B04D0B968D4
:10430000F8680EF01FFB42E0BA69FB69D31A1D463C
:1043100078680EF059FC044678680DF011FD0346EC
:1043200022462946F869FFF773FF03467B617B69E4
:10433000002B14BF01230023DBB2002B19D07A69B4
:10434000FB69D31A3B613B691A46F969F8680EF0BC
:104350001DFB3B69FA691344FB613968F8680EF08C
:10436000F1FA78680DF0ECFC0246FB691344FB613E
:10437000CAE7BA69FB69D31A1A46F969F8680EF0F8
:1043800005FB04E0F8680DF059FC0CF09FF8F868A4
:104390002037BD46B0BD80B58CB000AFF860B960C5
:1043A0007A603B607B68FB627A683B6813447B629F
:1043B000FB68BB62FB6B002B31D1BB685A1E3B68AC
:1043C000934228BF13463B623B6A1A467968F868F5
:1043D0000AF04EFC3B6AFA68134400221A701EE091
:1043E000FA69FB6AD31A7B617B691A46F96AB86A73
:1043F0000AF03EFC7B69BA6A1344BB627B69FA6AC5
:104400001344FB627A6C396CB86A0AF031FCBA6A00
:104410007B6C1344BB62FA6AFB6B1344FB627A6ADF
:10442000FB6AD31A1946FB6BBA6BF86AFFF7F0FE0A
:10443000F861FB69002BD3D17A6AFB6AD31ABB619E
:10444000BB691A46F96AB86A0AF012FCBB69BA6A13
:10445000134400221A7000BF3037BD4680BD80B5BE
:1044600084B000AFF860B9607A60FB681B687A6856
:104470001946B8680AF0FCFBFB681A687B681A44A6
:10448000FB681A6000BF1037BD4680BD80B483B0A2
:1044900000AF786039607B681A683B681A447B68B3
:1044A0001A6000BF0C37BD4680BC704780B485B031
:1044B00000AFF8600B467A60FB7204E0FB681B6893
:1044C0005A1CFB681A60FB681B687A689A4205D020
:1044D000FB681B681B78FA7A9A42EFD000BF14374A
:1044E000BD4680BC7047000080B485B000AF7860E6
:1044F0000023FB6002E0FB680133FB60FB687A6825
:1045000013441B78002BF6D1FB6818461437BD46C0
:1045100080BC704780B500AF0D20FDF745F90A203B
:10452000FDF742F900BF80BD80B582B000AF034601
:10453000FB71FB7903F00803002B01D0312300E06D
:1045400030231846FDF730F9FB7903F00403002B04
:1045500001D0312300E030231846FDF725F9FB791F
:1045600003F00203002B01D0312300E03023184672
:10457000FDF71AF9FB7903F00103002B01D0312379
:1045800000E030231846FDF70FF900BF0837BD469D
:1045900080BD80B582B000AF0346FB7197F907304C
:1045A000002B01DA312300E030231846FDF7FCF838
:1045B000FB7903F04003002B01D0312300E03023CE
:1045C0001846FDF7F1F8FB7903F02003002B01D02A
:1045D000312300E030231846FDF7E6F8FB7903F0BD
:1045E0001003002B01D0312300E030231846FDF7E3
:1045F000DBF8FB7903F00803002B01D0312300E046
:1046000030231846FDF7D0F8FB7903F00403002BA4
:1046100001D0312300E030231846FDF7C5F8FB79BF
:1046200003F00203002B01D0312300E030231846B1
:10463000FDF7BAF8FB7903F00103002B01D0312319
:1046400000E030231846FDF7AFF800BF0837BD463D
:1046500080BD80B584B000AF0346FB80BB1DFB600E
:10466000FB6801331B781846FFF793FFFB681B7844
:104670001846FFF78EFF00BF1037BD4680BD80B5DE
:1046800084B000AF78603B1DFB60FB6803331B7890
:104690001846FFF77EFFFB6802331B781846FFF7CA
:1046A00078FFFB6801331B781846FFF772FFFB6841
:1046B0001B781846FFF76DFF00BF1037BD4680BD61
:1046C00080B584B000AFC7E900013B46FB60FB68E2
:1046D00007331B781846FFF75CFFFB6806331B782F
:1046E0001846FFF756FFFB6805331B781846FFF79F
:1046F00050FFFB6804331B781846FFF74AFFFB683E
:1047000003331B781846FFF744FFFB6802331B781E
:104710001846FFF73EFFFB6801331B781846FFF78A
:1047200038FFFB681B781846FFF733FF00BF1037D0
:10473000BD4680BD80B58AB000AFC7E9000107F172
:10474000080318333B623B6A7B62D7E900231343BB
:1047500002D13020FDF728F87B6A013B7B627B6A3F
:1047600000221A701BE0D7E900014FF00A024FF057
:10477000000309F003F9D3B27A6A013A7A6230335E
:10478000DAB27B6A1A70D7E900014FF00A024FF0E3
:10479000000309F0F3F802460B46C7E90023D7E906
:1047A00000231343DFD1786A00F0DBFA00BF28371B
:1047B000BD4680BD80B584B000AF0346FB71FB7978
:1047C000092B03D8FB793033DBB202E0FB793733B6
:1047D000DBB2FB73FB7B1846FCF7E6FF00BF10372C
:1047E000BD4680BD80B582B000AF0346FB71FB794A
:1047F0001B09DBB21846FFF7DDFFFB7903F00F035F
:10480000DBB21846FFF7D6FF00BF0837BD4680BDB4
:1048100080B584B000AF786039603B687A68134433
:10482000FB6007E0FB68013BFB60FB681B781846F8
:10483000FFF7D8FF3B685A1E3A60002BF2D100BF49
:1048400000BF1037BD4680BD80B582B000AF0346C3
:10485000FB71FB791846FFF7C5FF00BF0837BD465F
:1048600080BD80B582B000AF0346FB71FB7918466E
:10487000FFF7B8FF00BF0837BD4680BD80B582B0E6
:1048800000AF0346FB80BB1D02211846FFF7C0FFA7
:1048900000BF0837BD4680BD80B582B000AF7860EC
:1048A0003B1D04211846FFF7B3FF00BF0837BD4684
:1048B00080BD80B582B000AF78603B1D04211846F2
:1048C000FFF7A6FF00BF0837BD4680BD80B582B0A8
:1048D00000AFC7E900013B4608211846FFF798FFE3
:1048E00000BF0837BD4680BD80B582B000AF03462B
:1048F000FB71FB791846FFF775FF00BF0837BD460F
:1049000080BD80B582B000AF0346FB80BB1D022195
:104910001846FFF77DFF00BF0837BD4680BD80B554
:1049200082B000AF78603B1D04211846FFF770FF8E
:1049300000BF0837BD4680BD80B582B000AF78604B
:104940003B1D04211846FFF763FF00BF0837BD4633
:1049500080BD80B582B000AFC7E900013B460821A9
:104960001846FFF755FF00BF0837BD4680BD80B52C
:1049700084B000AF0346FB80BB1DFB60FB680133C6
:104980001B781846FFF72EFFFB681B781846FFF7C9
:1049900029FF00BF1037BD4680BD80B584B000AF91
:1049A00078603B1DFB60FB6803331B781846FFF7FC
:1049B00019FFFB6802331B781846FFF713FFFB68EB
:1049C00001331B781846FFF70DFFFB681B7818466C
:1049D000FFF708FF00BF1037BD4680BD80B584B02B
:1049E00000AFC7E900013B46FB60FB6807331B785B
:1049F0001846FFF7F7FEFB6806331B781846FFF7EB
:104A0000F1FEFB6805331B781846FFF7EBFEFB68E9
:104A100004331B781846FFF7E5FEFB6803331B7869
:104A20001846FFF7DFFEFB6802331B781846FFF7D6
:104A3000D9FEFB6801331B781846FFF7D3FEFB68ED
:104A40001B781846FFF7CEFE00BF1037BD4680BD6D
:104A500080B584B000AF78600B467B807B68FB60DC
:104A600006E0FB685A1CFA601B781846FFF7BAFE8E
:104A70007B885A1E7A80002BF3D100BF00BF10370D
:104A8000BD4680BD80B584B000AF78600B467B80AA
:104A90007B887A681344FB6007E0FB68013BFB609E
:104AA000FB681B781846FFF79DFE7B885A1E7A80AC
:104AB000002BF2D100BF00BF1037BD4680BD80B5CE
:104AC00084B000AF78600B467B807B68FB6006E0BB
:104AD000FB685A1CFA601B781846FFF75AFD7B8862
:104AE0005A1E7A80002BF3D100BF00BF1037BD469D
:104AF00080BD80B584B000AF78600B467B807B883A
:104B00007A681344FB6007E0FB68013BFB60FB68CD
:104B10001B781846FFF73DFD7B885A1E7A80002BD4
:104B2000F2D100BF00BF1037BD4680BD80B582B056
:104B300000AF78603960786808F0C0F93A6800F032
:104B40005BF800BF0837BD4680BD80B485B000AFBC
:104B5000C7E90001D7E90023C7E90223D7E9022307
:104B6000104619461437BD4680BC7047B0B582B0B8
:104B700000AFC7E90001D7E90001FFF7E6FF0246F1
:104B80000B464FF0FF306FF0004102EA000403EAE9
:104B900001054FF00002064BAB4208BFA24234BFF2
:104BA00001230023DBB218460837BD46B0BD00BF65
:104BB0000000F07FB0B582B000AFC7E90001D7E9CF
:104BC0000001FFF7C2FF02460B464FF0FF306FF0C7
:104BD000004102EA000403EA01054FF00002054B20
:104BE0009D4206BF944201230023DBB218460837DA
:104BF000BD46B0BD0000F07F80B58AB000AFC7E908
:104C000002017A60D7E90201FFF7B0FF0346002BEB
:104C100003D0484800F0A5F889E0D7E90201FFF782
:104C2000C9FF0346002B12D04FF000024FF00003E3
:104C3000D7E9020108F02AFC0346002B03D03E48C6
:104C400000F08FF873E03D4800F08BF86FE04FF014
:104C500000024FF00003D7E9020108F0F9FB034618
:104C6000002B02D02D20FCF79FFD4FF000024FF0EB
:104C70000003D7E9020108F0EBFB0346002B05D047
:104C8000BB68BB60FB6883F00043FB60D7E90201AF
:104C900008F0A6FE02460B46C7E90423D7E9040143
:104CA000FFF748FD2E20FCF77FFDD7E9040108F04F
:104CB00027F902460B46D7E9020107F09FFF02469B
:104CC0000B46C7E908230023FB6117E04FF0000201
:104CD0001B4BD7E9080108F049F902460B46C7E922
:104CE0000823D7E9080108F0F1FB0346002B02D1A5
:104CF0003020FCF759FDFB690133FB61FA697B68E1
:104D00009A42E3DB4FF000020E4BD7E9080107F0AF
:104D100077FF02460B46C7E90823D7E9080108F0E8
:104D200045FE02460B461046194600F013F9283797
:104D3000BD4680BD1C3A0208203A0208283A020803
:104D4000000024400000E03F80B582B000AF7860F2
:104D50003B1D04211846FFF795FE00BF0837BD46EE
:104D600080BD80B582B000AF78607B68002B0CD12D
:104D70004E20FCF719FD5520FCF716FD4C20FCF7E2
:104D800013FD4C20FCF710FD07E07868FFF7ACFB43
:104D9000034619467868FCF714FD00BF0837BD4686
:104DA00080BD80B586B000AF78600B467B8008235D
:104DB000FB6000237B6163E0FA687B69B3FBF2F17F
:104DC00002FB01F29B1A002B0CD102213D48FCF79B
:104DD000F8FC7A687B6913441846FFF7B5FF3A2060
:104DE000FCF7E2FC7B887A699A420AD27A687B698E
:104DF00013441B781846FFF7F5FC2020FCF7D4FC81
:104E000002E03148FFF7ADFFFA687B69B3FBF2F1CE
:104E100002FB01F29B1AFA68013A93422DD1FB681A
:104E20007A69D31A01333B6121E07B883A699A425F
:104E300003D32020FCF7B8FC16E07A683B691344E2
:104E40001B780133214A13441B7803F09703002B8E
:104E500007D07A683B6913441B781846FCF7A4FC1A
:104E600002E02E20FCF7A0FC3B6901333B613A696C
:104E70007B699A42D9D9FFF74DFB7B6901337B618E
:104E80007A887B88F96893FBF1F1F86800FB01F1FF
:104E90005B1A002B0AD07B88F96893FBF1F1F86864
:104EA00000FB01F15B1AF968CB1A00E00023134400
:104EB0001A467B699342FFF47FAF00BF00BF1837EB
:104EC000BD4680BD303A0208343A020890560208C6
:104ED00080B582B000AF0346FB7197F907204FEA17
:104EE000E2731046194600F035F800BF0837BD469A
:104EF00080BD80B582B000AF0346FB80B7F90620C5
:104F00004FEAE2731046194600F024F800BF083754
:104F1000BD4680BD80B582B000AF78607B681A4620
:104F20004FEAE2731046194600F014F800BF083744
:104F3000BD4680BD80B582B000AF78607B681A4600
:104F40004FEAE2731046194600F004F800BF083734
:104F5000BD4680BD80B582B000AFC7E90001D7E98A
:104F60000023002A73F1000309DAD7E90023524233
:104F700063EB4303C7E900232D20FCF715FCD7E9B9
:104F8000002310461946FFF7D5FB00BF0837BD4682
:104F900080BD80B582B000AF0346FB71FA794FF057
:104FA00000031046194600F034F800BF0837BD462C
:104FB00080BD80B582B000AF0346FB80FA884FF019
:104FC00000031046194600F024F800BF0837BD461C
:104FD00080BD80B582B000AF78607B681A464FF024
:104FE00000031046194600F014F800BF0837BD460C
:104FF00080BD80B582B000AF78607B681A464FF004
:1050000000031046194600F004F800BF0837BD46FB
:1050100080BD80B582B000AFC7E90001D7E90001CB
:10502000FFF788FB00BF0837BD4680BD80B582B062
:1050300000AF0346FB71FA794FF0000310461946A2
:10504000FFF778FB00BF0837BD4680BD80B582B052
:1050500000AF0346FB80FA884FF000031046194664
:10506000FFF768FB00BF0837BD4680BD80B582B042
:1050700000AF78607B681A464FF00003104619466F
:10508000FFF758FB00BF0837BD4680BD80B500AFB5
:105090004120FCF789FB4220FCF786FB4320FCF70C
:1050A00083FB4420FCF780FB4520FCF77DFB31208F
:1050B000FCF77AFB3220FCF777FB3320FCF774FB1C
:1050C0003420FCF771FB3520FCF76EFB00BF80BD80
:1050D00080B400AFFE231846BD4680BC704780B444
:1050E00000AF4FF6DC631846BD4680BC704780B405
:1050F00000AF024B1846BD4680BC704798BADCFE34
:1051000080B400AF04A3D3E9002310461946BD467E
:1051100080BC7047AFF300801032547698BADCFE42
:1051200080B582B000AF0346FB71FB791846FFF7EC
:1051300059FB3A20FCF738FB00BF0837BD4680BD5D
:1051400080B582B000AF03460A46FB711346BB71BF
:10515000FB791846FFF746FB3A20FCF725FBBB79A5
:105160001846FFF73FFB3A20FCF71EFB00BF08374D
:10517000BD4680BD80B582B000AF0346FB710B46D3
:10518000BB7113467B71FB791846FFF72BFB3A2066
:10519000FCF70AFBBB791846FFF724FB3A20FCF723
:1051A00003FB7B791846FFF71DFB3A20FCF7FCFA5E
:1051B00000BF0837BD4680BD90B583B000AF044640
:1051C000084611461A462346FB710346BB710B463F
:1051D0007B7113463B71FB791846FFF703FB3A20BE
:1051E000FCF7E2FABB791846FFF7FCFA3A20FCF725
:1051F000DBFA7B791846FFF7F5FA3A20FCF7D4FA88
:105200003B791846FFF7EEFA3A20FCF7CDFA00BFDB
:105210000C37BD4690BD80B582B000AF0346FB8021
:10522000FB881846FFF7A3FB3A20FCF7BDFA00BF46
:105230000837BD4680BD80B582B000AF03460A4640
:10524000FB801346BB80FB881846FFF790FB3A2093
:10525000FCF7AAFABB881846FFF789FB3A20FCF74F
:10526000A3FA00BF0837BD4680BD80B582B000AF4D
:105270000346FB800B46BB8013467B80FB881846A9
:10528000FFF775FB3A20FCF78FFABB881846FFF74B
:105290006EFB3A20FCF788FA7B881846FFF767FB1D
:1052A0003A20FCF781FA00BF0837BD4680BD90B5B3
:1052B00083B000AF0446084611461A462346FB80D9
:1052C0000346BB800B467B8013463B80FB88184619
:1052D000FFF74DFB3A20FCF767FABB881846FFF74B
:1052E00046FB3A20FCF760FA7B881846FFF73FFB45
:1052F0003A20FCF759FA3B881846FFF738FB3A206A
:10530000FCF752FA00BF0C37BD4690BD80B582B0A5
:1053100000AF78607868FFF740FB3A20FCF744FA6A
:1053200000BF0837BD4680BD80B582B000AF786051
:1053300039607868FFF731FB3A20FCF735FA3868B6
:10534000FFF72BFB3A20FCF72FFA00BF0837BD46CA
:1053500080BD80B584B000AFF860B9607A60F8684D
:10536000FFF71BFB3A20FCF71FFAB868FFF715FBA5
:105370003A20FCF719FA7868FFF70FFB3A20FCF7A0
:1053800013FA00BF1037BD4680BD80B584B000AFB2
:10539000F860B9607A603B60F868FFF7FEFA3A207F
:1053A000FCF702FAB868FFF7F8FA3A20FCF7FCF9C4
:1053B0007868FFF7F2FA3A20FCF7F6F93868FFF759
:1053C000ECFA3A20FCF7F0F900BF1037BD4680BD7B
:1053D00080B582B000AF78607868FFF7B5FC00BF99
:1053E0000837BD4680BD80B582B000AF7860786870
:1053F000FFF7AAFC0D20FCF7D7F90A20FCF7D4F937
:1054000000BF0837BD4680BD80B582B000AF786070
:1054100039603B68DBB21846FCF7C6F900BF0837B5
:10542000BD4680BD80B582B000AF786039603B6812
:105430007A6800210348FEF744FA03461846083705
:10544000BD4680BD095400080FB480B582B000AFDE
:1054500007F114033B6039683869FFF7E3FF7860B0
:105460007B6818460837BD46BDE8804004B07047E9
:1054700080B483B000AF78603960054A7B68136000
:10548000044A3B68136000BF0C37BD4680BC7047C0
:10549000B00A0020B40A002080B582B000AF0346F5
:1054A000FB71094B1B68002B01D1002308E0064B60
:1054B0001B681B68054A1268F9791046984703462D
:1054C00018460837BD4680BDB00A0020B40A002047
:1054D00080B500AF074B1B68002B01D1002307E00C
:1054E000044B1B685B68044A1268104698470346E1
:1054F000184680BDB00A0020B40A002080B582B0F2
:1055000000AF78603960094B1B68002B01D1002384
:1055100008E0064B1B689B68054A10683A68796882
:105520009847034618460837BD4680BDB00A00209C
:10553000B40A002080B582B000AF78603960094BB2
:105540001B68002B01D1002308E0064B1B68DB68B9
:10555000054A10683A68796898470346184608373C
:10556000BD4680BDB00A0020B40A002080B586B0D8
:1055700000AFF860B9607A600D4B1B68002B01D159
:10558000002310E0BB687B6109E07B695A1C7A61EB
:105590001B781846FFF780FF7B68013B7B607B68C8
:1055A000002BF2D1002318461837BD4680BD00BF3E
:1055B000B00A002080B586B000AFF860B9607A60AC
:1055C0000D4B1B68002B01D1002311E0BB687B61F0
:1055D0000AE0FFF77DFF01467B695A1C7A61CAB277
:1055E0001A707B68013B7B607B68002BF1D1002344
:1055F00018461837BD4680BDB00A002080B582B07D
:1056000000AF78607B68013BB3F1807F01D3012359
:1056100012E07B680A4A13600A4A7B68013B5360C8
:10562000084B00229A600F214FF0FF3000F058FA2B
:10563000044B07221A60002318460837BD4680BD78
:105640003C00002010E000E080B584B000AFF860BE
:10565000B9607A603B6040220021F86817F04AF890
:105660007A68FB685A633A68FB681A60FB68BA6834
:105670009A63FB680022DA6300BF1037BD4680BD25
:1056800080E8FF5FC0F838D0EFF31482C263D1F82E
:1056900038D0CA6B82F3148801F1380010E9FC5F3E
:1056A00008684968F7460146D1F838D0CA6B82F3DA
:1056B000148801F1380010E9FC5F08684968F74672
:1056C00080E8FF5FC0F838D0EFF31482C263DFF8E0
:1056D00004F000009D0E000880B500AF0D20FCF71F
:1056E00063F80A20FCF760F800BF80BD1EF0040FCD
:1056F0000CBFEFF30880EFF309808169004A10477F
:105700000757000800BF80B58AB000AF78607B689B
:105710001B687B627B685B683B627B689B68FB61A4
:105720007B68DB68BB617B681B697B617B685B694D
:105730003B617B689B69FB607B68DB69BB604B48B6
:10574000FFF70FFBFFF7C8FF4948FFF70AFB2020D0
:10575000FCF72AF83A20FCF727F82020FCF724F879
:105760007B6A1846FFF7A5F8FFF7B6FF4148FFF739
:10577000F8FA2020FCF718F83A20FCF715F820205A
:10578000FCF712F83B6A1846FFF793F8FFF7A4FFFF
:105790003948FFF7E6FA2020FCF706F83A20FCF734
:1057A00003F82020FCF700F8FB691846FFF781F8A2
:1057B000FFF792FF3148FFF7D4FA2020FBF7F4FF00
:1057C0003A20FBF7F1FF2020FBF7EEFFBB691846FC
:1057D000FFF76FF8FFF780FF2948FFF7C2FA202094
:1057E000FBF7E2FF3A20FBF7DFFF2020FBF7DCFFAF
:1057F0007B691846FFF75DF8FFF76EFF2148FFF75A
:10580000B0FA2020FBF7D0FF3A20FBF7CDFF202095
:10581000FBF7CAFF3B691846FFF74BF8FFF75CFF41
:105820001948FFF79EFA2020FBF7BEFF3A20FBF74E
:10583000BBFF2020FBF7B8FFFB681846FFF739F8DD
:10584000FFF74AFF1148FFF78CFA2020FBF7ACFF67
:105850003A20FBF7A9FF2020FBF7A6FFBB681846FC
:10586000FFF727F8FFF738FFFEE700BF383A0208D6
:10587000443A0208483A02084C3A0208503A0208F0
:10588000543A0208583A02085C3A0208603A0208A0
:1058900080B500AF0D20FBF787FF0A20FBF784FFE0
:1058A00000BF80BD80B586B000AF6548FFF759FAEC
:1058B000FFF7EEFF6348FFF754FA6348FFF788FDF0
:1058C000FFF7E6FF00237B6114E06048FFF749FA29
:1058D0007869FFF71FFB5E48FFF743FA5A4A7B6976
:1058E00052F823301846FEF7E4FFFFF7D1FF7B693B
:1058F00001337B617B69072BE7DD5648FFF731FAFF
:105900005548FFF765FDFFF7C3FF00233B6115E036
:105910004E48FFF726FA3869FFF7FCFA4C48FFF7C4
:1059200020FA494A3B69203352F823301846FEF7E3
:10593000C0FFFFF7ADFF3B6901333B613B69072BBC
:10594000E6DD4648FFF70DFA4548FFF741FDFFF752
:105950009FFF0023FB6015E03C48FFF702FAF86860
:10596000FFF7D8FA3A48FFF7FCF9374AFB684033AB
:1059700052F823301846FEF79CFFFFF789FFFB68BB
:105980000133FB60FB68072BE6DD3648FFF7E9F9DA
:105990003548FFF71DFDFFF77BFF0023BB6014E0D8
:1059A0002A48FFF7DEF9B868FFF7B4FA2848FFF78E
:1059B000D8F9254ABB6852F823301846FEF779FF1C
:1059C000FFF766FFBB680133BB60BB68072BE7DDF1
:1059D0002648FFF7C6F92648FFF7FAFCFFF758FFFD
:1059E00000237B6015E01948FFF7BBF97868FFF7E3
:1059F00091FA1748FFF7B5F9134A7B68803352F8DC
:105A000023301846FEF755FFFFF742FF7B6801334E
:105A10007B607B68072BE6DD1648FFF7A2F9164886
:105A2000FFF7D6FCFFF734FF1448FFF79AF9144844
:105A3000FFF7CEFCFFF72CFF00BF1837BD4680BD37
:105A4000643A0208703A020800E100E0783A02087D
:105A50007C3A0208803A020880E100E0883A0208B5
:105A600000E200E0903A020880E200E0983A020882
:105A700000E300E0A03A020800E400E0A83A0208CF
:105A800000EF00E080B584B000AF78607B685B0910
:105A9000FB607B6803F01F03BB60FB68072B05D925
:105AA0000B4B0C4A40210C4815F0B4FC0B4AFB6828
:105AB00052F823300121BA6801FA02F207491A4369
:105AC000FB6841F8232000BF1037BD4680BD00BFF2
:105AD000B03A0208F43A0208BC3A020800E100E0D9
